{
  "contractName": "Distributor",
  "abi": [
    {
      "anonymous": false,
      "inputs": [
        {
          "indexed": true,
          "internalType": "address",
          "name": "account",
          "type": "address"
        }
      ],
      "name": "DistributorAdded",
      "type": "event"
    },
    {
      "anonymous": false,
      "inputs": [
        {
          "indexed": true,
          "internalType": "address",
          "name": "account",
          "type": "address"
        }
      ],
      "name": "DistributorRemoved",
      "type": "event"
    },
    {
      "anonymous": false,
      "inputs": [
        {
          "indexed": true,
          "internalType": "address",
          "name": "account",
          "type": "address"
        }
      ],
      "name": "DistributorReported",
      "type": "event"
    },
    {
      "anonymous": false,
      "inputs": [
        {
          "indexed": true,
          "internalType": "address",
          "name": "account",
          "type": "address"
        }
      ],
      "name": "DistributorUnreported",
      "type": "event"
    },
    {
      "inputs": [
        {
          "internalType": "address",
          "name": "account",
          "type": "address"
        }
      ],
      "name": "isDistributor",
      "outputs": [
        {
          "internalType": "bool",
          "name": "",
          "type": "bool"
        }
      ],
      "stateMutability": "view",
      "type": "function"
    },
    {
      "inputs": [
        {
          "internalType": "address",
          "name": "account",
          "type": "address"
        }
      ],
      "name": "addDistributor",
      "outputs": [],
      "stateMutability": "nonpayable",
      "type": "function"
    },
    {
      "inputs": [
        {
          "internalType": "address",
          "name": "account",
          "type": "address"
        }
      ],
      "name": "reportDistributor",
      "outputs": [],
      "stateMutability": "nonpayable",
      "type": "function"
    },
    {
      "inputs": [
        {
          "internalType": "address",
          "name": "account",
          "type": "address"
        }
      ],
      "name": "unreportDistributor",
      "outputs": [],
      "stateMutability": "nonpayable",
      "type": "function"
    }
  ],
  "bytecode": "0x608060405234801561001057600080fd5b50336000806101000a81548173ffffffffffffffffffffffffffffffffffffffff021916908373ffffffffffffffffffffffffffffffffffffffff160217905550610666806100606000396000f3fe608060405234801561001057600080fd5b506004361061004c5760003560e01c806352931de8146100515780637250e2241461006d57806381d2e95c146100895780638f0c86fa146100a5575b600080fd5b61006b600480360381019061006691906105cd565b6100d5565b005b610087600480360381019061008291906105cd565b6100e1565b005b6100a3600480360381019061009e91906105cd565b610145565b005b6100bf60048036038101906100ba91906105cd565b610151565b6040516100cc9190610615565b60405180910390f35b6100de8161016e565b50565b3373ffffffffffffffffffffffffffffffffffffffff1660008054906101000a900473ffffffffffffffffffffffffffffffffffffffff1673ffffffffffffffffffffffffffffffffffffffff161461013957600080fd5b610142816101c8565b50565b61014e81610222565b50565b600061016782600161027c90919063ffffffff16565b9050919050565b61018281600161030e90919063ffffffff16565b8073ffffffffffffffffffffffffffffffffffffffff167fe1b1b06fc90496227fbac1fb1445a73dc0b50ffe20541bc439caf054e130f2dd60405160405180910390a250565b6101dc8160016103b990919063ffffffff16565b8073ffffffffffffffffffffffffffffffffffffffff167fddbf200aa634dc3fb81cfd68583dd1040d1c751d335e1d86b631bde3e977fea860405160405180910390a250565b6102368160016104bf90919063ffffffff16565b8073ffffffffffffffffffffffffffffffffffffffff167f5ba057f6859f45b8bf9055bb78466867ffa8b7b7b3eac0e39c132390fa15630b60405160405180910390a250565b60008073ffffffffffffffffffffffffffffffffffffffff168273ffffffffffffffffffffffffffffffffffffffff1614156102b757600080fd5b8260000160008373ffffffffffffffffffffffffffffffffffffffff1673ffffffffffffffffffffffffffffffffffffffff16815260200190815260200160002060009054906101000a900460ff16905092915050565b600073ffffffffffffffffffffffffffffffffffffffff168173ffffffffffffffffffffffffffffffffffffffff16141561034857600080fd5b610352828261027c565b61035b57600080fd5b60008260010160008373ffffffffffffffffffffffffffffffffffffffff1673ffffffffffffffffffffffffffffffffffffffff16815260200190815260200160002060006101000a81548160ff0219169083151502179055505050565b600073ffffffffffffffffffffffffffffffffffffffff168173ffffffffffffffffffffffffffffffffffffffff1614156103f357600080fd5b6103fd828261027c565b1561040757600080fd5b60018260000160008373ffffffffffffffffffffffffffffffffffffffff1673ffffffffffffffffffffffffffffffffffffffff16815260200190815260200160002060006101000a81548160ff02191690831515021790555060008260010160008373ffffffffffffffffffffffffffffffffffffffff1673ffffffffffffffffffffffffffffffffffffffff16815260200190815260200160002060006101000a81548160ff0219169083151502179055505050565b600073ffffffffffffffffffffffffffffffffffffffff168173ffffffffffffffffffffffffffffffffffffffff1614156104f957600080fd5b610503828261027c565b61050c57600080fd5b60018260010160008373ffffffffffffffffffffffffffffffffffffffff1673ffffffffffffffffffffffffffffffffffffffff16815260200190815260200160002060006101000a81548160ff0219169083151502179055505050565b600080fd5b600073ffffffffffffffffffffffffffffffffffffffff82169050919050565b600061059a8261056f565b9050919050565b6105aa8161058f565b81146105b557600080fd5b50565b6000813590506105c7816105a1565b92915050565b6000602082840312156105e3576105e261056a565b5b60006105f1848285016105b8565b91505092915050565b60008115159050919050565b61060f816105fa565b82525050565b600060208201905061062a6000830184610606565b9291505056fea264697066735822122052a64cfba42006b0c494629d9cc782813968413e837ccb9e0d9a5a0c6193ae3b64736f6c634300080b0033",
  "immutableReferences": {},
  "source": "pragma solidity >=0.4.24;\r\n\r\nimport \"./Agents.sol\";\r\nimport \"./Owner.sol\";\r\n\r\ncontract Distributor is Owner{\r\n    using Agents for Agents.Role;\r\n\r\n    event DistributorAdded(address indexed account);\r\n    event DistributorRemoved(address indexed account);\r\n    event DistributorReported(address indexed account);\r\n    event DistributorUnreported(address indexed account);\r\n\r\n    Agents.Role private distributors;\r\n\r\n    modifier onlyDistributor(address account) {\r\n        require(isDistributor(account));\r\n        _;\r\n    }\r\n\r\n    function isDistributor(address account) public view returns (bool) {\r\n        return distributors.has(account);\r\n    }\r\n\r\n    function addDistributor(address account) onlyOwner public {\r\n        _addDistributor(account);\r\n    }\r\n\r\n    function reportDistributor(address account) public {\r\n        _reportDistributor(account);\r\n    }\r\n\r\n    function unreportDistributor(address account) public {\r\n        _unreportDistributor(account);\r\n    }\r\n\r\n    function renounceDistributor(address account) onlyOwner internal {\r\n        _removeDistributor(account);\r\n    }\r\n\r\n    function _addDistributor(address account) internal {\r\n        distributors.add(account);\r\n        emit DistributorAdded(account);\r\n    }\r\n\r\n    function _removeDistributor(address account) internal {\r\n        distributors.remove(account);\r\n        emit DistributorRemoved(account);\r\n    }\r\n\r\n    function _reportDistributor(address account) internal {\r\n        distributors.report(account);\r\n        emit DistributorReported(account);\r\n    }\r\n\r\n    function _unreportDistributor(address account) internal {\r\n        distributors.unreport(account);\r\n        emit DistributorUnreported(account);\r\n    }\r\n}\r\n",
  "sourcePath": "C:\\Users\\Dell\\Desktop\\Contracts\\projectApproach2\\truffle\\contracts\\Distributor.sol",
  "compiler": {
    "name": "solc",
    "version": "0.8.11+commit.d7f03943.Emscripten.clang"
  },
  "schemaVersion": "3.4.5",
  "updatedAt": "2022-03-20T16:52:33.224Z",
  "devdoc": {
    "kind": "dev",
    "methods": {},
    "version": 1
  },
  "userdoc": {
    "kind": "user",
    "methods": {},
    "version": 1
  }
}