{
  "contractName": "Manufacturer",
  "abi": [
    {
      "anonymous": false,
      "inputs": [
        {
          "indexed": true,
          "internalType": "address",
          "name": "account",
          "type": "address"
        }
      ],
      "name": "ManufacturerAdded",
      "type": "event"
    },
    {
      "anonymous": false,
      "inputs": [
        {
          "indexed": true,
          "internalType": "address",
          "name": "account",
          "type": "address"
        }
      ],
      "name": "ManufacturerRemoved",
      "type": "event"
    },
    {
      "anonymous": false,
      "inputs": [
        {
          "indexed": true,
          "internalType": "address",
          "name": "account",
          "type": "address"
        }
      ],
      "name": "ManufacturerReported",
      "type": "event"
    },
    {
      "anonymous": false,
      "inputs": [
        {
          "indexed": true,
          "internalType": "address",
          "name": "account",
          "type": "address"
        }
      ],
      "name": "ManufacturerUnreported",
      "type": "event"
    },
    {
      "inputs": [
        {
          "internalType": "address",
          "name": "account",
          "type": "address"
        }
      ],
      "name": "isManufacturer",
      "outputs": [
        {
          "internalType": "bool",
          "name": "",
          "type": "bool"
        }
      ],
      "stateMutability": "view",
      "type": "function"
    },
    {
      "inputs": [
        {
          "internalType": "address",
          "name": "account",
          "type": "address"
        }
      ],
      "name": "addManufacturer",
      "outputs": [],
      "stateMutability": "nonpayable",
      "type": "function"
    },
    {
      "inputs": [
        {
          "internalType": "address",
          "name": "account",
          "type": "address"
        }
      ],
      "name": "reportManufacturer",
      "outputs": [],
      "stateMutability": "nonpayable",
      "type": "function"
    },
    {
      "inputs": [
        {
          "internalType": "address",
          "name": "account",
          "type": "address"
        }
      ],
      "name": "unreportManufacturer",
      "outputs": [],
      "stateMutability": "nonpayable",
      "type": "function"
    }
  ],
  "bytecode": "0x608060405234801561001057600080fd5b50336000806101000a81548173ffffffffffffffffffffffffffffffffffffffff021916908373ffffffffffffffffffffffffffffffffffffffff160217905550610666806100606000396000f3fe608060405234801561001057600080fd5b506004361061004c5760003560e01c806317d4a491146100515780635f8a5afa14610081578063a3cb25e11461009d578063e4e376a4146100b9575b600080fd5b61006b600480360381019061006691906105cd565b6100d5565b6040516100789190610615565b60405180910390f35b61009b600480360381019061009691906105cd565b6100f2565b005b6100b760048036038101906100b291906105cd565b610156565b005b6100d360048036038101906100ce91906105cd565b610162565b005b60006100eb82600161016e90919063ffffffff16565b9050919050565b3373ffffffffffffffffffffffffffffffffffffffff1660008054906101000a900473ffffffffffffffffffffffffffffffffffffffff1673ffffffffffffffffffffffffffffffffffffffff161461014a57600080fd5b61015381610200565b50565b61015f8161025a565b50565b61016b816102b4565b50565b60008073ffffffffffffffffffffffffffffffffffffffff168273ffffffffffffffffffffffffffffffffffffffff1614156101a957600080fd5b8260000160008373ffffffffffffffffffffffffffffffffffffffff1673ffffffffffffffffffffffffffffffffffffffff16815260200190815260200160002060009054906101000a900460ff16905092915050565b61021481600161030e90919063ffffffff16565b8073ffffffffffffffffffffffffffffffffffffffff167f561138658ca49a8540dc70dcfe64c9026c1c5b9344642242dd6562970f9c127860405160405180910390a250565b61026e81600161041490919063ffffffff16565b8073ffffffffffffffffffffffffffffffffffffffff167fd5343fb03455ce242a0f2aa16059f1b1036283c9220e28e631c46f1d6c55f89560405160405180910390a250565b6102c88160016104bf90919063ffffffff16565b8073ffffffffffffffffffffffffffffffffffffffff167fb95900c899bdac269b9171170672563471748b1d67c0f84de39892ffe1bb74f560405160405180910390a250565b600073ffffffffffffffffffffffffffffffffffffffff168173ffffffffffffffffffffffffffffffffffffffff16141561034857600080fd5b610352828261016e565b1561035c57600080fd5b60018260000160008373ffffffffffffffffffffffffffffffffffffffff1673ffffffffffffffffffffffffffffffffffffffff16815260200190815260200160002060006101000a81548160ff02191690831515021790555060008260010160008373ffffffffffffffffffffffffffffffffffffffff1673ffffffffffffffffffffffffffffffffffffffff16815260200190815260200160002060006101000a81548160ff0219169083151502179055505050565b600073ffffffffffffffffffffffffffffffffffffffff168173ffffffffffffffffffffffffffffffffffffffff16141561044e57600080fd5b610458828261016e565b61046157600080fd5b60018260010160008373ffffffffffffffffffffffffffffffffffffffff1673ffffffffffffffffffffffffffffffffffffffff16815260200190815260200160002060006101000a81548160ff0219169083151502179055505050565b600073ffffffffffffffffffffffffffffffffffffffff168173ffffffffffffffffffffffffffffffffffffffff1614156104f957600080fd5b610503828261016e565b61050c57600080fd5b60008260010160008373ffffffffffffffffffffffffffffffffffffffff1673ffffffffffffffffffffffffffffffffffffffff16815260200190815260200160002060006101000a81548160ff0219169083151502179055505050565b600080fd5b600073ffffffffffffffffffffffffffffffffffffffff82169050919050565b600061059a8261056f565b9050919050565b6105aa8161058f565b81146105b557600080fd5b50565b6000813590506105c7816105a1565b92915050565b6000602082840312156105e3576105e261056a565b5b60006105f1848285016105b8565b91505092915050565b60008115159050919050565b61060f816105fa565b82525050565b600060208201905061062a6000830184610606565b9291505056fea264697066735822122009a5fc4e22179e3f0526fbba3cbf0b0318522cea6decbb4b6f182cdbf2afce4864736f6c634300080b0033",
  "immutableReferences": {},
  "source": "pragma solidity >=0.4.24;\r\n\r\nimport \"./Agents.sol\";\r\nimport \"./Owner.sol\";\r\n\r\ncontract Manufacturer is Owner{\r\n    using Agents for Agents.Role;\r\n\r\n    event ManufacturerAdded(address indexed account);\r\n    event ManufacturerRemoved(address indexed account);\r\n    event ManufacturerReported(address indexed account);\r\n    event ManufacturerUnreported(address indexed account);\r\n\r\n    Agents.Role private manufacturers;\r\n\r\n    modifier onlyManufacturer(address account) {\r\n        require(isManufacturer(account));\r\n        _;\r\n    }\r\n\r\n    function isManufacturer(address account) public view returns (bool) {\r\n        return manufacturers.has(account);\r\n    }\r\n\r\n    function addManufacturer(address account) onlyOwner public {\r\n        _addManufacturer(account);\r\n    }\r\n\r\n    function reportManufacturer(address account) public {\r\n        _reportManufacturer(account);\r\n    }\r\n\r\n    function unreportManufacturer(address account) public {\r\n        _unreportManufacturer(account);\r\n    }\r\n\r\n    function renounceManufacturer(address account) onlyOwner internal {\r\n        _removeManufacturer(account);\r\n    }\r\n\r\n    function _addManufacturer(address account) internal {\r\n        manufacturers.add(account);\r\n        emit ManufacturerAdded(account);\r\n    }\r\n\r\n    function _removeManufacturer(address account) internal {\r\n        manufacturers.remove(account);\r\n        emit ManufacturerRemoved(account);\r\n    }\r\n\r\n    function _reportManufacturer(address account) internal {\r\n        manufacturers.report(account);\r\n        emit ManufacturerReported(account);\r\n    }\r\n\r\n    function _unreportManufacturer(address account) internal {\r\n        manufacturers.unreport(account);\r\n        emit ManufacturerUnreported(account);\r\n    }\r\n}\r\n",
  "sourcePath": "C:\\Users\\Dell\\Desktop\\Contracts\\projectApproach2\\truffle\\contracts\\Manufacturer.sol",
  "compiler": {
    "name": "solc",
    "version": "0.8.11+commit.d7f03943.Emscripten.clang"
  },
  "schemaVersion": "3.4.5",
  "updatedAt": "2022-03-20T16:52:33.236Z",
  "devdoc": {
    "kind": "dev",
    "methods": {},
    "version": 1
  },
  "userdoc": {
    "kind": "user",
    "methods": {},
    "version": 1
  }
}