{
  "contractName": "Retailer",
  "abi": [
    {
      "anonymous": false,
      "inputs": [
        {
          "indexed": true,
          "internalType": "address",
          "name": "account",
          "type": "address"
        }
      ],
      "name": "RetailerAdded",
      "type": "event"
    },
    {
      "anonymous": false,
      "inputs": [
        {
          "indexed": true,
          "internalType": "address",
          "name": "account",
          "type": "address"
        }
      ],
      "name": "RetailerRemoved",
      "type": "event"
    },
    {
      "anonymous": false,
      "inputs": [
        {
          "indexed": true,
          "internalType": "address",
          "name": "account",
          "type": "address"
        }
      ],
      "name": "RetailerReported",
      "type": "event"
    },
    {
      "anonymous": false,
      "inputs": [
        {
          "indexed": true,
          "internalType": "address",
          "name": "account",
          "type": "address"
        }
      ],
      "name": "RetailerUnreported",
      "type": "event"
    },
    {
      "inputs": [
        {
          "internalType": "address",
          "name": "account",
          "type": "address"
        }
      ],
      "name": "isRetailer",
      "outputs": [
        {
          "internalType": "bool",
          "name": "",
          "type": "bool"
        }
      ],
      "stateMutability": "view",
      "type": "function"
    },
    {
      "inputs": [
        {
          "internalType": "address",
          "name": "account",
          "type": "address"
        }
      ],
      "name": "addRetailer",
      "outputs": [],
      "stateMutability": "nonpayable",
      "type": "function"
    },
    {
      "inputs": [
        {
          "internalType": "address",
          "name": "account",
          "type": "address"
        }
      ],
      "name": "reportRetailer",
      "outputs": [],
      "stateMutability": "nonpayable",
      "type": "function"
    },
    {
      "inputs": [
        {
          "internalType": "address",
          "name": "account",
          "type": "address"
        }
      ],
      "name": "unreportRetailer",
      "outputs": [],
      "stateMutability": "nonpayable",
      "type": "function"
    }
  ],
  "bytecode": "0x608060405234801561001057600080fd5b50336000806101000a81548173ffffffffffffffffffffffffffffffffffffffff021916908373ffffffffffffffffffffffffffffffffffffffff160217905550610666806100606000396000f3fe608060405234801561001057600080fd5b506004361061004c5760003560e01c80630fd22c84146100515780635da09b881461006d5780638ec4f5051461009d578063f8bd330b146100b9575b600080fd5b61006b600480360381019061006691906105cd565b6100d5565b005b610087600480360381019061008291906105cd565b6100e1565b6040516100949190610615565b60405180910390f35b6100b760048036038101906100b291906105cd565b6100fe565b005b6100d360048036038101906100ce91906105cd565b610162565b005b6100de8161016e565b50565b60006100f78260016101c890919063ffffffff16565b9050919050565b3373ffffffffffffffffffffffffffffffffffffffff1660008054906101000a900473ffffffffffffffffffffffffffffffffffffffff1673ffffffffffffffffffffffffffffffffffffffff161461015657600080fd5b61015f8161025a565b50565b61016b816102b4565b50565b61018281600161030e90919063ffffffff16565b8073ffffffffffffffffffffffffffffffffffffffff167fe0bf0e8509bb65b00de9afcbc3870546ee37f1442ebfd9fe4211362ceb9dbce360405160405180910390a250565b60008073ffffffffffffffffffffffffffffffffffffffff168273ffffffffffffffffffffffffffffffffffffffff16141561020357600080fd5b8260000160008373ffffffffffffffffffffffffffffffffffffffff1673ffffffffffffffffffffffffffffffffffffffff16815260200190815260200160002060009054906101000a900460ff16905092915050565b61026e8160016103b990919063ffffffff16565b8073ffffffffffffffffffffffffffffffffffffffff167f71ae26cad02663e3d92efd6ec56031a80d74a20c0ab4183faa8bf262261c9baa60405160405180910390a250565b6102c88160016104bf90919063ffffffff16565b8073ffffffffffffffffffffffffffffffffffffffff167fd624a9d6aede8c855ca1538132c456ef4117d142f2b2b6ab106d1c06356715fd60405160405180910390a250565b600073ffffffffffffffffffffffffffffffffffffffff168173ffffffffffffffffffffffffffffffffffffffff16141561034857600080fd5b61035282826101c8565b61035b57600080fd5b60018260010160008373ffffffffffffffffffffffffffffffffffffffff1673ffffffffffffffffffffffffffffffffffffffff16815260200190815260200160002060006101000a81548160ff0219169083151502179055505050565b600073ffffffffffffffffffffffffffffffffffffffff168173ffffffffffffffffffffffffffffffffffffffff1614156103f357600080fd5b6103fd82826101c8565b1561040757600080fd5b60018260000160008373ffffffffffffffffffffffffffffffffffffffff1673ffffffffffffffffffffffffffffffffffffffff16815260200190815260200160002060006101000a81548160ff02191690831515021790555060008260010160008373ffffffffffffffffffffffffffffffffffffffff1673ffffffffffffffffffffffffffffffffffffffff16815260200190815260200160002060006101000a81548160ff0219169083151502179055505050565b600073ffffffffffffffffffffffffffffffffffffffff168173ffffffffffffffffffffffffffffffffffffffff1614156104f957600080fd5b61050382826101c8565b61050c57600080fd5b60008260010160008373ffffffffffffffffffffffffffffffffffffffff1673ffffffffffffffffffffffffffffffffffffffff16815260200190815260200160002060006101000a81548160ff0219169083151502179055505050565b600080fd5b600073ffffffffffffffffffffffffffffffffffffffff82169050919050565b600061059a8261056f565b9050919050565b6105aa8161058f565b81146105b557600080fd5b50565b6000813590506105c7816105a1565b92915050565b6000602082840312156105e3576105e261056a565b5b60006105f1848285016105b8565b91505092915050565b60008115159050919050565b61060f816105fa565b82525050565b600060208201905061062a6000830184610606565b9291505056fea2646970667358221220be8ebc0956a28b62d3f4b989ee86ef7214d6bab42c5a2323d44434f6f90ca06864736f6c634300080b0033",
  "immutableReferences": {},
  "source": "pragma solidity >=0.4.24;\r\n\r\nimport \"./Agents.sol\";\r\nimport \"./Owner.sol\";\r\n\r\ncontract Retailer is Owner {\r\n    using Agents for Agents.Role;\r\n\r\n    event RetailerAdded(address indexed account);\r\n    event RetailerRemoved(address indexed account);\r\n    event RetailerReported(address indexed account);\r\n    event RetailerUnreported(address indexed account);\r\n\r\n    Agents.Role private retailers;\r\n\r\n    modifier onlyRetailer(address account) {\r\n        require(isRetailer(account));\r\n        _;\r\n    }\r\n\r\n    function isRetailer(address account) public view returns (bool) {\r\n        return retailers.has(account);\r\n    }\r\n\r\n    function addRetailer(address account) public onlyOwner {\r\n        _addRetailer(account);\r\n    }\r\n\r\n    function reportRetailer(address account) public {\r\n        _reportRetailer(account);\r\n    }\r\n\r\n    function unreportRetailer(address account) public {\r\n        _unreportRetailer(account);\r\n    }\r\n\r\n    function renounceRetailer(address account) internal onlyOwner {\r\n        _removeRetailer(account);\r\n    }\r\n\r\n    function _addRetailer(address account) internal {\r\n        retailers.add(account);\r\n        emit RetailerAdded(account);\r\n    }\r\n\r\n    function _removeRetailer(address account) internal {\r\n        retailers.remove(account);\r\n        emit RetailerRemoved(account);\r\n    }\r\n\r\n    function _reportRetailer(address account) internal {\r\n        retailers.report(account);\r\n        emit RetailerReported(account);\r\n    }\r\n\r\n    function _unreportRetailer(address account) internal {\r\n        retailers.unreport(account);\r\n        emit RetailerUnreported(account);\r\n    }\r\n}\r\n",
  "sourcePath": "C:\\Users\\Dell\\Desktop\\Contracts\\projectApproach2\\truffle\\contracts\\Retailer.sol",
  "compiler": {
    "name": "solc",
    "version": "0.8.11+commit.d7f03943.Emscripten.clang"
  },
  "schemaVersion": "3.4.5",
  "updatedAt": "2022-03-19T08:34:23.955Z",
  "devdoc": {
    "kind": "dev",
    "methods": {},
    "version": 1
  },
  "userdoc": {
    "kind": "user",
    "methods": {},
    "version": 1
  }
}