{
  "contractName": "SupplyChain",
  "abi": [
    {
      "anonymous": false,
      "inputs": [
        {
          "indexed": true,
          "internalType": "address",
          "name": "account",
          "type": "address"
        }
      ],
      "name": "ConsumerAdded",
      "type": "event"
    },
    {
      "anonymous": false,
      "inputs": [
        {
          "indexed": true,
          "internalType": "address",
          "name": "account",
          "type": "address"
        }
      ],
      "name": "ConsumerRemoved",
      "type": "event"
    },
    {
      "anonymous": false,
      "inputs": [
        {
          "indexed": true,
          "internalType": "address",
          "name": "account",
          "type": "address"
        }
      ],
      "name": "ConsumerReported",
      "type": "event"
    },
    {
      "anonymous": false,
      "inputs": [
        {
          "indexed": true,
          "internalType": "address",
          "name": "account",
          "type": "address"
        }
      ],
      "name": "ConsumerUnreported",
      "type": "event"
    },
    {
      "anonymous": false,
      "inputs": [
        {
          "indexed": true,
          "internalType": "address",
          "name": "account",
          "type": "address"
        }
      ],
      "name": "DistributorAdded",
      "type": "event"
    },
    {
      "anonymous": false,
      "inputs": [
        {
          "indexed": true,
          "internalType": "address",
          "name": "account",
          "type": "address"
        }
      ],
      "name": "DistributorRemoved",
      "type": "event"
    },
    {
      "anonymous": false,
      "inputs": [
        {
          "indexed": true,
          "internalType": "address",
          "name": "account",
          "type": "address"
        }
      ],
      "name": "DistributorReported",
      "type": "event"
    },
    {
      "anonymous": false,
      "inputs": [
        {
          "indexed": true,
          "internalType": "address",
          "name": "account",
          "type": "address"
        }
      ],
      "name": "DistributorUnreported",
      "type": "event"
    },
    {
      "anonymous": false,
      "inputs": [
        {
          "indexed": true,
          "internalType": "uint256",
          "name": "uin",
          "type": "uint256"
        },
        {
          "indexed": false,
          "internalType": "uint256",
          "name": "timeStamp",
          "type": "uint256"
        },
        {
          "indexed": true,
          "internalType": "address",
          "name": "caller",
          "type": "address"
        },
        {
          "indexed": false,
          "internalType": "uint256",
          "name": "price",
          "type": "uint256"
        }
      ],
      "name": "ECollectibleForSaleByCustomer",
      "type": "event"
    },
    {
      "anonymous": false,
      "inputs": [
        {
          "indexed": true,
          "internalType": "uint256",
          "name": "uin",
          "type": "uint256"
        },
        {
          "indexed": false,
          "internalType": "uint256",
          "name": "timeStamp",
          "type": "uint256"
        },
        {
          "indexed": true,
          "internalType": "address",
          "name": "caller",
          "type": "address"
        },
        {
          "indexed": false,
          "internalType": "uint256",
          "name": "price",
          "type": "uint256"
        }
      ],
      "name": "EForSaleByDistributor",
      "type": "event"
    },
    {
      "anonymous": false,
      "inputs": [
        {
          "indexed": true,
          "internalType": "uint256",
          "name": "uin",
          "type": "uint256"
        },
        {
          "indexed": false,
          "internalType": "uint256",
          "name": "timeStamp",
          "type": "uint256"
        },
        {
          "indexed": true,
          "internalType": "address",
          "name": "caller",
          "type": "address"
        },
        {
          "indexed": false,
          "internalType": "uint256",
          "name": "price",
          "type": "uint256"
        }
      ],
      "name": "EForSaleByManufacturer",
      "type": "event"
    },
    {
      "anonymous": false,
      "inputs": [
        {
          "indexed": true,
          "internalType": "uint256",
          "name": "uin",
          "type": "uint256"
        },
        {
          "indexed": false,
          "internalType": "uint256",
          "name": "timeStamp",
          "type": "uint256"
        },
        {
          "indexed": true,
          "internalType": "address",
          "name": "caller",
          "type": "address"
        },
        {
          "indexed": false,
          "internalType": "uint256",
          "name": "price",
          "type": "uint256"
        }
      ],
      "name": "EForSaleByRetailer",
      "type": "event"
    },
    {
      "anonymous": false,
      "inputs": [
        {
          "indexed": true,
          "internalType": "uint256",
          "name": "uin",
          "type": "uint256"
        },
        {
          "indexed": false,
          "internalType": "uint256",
          "name": "timeStamp",
          "type": "uint256"
        },
        {
          "indexed": true,
          "internalType": "address",
          "name": "caller",
          "type": "address"
        }
      ],
      "name": "EProducedByManufacturer",
      "type": "event"
    },
    {
      "anonymous": false,
      "inputs": [
        {
          "indexed": true,
          "internalType": "uint256",
          "name": "uin",
          "type": "uint256"
        },
        {
          "indexed": false,
          "internalType": "uint256",
          "name": "timeStamp",
          "type": "uint256"
        },
        {
          "indexed": false,
          "internalType": "address",
          "name": "caller",
          "type": "address"
        }
      ],
      "name": "EReceivedByCustomer",
      "type": "event"
    },
    {
      "anonymous": false,
      "inputs": [
        {
          "indexed": true,
          "internalType": "uint256",
          "name": "uin",
          "type": "uint256"
        },
        {
          "indexed": false,
          "internalType": "uint256",
          "name": "timeStamp",
          "type": "uint256"
        },
        {
          "indexed": true,
          "internalType": "address",
          "name": "caller",
          "type": "address"
        }
      ],
      "name": "EReceivedByDistributor",
      "type": "event"
    },
    {
      "anonymous": false,
      "inputs": [
        {
          "indexed": true,
          "internalType": "uint256",
          "name": "uin",
          "type": "uint256"
        },
        {
          "indexed": false,
          "internalType": "uint256",
          "name": "timeStamp",
          "type": "uint256"
        },
        {
          "indexed": false,
          "internalType": "address",
          "name": "caller",
          "type": "address"
        }
      ],
      "name": "EReceivedByRetailer",
      "type": "event"
    },
    {
      "anonymous": false,
      "inputs": [
        {
          "indexed": true,
          "internalType": "uint256",
          "name": "uin",
          "type": "uint256"
        },
        {
          "indexed": false,
          "internalType": "uint256",
          "name": "timeStamp",
          "type": "uint256"
        },
        {
          "indexed": false,
          "internalType": "address",
          "name": "caller",
          "type": "address"
        }
      ],
      "name": "EReceivedCollectibleByCustomer",
      "type": "event"
    },
    {
      "anonymous": false,
      "inputs": [
        {
          "indexed": true,
          "internalType": "uint256",
          "name": "uin",
          "type": "uint256"
        },
        {
          "indexed": false,
          "internalType": "uint256",
          "name": "timeStamp",
          "type": "uint256"
        },
        {
          "indexed": true,
          "internalType": "address",
          "name": "caller",
          "type": "address"
        },
        {
          "indexed": true,
          "internalType": "address",
          "name": "receiver",
          "type": "address"
        }
      ],
      "name": "EShippedByDistributor",
      "type": "event"
    },
    {
      "anonymous": false,
      "inputs": [
        {
          "indexed": true,
          "internalType": "uint256",
          "name": "uin",
          "type": "uint256"
        },
        {
          "indexed": false,
          "internalType": "uint256",
          "name": "timeStamp",
          "type": "uint256"
        },
        {
          "indexed": true,
          "internalType": "address",
          "name": "caller",
          "type": "address"
        },
        {
          "indexed": true,
          "internalType": "address",
          "name": "receiver",
          "type": "address"
        }
      ],
      "name": "EShippedByManufacturer",
      "type": "event"
    },
    {
      "anonymous": false,
      "inputs": [
        {
          "indexed": true,
          "internalType": "uint256",
          "name": "uin",
          "type": "uint256"
        },
        {
          "indexed": false,
          "internalType": "uint256",
          "name": "timeStamp",
          "type": "uint256"
        },
        {
          "indexed": true,
          "internalType": "address",
          "name": "caller",
          "type": "address"
        },
        {
          "indexed": true,
          "internalType": "address",
          "name": "receiver",
          "type": "address"
        }
      ],
      "name": "EShippedByRetailer",
      "type": "event"
    },
    {
      "anonymous": false,
      "inputs": [
        {
          "indexed": true,
          "internalType": "uint256",
          "name": "uin",
          "type": "uint256"
        },
        {
          "indexed": false,
          "internalType": "uint256",
          "name": "timeStamp",
          "type": "uint256"
        },
        {
          "indexed": true,
          "internalType": "address",
          "name": "caller",
          "type": "address"
        },
        {
          "indexed": true,
          "internalType": "address",
          "name": "receiver",
          "type": "address"
        }
      ],
      "name": "EShippedtheCollectibleByCustomer",
      "type": "event"
    },
    {
      "anonymous": false,
      "inputs": [
        {
          "indexed": true,
          "internalType": "address",
          "name": "account",
          "type": "address"
        }
      ],
      "name": "ManufacturerAdded",
      "type": "event"
    },
    {
      "anonymous": false,
      "inputs": [
        {
          "indexed": true,
          "internalType": "address",
          "name": "account",
          "type": "address"
        }
      ],
      "name": "ManufacturerRemoved",
      "type": "event"
    },
    {
      "anonymous": false,
      "inputs": [
        {
          "indexed": true,
          "internalType": "address",
          "name": "account",
          "type": "address"
        }
      ],
      "name": "ManufacturerReported",
      "type": "event"
    },
    {
      "anonymous": false,
      "inputs": [
        {
          "indexed": true,
          "internalType": "address",
          "name": "account",
          "type": "address"
        }
      ],
      "name": "ManufacturerUnreported",
      "type": "event"
    },
    {
      "anonymous": false,
      "inputs": [
        {
          "indexed": true,
          "internalType": "address",
          "name": "account",
          "type": "address"
        }
      ],
      "name": "RetailerAdded",
      "type": "event"
    },
    {
      "anonymous": false,
      "inputs": [
        {
          "indexed": true,
          "internalType": "address",
          "name": "account",
          "type": "address"
        }
      ],
      "name": "RetailerRemoved",
      "type": "event"
    },
    {
      "anonymous": false,
      "inputs": [
        {
          "indexed": true,
          "internalType": "address",
          "name": "account",
          "type": "address"
        }
      ],
      "name": "RetailerReported",
      "type": "event"
    },
    {
      "anonymous": false,
      "inputs": [
        {
          "indexed": true,
          "internalType": "address",
          "name": "account",
          "type": "address"
        }
      ],
      "name": "RetailerUnreported",
      "type": "event"
    },
    {
      "inputs": [
        {
          "internalType": "address",
          "name": "account",
          "type": "address"
        }
      ],
      "name": "addConsumer",
      "outputs": [],
      "stateMutability": "nonpayable",
      "type": "function"
    },
    {
      "inputs": [
        {
          "internalType": "address",
          "name": "account",
          "type": "address"
        }
      ],
      "name": "addDistributor",
      "outputs": [],
      "stateMutability": "nonpayable",
      "type": "function"
    },
    {
      "inputs": [
        {
          "internalType": "address",
          "name": "account",
          "type": "address"
        }
      ],
      "name": "addManufacturer",
      "outputs": [],
      "stateMutability": "nonpayable",
      "type": "function"
    },
    {
      "inputs": [
        {
          "internalType": "address",
          "name": "account",
          "type": "address"
        }
      ],
      "name": "addRetailer",
      "outputs": [],
      "stateMutability": "nonpayable",
      "type": "function"
    },
    {
      "inputs": [
        {
          "internalType": "address",
          "name": "account",
          "type": "address"
        }
      ],
      "name": "isConsumer",
      "outputs": [
        {
          "internalType": "bool",
          "name": "",
          "type": "bool"
        }
      ],
      "stateMutability": "view",
      "type": "function",
      "constant": true
    },
    {
      "inputs": [
        {
          "internalType": "address",
          "name": "account",
          "type": "address"
        }
      ],
      "name": "isDistributor",
      "outputs": [
        {
          "internalType": "bool",
          "name": "",
          "type": "bool"
        }
      ],
      "stateMutability": "view",
      "type": "function",
      "constant": true
    },
    {
      "inputs": [
        {
          "internalType": "address",
          "name": "account",
          "type": "address"
        }
      ],
      "name": "isManufacturer",
      "outputs": [
        {
          "internalType": "bool",
          "name": "",
          "type": "bool"
        }
      ],
      "stateMutability": "view",
      "type": "function",
      "constant": true
    },
    {
      "inputs": [
        {
          "internalType": "address",
          "name": "account",
          "type": "address"
        }
      ],
      "name": "isRetailer",
      "outputs": [
        {
          "internalType": "bool",
          "name": "",
          "type": "bool"
        }
      ],
      "stateMutability": "view",
      "type": "function",
      "constant": true
    },
    {
      "inputs": [
        {
          "internalType": "address",
          "name": "account",
          "type": "address"
        }
      ],
      "name": "reportConsumer",
      "outputs": [],
      "stateMutability": "nonpayable",
      "type": "function"
    },
    {
      "inputs": [
        {
          "internalType": "address",
          "name": "account",
          "type": "address"
        }
      ],
      "name": "reportDistributor",
      "outputs": [],
      "stateMutability": "nonpayable",
      "type": "function"
    },
    {
      "inputs": [
        {
          "internalType": "address",
          "name": "account",
          "type": "address"
        }
      ],
      "name": "reportManufacturer",
      "outputs": [],
      "stateMutability": "nonpayable",
      "type": "function"
    },
    {
      "inputs": [
        {
          "internalType": "address",
          "name": "account",
          "type": "address"
        }
      ],
      "name": "reportRetailer",
      "outputs": [],
      "stateMutability": "nonpayable",
      "type": "function"
    },
    {
      "inputs": [
        {
          "internalType": "address",
          "name": "account",
          "type": "address"
        }
      ],
      "name": "unreportConsumer",
      "outputs": [],
      "stateMutability": "nonpayable",
      "type": "function"
    },
    {
      "inputs": [
        {
          "internalType": "address",
          "name": "account",
          "type": "address"
        }
      ],
      "name": "unreportDistributor",
      "outputs": [],
      "stateMutability": "nonpayable",
      "type": "function"
    },
    {
      "inputs": [
        {
          "internalType": "address",
          "name": "account",
          "type": "address"
        }
      ],
      "name": "unreportManufacturer",
      "outputs": [],
      "stateMutability": "nonpayable",
      "type": "function"
    },
    {
      "inputs": [
        {
          "internalType": "address",
          "name": "account",
          "type": "address"
        }
      ],
      "name": "unreportRetailer",
      "outputs": [],
      "stateMutability": "nonpayable",
      "type": "function"
    },
    {
      "inputs": [],
      "name": "getEntity",
      "outputs": [
        {
          "internalType": "uint256",
          "name": "",
          "type": "uint256"
        }
      ],
      "stateMutability": "view",
      "type": "function",
      "constant": true
    },
    {
      "inputs": [
        {
          "internalType": "string",
          "name": "_ProductName",
          "type": "string"
        },
        {
          "internalType": "string",
          "name": "_ProductDesc",
          "type": "string"
        },
        {
          "internalType": "string",
          "name": "_ProductType",
          "type": "string"
        },
        {
          "internalType": "bool",
          "name": "_collectible",
          "type": "bool"
        },
        {
          "internalType": "uint256",
          "name": "weight",
          "type": "uint256"
        }
      ],
      "name": "producebymanufacturer",
      "outputs": [
        {
          "internalType": "uint256",
          "name": "",
          "type": "uint256"
        }
      ],
      "stateMutability": "nonpayable",
      "type": "function"
    },
    {
      "inputs": [
        {
          "internalType": "uint256",
          "name": "uin",
          "type": "uint256"
        },
        {
          "internalType": "uint256",
          "name": "price",
          "type": "uint256"
        }
      ],
      "name": "forsalebymanufacturer",
      "outputs": [],
      "stateMutability": "nonpayable",
      "type": "function"
    },
    {
      "inputs": [
        {
          "internalType": "uint256",
          "name": "uin",
          "type": "uint256"
        },
        {
          "internalType": "address payable",
          "name": "shipTo",
          "type": "address"
        }
      ],
      "name": "shippedbymanufacturer",
      "outputs": [],
      "stateMutability": "nonpayable",
      "type": "function"
    },
    {
      "inputs": [
        {
          "internalType": "uint256",
          "name": "uin",
          "type": "uint256"
        }
      ],
      "name": "receivedbydistributor",
      "outputs": [],
      "stateMutability": "payable",
      "type": "function",
      "payable": true
    },
    {
      "inputs": [
        {
          "internalType": "uint256",
          "name": "uin",
          "type": "uint256"
        },
        {
          "internalType": "uint256",
          "name": "price",
          "type": "uint256"
        }
      ],
      "name": "forsalebydistributor",
      "outputs": [],
      "stateMutability": "nonpayable",
      "type": "function"
    },
    {
      "inputs": [
        {
          "internalType": "uint256",
          "name": "uin",
          "type": "uint256"
        },
        {
          "internalType": "address payable",
          "name": "shipTo",
          "type": "address"
        }
      ],
      "name": "shippedbydistributor",
      "outputs": [],
      "stateMutability": "nonpayable",
      "type": "function"
    },
    {
      "inputs": [
        {
          "internalType": "uint256",
          "name": "uin",
          "type": "uint256"
        }
      ],
      "name": "receivedbyretailer",
      "outputs": [],
      "stateMutability": "payable",
      "type": "function",
      "payable": true
    },
    {
      "inputs": [
        {
          "internalType": "uint256",
          "name": "uin",
          "type": "uint256"
        },
        {
          "internalType": "uint256",
          "name": "price",
          "type": "uint256"
        }
      ],
      "name": "forsalebyretailer",
      "outputs": [],
      "stateMutability": "nonpayable",
      "type": "function"
    },
    {
      "inputs": [
        {
          "internalType": "uint256",
          "name": "uin",
          "type": "uint256"
        },
        {
          "internalType": "address payable",
          "name": "shipTo",
          "type": "address"
        }
      ],
      "name": "shippedbyretailer",
      "outputs": [],
      "stateMutability": "nonpayable",
      "type": "function"
    },
    {
      "inputs": [
        {
          "internalType": "uint256",
          "name": "uin",
          "type": "uint256"
        }
      ],
      "name": "receivedbycustomer",
      "outputs": [],
      "stateMutability": "payable",
      "type": "function",
      "payable": true
    },
    {
      "inputs": [
        {
          "internalType": "uint256",
          "name": "uin",
          "type": "uint256"
        },
        {
          "internalType": "uint256",
          "name": "price",
          "type": "uint256"
        }
      ],
      "name": "collectibleforsalebycustomer",
      "outputs": [],
      "stateMutability": "nonpayable",
      "type": "function"
    },
    {
      "inputs": [
        {
          "internalType": "uint256",
          "name": "uin",
          "type": "uint256"
        },
        {
          "internalType": "address payable",
          "name": "ShipTo",
          "type": "address"
        }
      ],
      "name": "shippedcollectiblebycustomer",
      "outputs": [],
      "stateMutability": "nonpayable",
      "type": "function"
    },
    {
      "inputs": [
        {
          "internalType": "uint256",
          "name": "uin",
          "type": "uint256"
        }
      ],
      "name": "receivedcollectiblebycustomer",
      "outputs": [],
      "stateMutability": "payable",
      "type": "function",
      "payable": true
    },
    {
      "inputs": [
        {
          "internalType": "uint256",
          "name": "uin",
          "type": "uint256"
        }
      ],
      "name": "productDetail",
      "outputs": [
        {
          "components": [
            {
              "internalType": "uint256",
              "name": "uin",
              "type": "uint256"
            },
            {
              "internalType": "string",
              "name": "productName",
              "type": "string"
            },
            {
              "internalType": "string",
              "name": "productType",
              "type": "string"
            },
            {
              "internalType": "string",
              "name": "productDescription",
              "type": "string"
            },
            {
              "internalType": "address payable",
              "name": "manufacturerId",
              "type": "address"
            },
            {
              "internalType": "address payable",
              "name": "CurrentOwner",
              "type": "address"
            },
            {
              "internalType": "address payable",
              "name": "ShipTo",
              "type": "address"
            },
            {
              "internalType": "uint256",
              "name": "productDate",
              "type": "uint256"
            },
            {
              "internalType": "bool",
              "name": "collectible",
              "type": "bool"
            },
            {
              "internalType": "bool",
              "name": "composite",
              "type": "bool"
            },
            {
              "internalType": "bool",
              "name": "visibility",
              "type": "bool"
            },
            {
              "internalType": "uint256",
              "name": "weight",
              "type": "uint256"
            },
            {
              "internalType": "uint256",
              "name": "productPrice",
              "type": "uint256"
            },
            {
              "internalType": "uint256",
              "name": "productHash",
              "type": "uint256"
            },
            {
              "internalType": "enum SupplyChain.State",
              "name": "productState",
              "type": "uint8"
            }
          ],
          "internalType": "struct SupplyChain.Item",
          "name": "",
          "type": "tuple"
        }
      ],
      "stateMutability": "view",
      "type": "function",
      "constant": true
    },
    {
      "inputs": [
        {
          "internalType": "address",
          "name": "z",
          "type": "address"
        }
      ],
      "name": "getOwnedProducts",
      "outputs": [
        {
          "components": [
            {
              "internalType": "uint256",
              "name": "uin",
              "type": "uint256"
            },
            {
              "internalType": "string",
              "name": "productName",
              "type": "string"
            },
            {
              "internalType": "string",
              "name": "productType",
              "type": "string"
            },
            {
              "internalType": "string",
              "name": "productDescription",
              "type": "string"
            },
            {
              "internalType": "address payable",
              "name": "manufacturerId",
              "type": "address"
            },
            {
              "internalType": "address payable",
              "name": "CurrentOwner",
              "type": "address"
            },
            {
              "internalType": "address payable",
              "name": "ShipTo",
              "type": "address"
            },
            {
              "internalType": "uint256",
              "name": "productDate",
              "type": "uint256"
            },
            {
              "internalType": "bool",
              "name": "collectible",
              "type": "bool"
            },
            {
              "internalType": "bool",
              "name": "composite",
              "type": "bool"
            },
            {
              "internalType": "bool",
              "name": "visibility",
              "type": "bool"
            },
            {
              "internalType": "uint256",
              "name": "weight",
              "type": "uint256"
            },
            {
              "internalType": "uint256",
              "name": "productPrice",
              "type": "uint256"
            },
            {
              "internalType": "uint256",
              "name": "productHash",
              "type": "uint256"
            },
            {
              "internalType": "enum SupplyChain.State",
              "name": "productState",
              "type": "uint8"
            }
          ],
          "internalType": "struct SupplyChain.Item[]",
          "name": "",
          "type": "tuple[]"
        }
      ],
      "stateMutability": "view",
      "type": "function",
      "constant": true
    },
    {
      "inputs": [
        {
          "internalType": "address",
          "name": "z",
          "type": "address"
        }
      ],
      "name": "getShippedProducts",
      "outputs": [
        {
          "components": [
            {
              "internalType": "uint256",
              "name": "uin",
              "type": "uint256"
            },
            {
              "internalType": "string",
              "name": "productName",
              "type": "string"
            },
            {
              "internalType": "string",
              "name": "productType",
              "type": "string"
            },
            {
              "internalType": "string",
              "name": "productDescription",
              "type": "string"
            },
            {
              "internalType": "address payable",
              "name": "manufacturerId",
              "type": "address"
            },
            {
              "internalType": "address payable",
              "name": "CurrentOwner",
              "type": "address"
            },
            {
              "internalType": "address payable",
              "name": "ShipTo",
              "type": "address"
            },
            {
              "internalType": "uint256",
              "name": "productDate",
              "type": "uint256"
            },
            {
              "internalType": "bool",
              "name": "collectible",
              "type": "bool"
            },
            {
              "internalType": "bool",
              "name": "composite",
              "type": "bool"
            },
            {
              "internalType": "bool",
              "name": "visibility",
              "type": "bool"
            },
            {
              "internalType": "uint256",
              "name": "weight",
              "type": "uint256"
            },
            {
              "internalType": "uint256",
              "name": "productPrice",
              "type": "uint256"
            },
            {
              "internalType": "uint256",
              "name": "productHash",
              "type": "uint256"
            },
            {
              "internalType": "enum SupplyChain.State",
              "name": "productState",
              "type": "uint8"
            }
          ],
          "internalType": "struct SupplyChain.Item[]",
          "name": "",
          "type": "tuple[]"
        }
      ],
      "stateMutability": "view",
      "type": "function",
      "constant": true
    }
  ],
  "bytecode": "0x60806040526000600d5534801561001557600080fd5b50336000806101000a81548173ffffffffffffffffffffffffffffffffffffffff021916908373ffffffffffffffffffffffffffffffffffffffff160217905550615d6380620000666000396000f3fe6080604052600436106101ee5760003560e01c8063834ff7391161010d578063b2c89009116100a0578063e4e376a41161006f578063e4e376a4146106c7578063ee6197cb146106f0578063f1b7f9ce14610719578063f8bd330b14610756578063ff200d2b1461077f576101ee565b8063b2c890091461061c578063b4bdb42514610645578063c45cca3d1461066e578063d9589fd1146106ab576101ee565b806398968794116100dc57806398968794146105855780639e76a293146105a1578063a3cb25e1146105ca578063a4b2e157146105f3576101ee565b8063834ff739146104c65780638ec4f505146105035780638f0c86fa1461052c5780639331829714610569576101ee565b806342f35885116101855780635f8a5afa116101545780635f8a5afa146104225780637250e2241461044b57806375dcdeb11461047457806381d2e95c1461049d576101ee565b806342f358851461036357806352931de8146103a057806355cf64b4146103c95780635da09b88146103e5576101ee565b80631a42c582116101c15780631a42c582146102ab578063250bb38c146102e85780632b182379146103115780632c5ee9bf1461033a576101ee565b806301b8a64e146101f35780630fd22c841461021c578063112940f91461024557806317d4a4911461026e575b600080fd5b3480156101ff57600080fd5b5061021a60048036038101906102159190614fea565b6107aa565b005b34801561022857600080fd5b50610243600480360381019061023e9190615088565b6108c3565b005b34801561025157600080fd5b5061026c60048036038101906102679190615088565b6108cf565b005b34801561027a57600080fd5b5061029560048036038101906102909190615088565b610933565b6040516102a291906150d0565b60405180910390f35b3480156102b757600080fd5b506102d260048036038101906102cd9190615088565b610950565b6040516102df919061544d565b60405180910390f35b3480156102f457600080fd5b5061030f600480360381019061030a919061549b565b610e73565b005b34801561031d57600080fd5b506103386004803603810190610333919061549b565b611145565b005b34801561034657600080fd5b50610361600480360381019061035c9190615088565b611417565b005b34801561036f57600080fd5b5061038a600480360381019061038591906154db565b611423565b6040516103979190615659565b60405180910390f35b3480156103ac57600080fd5b506103c760048036038101906103c29190615088565b6117c7565b005b6103e360048036038101906103de91906154db565b6117d3565b005b3480156103f157600080fd5b5061040c60048036038101906104079190615088565b611d21565b60405161041991906150d0565b60405180910390f35b34801561042e57600080fd5b5061044960048036038101906104449190615088565b611d3e565b005b34801561045757600080fd5b50610472600480360381019061046d9190615088565b611da2565b005b34801561048057600080fd5b5061049b60048036038101906104969190615088565b611e06565b005b3480156104a957600080fd5b506104c460048036038101906104bf9190615088565b611e12565b005b3480156104d257600080fd5b506104ed60048036038101906104e89190615088565b611e1e565b6040516104fa91906150d0565b60405180910390f35b34801561050f57600080fd5b5061052a60048036038101906105259190615088565b611e3b565b005b34801561053857600080fd5b50610553600480360381019061054e9190615088565b611e9f565b60405161056091906150d0565b60405180910390f35b610583600480360381019061057e91906154db565b611ebc565b005b61059f600480360381019061059a91906154db565b61242b565b005b3480156105ad57600080fd5b506105c860048036038101906105c3919061549b565b612964565b005b3480156105d657600080fd5b506105f160048036038101906105ec9190615088565b612c36565b005b3480156105ff57600080fd5b5061061a60048036038101906106159190614fea565b612c42565b005b34801561062857600080fd5b50610643600480360381019061063e9190614fea565b612d8a565b005b34801561065157600080fd5b5061066c60048036038101906106679190614fea565b612f07565b005b34801561067a57600080fd5b5061069560048036038101906106909190615088565b61304f565b6040516106a2919061544d565b60405180910390f35b6106c560048036038101906106c091906154db565b613572565b005b3480156106d357600080fd5b506106ee60048036038101906106e99190615088565b613aab565b005b3480156106fc57600080fd5b506107176004803603810190610712919061549b565b613ab7565b005b34801561072557600080fd5b50610740600480360381019061073b91906157dc565b613d89565b60405161074d91906158ba565b60405180910390f35b34801561076257600080fd5b5061077d60048036038101906107789190615088565b61419d565b005b34801561078b57600080fd5b506107946141a9565b6040516107a191906158ba565b60405180910390f35b336107b481611d21565b6107bd57600080fd5b826006600c8111156107d2576107d16151ef565b5b600a6000838152602001908152602001600020600c0160009054906101000a900460ff16600c811115610808576108076151ef565b5b1461081257600080fd5b6007600a6000868152602001908152602001600020600c0160006101000a81548160ff0219169083600c81111561084c5761084b6151ef565b5b021790555082600a6000868152602001908152602001600020600a01819055503373ffffffffffffffffffffffffffffffffffffffff16847f5deefb19e7e549a7e04121977fe61c27d9d2842fe25f92cec6ab2d9dfbb8cffe42866040516108b59291906158d5565b60405180910390a350505050565b6108cc8161420f565b50565b3373ffffffffffffffffffffffffffffffffffffffff1660008054906101000a900473ffffffffffffffffffffffffffffffffffffffff1673ffffffffffffffffffffffffffffffffffffffff161461092757600080fd5b61093081614269565b50565b60006109498260056142c390919063ffffffff16565b9050919050565b60606000600b60008473ffffffffffffffffffffffffffffffffffffffff1673ffffffffffffffffffffffffffffffffffffffff1681526020019081526020016000206001018054905067ffffffffffffffff8111156109b3576109b2615685565b5b6040519080825280602002602001820160405280156109ec57816020015b6109d9614e2d565b8152602001906001900390816109d15790505b50905060005b600b60008573ffffffffffffffffffffffffffffffffffffffff1673ffffffffffffffffffffffffffffffffffffffff16815260200190815260200160002060010180549050811015610e69576000600a6000600b60008873ffffffffffffffffffffffffffffffffffffffff1673ffffffffffffffffffffffffffffffffffffffff1681526020019081526020016000206001018481548110610a9957610a986158fe565b5b90600052602060002001548152602001908152602001600020905080604051806101e001604052908160008201548152602001600182018054610adb9061595c565b80601f0160208091040260200160405190810160405280929190818152602001828054610b079061595c565b8015610b545780601f10610b2957610100808354040283529160200191610b54565b820191906000526020600020905b815481529060010190602001808311610b3757829003601f168201915b50505050508152602001600282018054610b6d9061595c565b80601f0160208091040260200160405190810160405280929190818152602001828054610b999061595c565b8015610be65780601f10610bbb57610100808354040283529160200191610be6565b820191906000526020600020905b815481529060010190602001808311610bc957829003601f168201915b50505050508152602001600382018054610bff9061595c565b80601f0160208091040260200160405190810160405280929190818152602001828054610c2b9061595c565b8015610c785780601f10610c4d57610100808354040283529160200191610c78565b820191906000526020600020905b815481529060010190602001808311610c5b57829003601f168201915b505050505081526020016004820160009054906101000a900473ffffffffffffffffffffffffffffffffffffffff1673ffffffffffffffffffffffffffffffffffffffff1673ffffffffffffffffffffffffffffffffffffffff1681526020016005820160009054906101000a900473ffffffffffffffffffffffffffffffffffffffff1673ffffffffffffffffffffffffffffffffffffffff1673ffffffffffffffffffffffffffffffffffffffff1681526020016006820160009054906101000a900473ffffffffffffffffffffffffffffffffffffffff1673ffffffffffffffffffffffffffffffffffffffff1673ffffffffffffffffffffffffffffffffffffffff168152602001600782015481526020016008820160009054906101000a900460ff161515151581526020016008820160019054906101000a900460ff161515151581526020016008820160029054906101000a900460ff1615151515815260200160098201548152602001600a8201548152602001600b8201548152602001600c820160009054906101000a900460ff16600c811115610e2157610e206151ef565b5b600c811115610e3357610e326151ef565b5b81525050838381518110610e4a57610e496158fe565b5b6020026020010181905250508080610e61906159bd565b9150506109f2565b5080915050919050565b33610e7d81611e1e565b610e8657600080fd5b81610e9081611e1e565b610e9957600080fd5b83600a600c811115610eae57610ead6151ef565b5b600a6000838152602001908152602001600020600c0160009054906101000a900460ff16600c811115610ee457610ee36151ef565b5b14610eee57600080fd5b600b600a6000878152602001908152602001600020600c0160006101000a81548160ff0219169083600c811115610f2857610f276151ef565b5b021790555083600a600087815260200190815260200160002060060160006101000a81548173ffffffffffffffffffffffffffffffffffffffff021916908373ffffffffffffffffffffffffffffffffffffffff160217905550600c60008573ffffffffffffffffffffffffffffffffffffffff1673ffffffffffffffffffffffffffffffffffffffff1681526020019081526020016000206000016000815480929190610fd5906159bd565b9190505550600c60008573ffffffffffffffffffffffffffffffffffffffff1673ffffffffffffffffffffffffffffffffffffffff16815260200190815260200160002060010185908060018154018082558091505060019003906000526020600020016000909190919091505584600a600087815260200190815260200160002060050160009054906101000a900473ffffffffffffffffffffffffffffffffffffffff1685600a60008981526020019081526020016000206001016040516020016110a59493929190615b0e565b6040516020818303038152906040528051906020012060001c600a6000878152602001908152602001600020600b01819055508373ffffffffffffffffffffffffffffffffffffffff163373ffffffffffffffffffffffffffffffffffffffff16867fc188b500118c60ef4779ac03c68763ffbdb2be1f6c016872c9e9db545cd7c92f4260405161113691906158ba565b60405180910390a45050505050565b3361114f81611d21565b61115857600080fd5b8161116281611e1e565b61116b57600080fd5b836007600c8111156111805761117f6151ef565b5b600a6000838152602001908152602001600020600c0160009054906101000a900460ff16600c8111156111b6576111b56151ef565b5b146111c057600080fd5b6008600a6000878152602001908152602001600020600c0160006101000a81548160ff0219169083600c8111156111fa576111f96151ef565b5b021790555083600a600087815260200190815260200160002060060160006101000a81548173ffffffffffffffffffffffffffffffffffffffff021916908373ffffffffffffffffffffffffffffffffffffffff160217905550600c60008573ffffffffffffffffffffffffffffffffffffffff1673ffffffffffffffffffffffffffffffffffffffff16815260200190815260200160002060000160008154809291906112a7906159bd565b9190505550600c60008573ffffffffffffffffffffffffffffffffffffffff1673ffffffffffffffffffffffffffffffffffffffff16815260200190815260200160002060010185908060018154018082558091505060019003906000526020600020016000909190919091505584600a600087815260200190815260200160002060050160009054906101000a900473ffffffffffffffffffffffffffffffffffffffff1685600a60008981526020019081526020016000206001016040516020016113779493929190615b0e565b6040516020818303038152906040528051906020012060001c600a6000878152602001908152602001600020600b01819055508373ffffffffffffffffffffffffffffffffffffffff163373ffffffffffffffffffffffffffffffffffffffff16867fff4edcb43f0794bbff4e154b1d284970e59c24e8100f6439c1cecaf0b87eb0904260405161140891906158ba565b60405180910390a45050505050565b61142081614355565b50565b61142b614e2d565b600a6000838152602001908152602001600020604051806101e0016040529081600082015481526020016001820180546114649061595c565b80601f01602080910402602001604051908101604052809291908181526020018280546114909061595c565b80156114dd5780601f106114b2576101008083540402835291602001916114dd565b820191906000526020600020905b8154815290600101906020018083116114c057829003601f168201915b505050505081526020016002820180546114f69061595c565b80601f01602080910402602001604051908101604052809291908181526020018280546115229061595c565b801561156f5780601f106115445761010080835404028352916020019161156f565b820191906000526020600020905b81548152906001019060200180831161155257829003601f168201915b505050505081526020016003820180546115889061595c565b80601f01602080910402602001604051908101604052809291908181526020018280546115b49061595c565b80156116015780601f106115d657610100808354040283529160200191611601565b820191906000526020600020905b8154815290600101906020018083116115e457829003601f168201915b505050505081526020016004820160009054906101000a900473ffffffffffffffffffffffffffffffffffffffff1673ffffffffffffffffffffffffffffffffffffffff1673ffffffffffffffffffffffffffffffffffffffff1681526020016005820160009054906101000a900473ffffffffffffffffffffffffffffffffffffffff1673ffffffffffffffffffffffffffffffffffffffff1673ffffffffffffffffffffffffffffffffffffffff1681526020016006820160009054906101000a900473ffffffffffffffffffffffffffffffffffffffff1673ffffffffffffffffffffffffffffffffffffffff1673ffffffffffffffffffffffffffffffffffffffff168152602001600782015481526020016008820160009054906101000a900460ff161515151581526020016008820160019054906101000a900460ff161515151581526020016008820160029054906101000a900460ff1615151515815260200160098201548152602001600a8201548152602001600b8201548152602001600c820160009054906101000a900460ff16600c8111156117aa576117a96151ef565b5b600c8111156117bc576117bb6151ef565b5b815250509050919050565b6117d0816143af565b50565b336117dd81611e9f565b6117e657600080fd5b600a6000838152602001908152602001600020600a01548034101561180a57600080fd5b826002600c81111561181f5761181e6151ef565b5b600a6000838152602001908152602001600020600c0160009054906101000a900460ff16600c811115611855576118546151ef565b5b1461185f57600080fd5b8380600a600083815260200190815260200160002060050160009054906101000a900473ffffffffffffffffffffffffffffffffffffffff1633600a60008581526020019081526020016000206001016040516020016118c29493929190615b81565b6040516020818303038152906040528051906020012060001c600a6000838152602001908152602001600020600b0154146118fc57600080fd5b6003600a6000878152602001908152602001600020600c0160006101000a81548160ff0219169083600c811115611936576119356151ef565b5b02179055506000600a600087815260200190815260200160002060080160026101000a81548160ff021916908315150217905550600a600086815260200190815260200160002060050160009054906101000a900473ffffffffffffffffffffffffffffffffffffffff1673ffffffffffffffffffffffffffffffffffffffff166108fc600a6000888152602001908152602001600020600a01549081150290604051600060405180830381858888f193505050501580156119fc573d6000803e3d6000fd5b50611a3d85600a600088815260200190815260200160002060050160009054906101000a900473ffffffffffffffffffffffffffffffffffffffff16614409565b600b6000600a600088815260200190815260200160002060050160009054906101000a900473ffffffffffffffffffffffffffffffffffffffff1673ffffffffffffffffffffffffffffffffffffffff1673ffffffffffffffffffffffffffffffffffffffff1681526020019081526020016000206000016000815480929190611ac690615bcb565b919050555033600a600087815260200190815260200160002060050160006101000a81548173ffffffffffffffffffffffffffffffffffffffff021916908373ffffffffffffffffffffffffffffffffffffffff160217905550600c6000600a600088815260200190815260200160002060050160009054906101000a900473ffffffffffffffffffffffffffffffffffffffff1673ffffffffffffffffffffffffffffffffffffffff1673ffffffffffffffffffffffffffffffffffffffff1681526020019081526020016000206000016000815480929190611ba990615bcb565b9190505550611bee85600a600088815260200190815260200160002060050160009054906101000a900473ffffffffffffffffffffffffffffffffffffffff16614656565b6000600a6000878152602001908152602001600020600a0181905550600b60003373ffffffffffffffffffffffffffffffffffffffff1673ffffffffffffffffffffffffffffffffffffffff1681526020019081526020016000206000016000815480929190611c5d906159bd565b9190505550600b60003373ffffffffffffffffffffffffffffffffffffffff1673ffffffffffffffffffffffffffffffffffffffff1681526020019081526020016000206001018590806001815401808255809150506001900390600052602060002001600090919091909150553373ffffffffffffffffffffffffffffffffffffffff16857f28d2d7e57b87b5cd5e17a265773ce73b97b3d2e4595bc6239f69bb0915536d5942604051611d1291906158ba565b60405180910390a35050505050565b6000611d378260016142c390919063ffffffff16565b9050919050565b3373ffffffffffffffffffffffffffffffffffffffff1660008054906101000a900473ffffffffffffffffffffffffffffffffffffffff1673ffffffffffffffffffffffffffffffffffffffff1614611d9657600080fd5b611d9f816148a3565b50565b3373ffffffffffffffffffffffffffffffffffffffff1660008054906101000a900473ffffffffffffffffffffffffffffffffffffffff1673ffffffffffffffffffffffffffffffffffffffff1614611dfa57600080fd5b611e03816148fd565b50565b611e0f81614957565b50565b611e1b816149b1565b50565b6000611e348260036142c390919063ffffffff16565b9050919050565b3373ffffffffffffffffffffffffffffffffffffffff1660008054906101000a900473ffffffffffffffffffffffffffffffffffffffff1673ffffffffffffffffffffffffffffffffffffffff1614611e9357600080fd5b611e9c81614a0b565b50565b6000611eb58260076142c390919063ffffffff16565b9050919050565b33611ec681611e1e565b611ecf57600080fd5b8160011515600a600083815260200190815260200160002060080160009054906101000a900460ff16151514611f0457600080fd5b600a6000848152602001908152602001600020600a015480341015611f2857600080fd5b83600b600c811115611f3d57611f3c6151ef565b5b600a6000838152602001908152602001600020600c0160009054906101000a900460ff16600c811115611f7357611f726151ef565b5b14611f7d57600080fd5b8480600a600083815260200190815260200160002060050160009054906101000a900473ffffffffffffffffffffffffffffffffffffffff1633600a6000858152602001908152602001600020600101604051602001611fe09493929190615b81565b6040516020818303038152906040528051906020012060001c600a6000838152602001908152602001600020600b01541461201a57600080fd5b600c600a6000888152602001908152602001600020600c0160006101000a81548160ff0219169083600c811115612054576120536151ef565b5b02179055506000600a600088815260200190815260200160002060080160026101000a81548160ff021916908315150217905550600a600087815260200190815260200160002060050160009054906101000a900473ffffffffffffffffffffffffffffffffffffffff1673ffffffffffffffffffffffffffffffffffffffff166108fc600a6000898152602001908152602001600020600a01549081150290604051600060405180830381858888f1935050505015801561211a573d6000803e3d6000fd5b50600b6000600a600089815260200190815260200160002060050160009054906101000a900473ffffffffffffffffffffffffffffffffffffffff1673ffffffffffffffffffffffffffffffffffffffff1673ffffffffffffffffffffffffffffffffffffffff16815260200190815260200160002060000160008154809291906121a490615bcb565b91905055506121e986600a600089815260200190815260200160002060050160009054906101000a900473ffffffffffffffffffffffffffffffffffffffff16614409565b33600a600088815260200190815260200160002060050160006101000a81548173ffffffffffffffffffffffffffffffffffffffff021916908373ffffffffffffffffffffffffffffffffffffffff160217905550600c6000600a600089815260200190815260200160002060050160009054906101000a900473ffffffffffffffffffffffffffffffffffffffff1673ffffffffffffffffffffffffffffffffffffffff1673ffffffffffffffffffffffffffffffffffffffff16815260200190815260200160002060000160008154809291906122c790615bcb565b919050555061230c86600a600089815260200190815260200160002060050160009054906101000a900473ffffffffffffffffffffffffffffffffffffffff16614656565b6000600a6000888152602001908152602001600020600a0181905550600b60003373ffffffffffffffffffffffffffffffffffffffff1673ffffffffffffffffffffffffffffffffffffffff168152602001908152602001600020600001600081548092919061237b906159bd565b9190505550600b60003373ffffffffffffffffffffffffffffffffffffffff1673ffffffffffffffffffffffffffffffffffffffff168152602001908152602001600020600101869080600181540180825580915050600190039060005260206000200160009091909190915055857fab24060fff978f4fefd01f7c5907e6b14f60d643e4c578a1cc8b17299cff1340423360405161241b929190615c04565b60405180910390a2505050505050565b3361243581611e1e565b61243e57600080fd5b600a6000838152602001908152602001600020600a01548034101561246257600080fd5b826008600c811115612477576124766151ef565b5b600a6000838152602001908152602001600020600c0160009054906101000a900460ff16600c8111156124ad576124ac6151ef565b5b146124b757600080fd5b8380600a600083815260200190815260200160002060050160009054906101000a900473ffffffffffffffffffffffffffffffffffffffff1633600a600085815260200190815260200160002060010160405160200161251a9493929190615b81565b6040516020818303038152906040528051906020012060001c600a6000838152602001908152602001600020600b01541461255457600080fd5b6009600a6000878152602001908152602001600020600c0160006101000a81548160ff0219169083600c81111561258e5761258d6151ef565b5b02179055506000600a600087815260200190815260200160002060080160026101000a81548160ff021916908315150217905550600a600086815260200190815260200160002060050160009054906101000a900473ffffffffffffffffffffffffffffffffffffffff1673ffffffffffffffffffffffffffffffffffffffff166108fc600a6000888152602001908152602001600020600a01549081150290604051600060405180830381858888f19350505050158015612654573d6000803e3d6000fd5b50600b6000600a600088815260200190815260200160002060050160009054906101000a900473ffffffffffffffffffffffffffffffffffffffff1673ffffffffffffffffffffffffffffffffffffffff1673ffffffffffffffffffffffffffffffffffffffff16815260200190815260200160002060000160008154809291906126de90615bcb565b919050555061272385600a600088815260200190815260200160002060050160009054906101000a900473ffffffffffffffffffffffffffffffffffffffff16614409565b33600a600087815260200190815260200160002060050160006101000a81548173ffffffffffffffffffffffffffffffffffffffff021916908373ffffffffffffffffffffffffffffffffffffffff160217905550600c6000600a600088815260200190815260200160002060050160009054906101000a900473ffffffffffffffffffffffffffffffffffffffff1673ffffffffffffffffffffffffffffffffffffffff1673ffffffffffffffffffffffffffffffffffffffff168152602001908152602001600020600001600081548092919061280190615bcb565b919050555061284685600a600088815260200190815260200160002060050160009054906101000a900473ffffffffffffffffffffffffffffffffffffffff16614656565b6000600a6000878152602001908152602001600020600a0181905550600b60003373ffffffffffffffffffffffffffffffffffffffff1673ffffffffffffffffffffffffffffffffffffffff16815260200190815260200160002060000160008154809291906128b5906159bd565b9190505550600b60003373ffffffffffffffffffffffffffffffffffffffff1673ffffffffffffffffffffffffffffffffffffffff168152602001908152602001600020600101859080600181540180825580915050600190039060005260206000200160009091909190915055847f0d607424e7c8d7272e3adc76ab8e220c0de7a8c179d358e62ac8b7b22a5579224233604051612955929190615c04565b60405180910390a25050505050565b3361296e81610933565b61297757600080fd5b8161298181611e9f565b61298a57600080fd5b836001600c81111561299f5761299e6151ef565b5b600a6000838152602001908152602001600020600c0160009054906101000a900460ff16600c8111156129d5576129d46151ef565b5b146129df57600080fd5b6002600a6000878152602001908152602001600020600c0160006101000a81548160ff0219169083600c811115612a1957612a186151ef565b5b021790555083600a600087815260200190815260200160002060060160006101000a81548173ffffffffffffffffffffffffffffffffffffffff021916908373ffffffffffffffffffffffffffffffffffffffff160217905550600c60008573ffffffffffffffffffffffffffffffffffffffff1673ffffffffffffffffffffffffffffffffffffffff1681526020019081526020016000206000016000815480929190612ac6906159bd565b9190505550600c60008573ffffffffffffffffffffffffffffffffffffffff1673ffffffffffffffffffffffffffffffffffffffff16815260200190815260200160002060010185908060018154018082558091505060019003906000526020600020016000909190919091505584600a600087815260200190815260200160002060050160009054906101000a900473ffffffffffffffffffffffffffffffffffffffff1685600a6000898152602001908152602001600020600101604051602001612b969493929190615b0e565b6040516020818303038152906040528051906020012060001c600a6000878152602001908152602001600020600b01819055508373ffffffffffffffffffffffffffffffffffffffff163373ffffffffffffffffffffffffffffffffffffffff16867fef1cb90ab53defb050ecdf1bec6f745742f554e1b09526e39f960d571cd1f3bd42604051612c2791906158ba565b60405180910390a45050505050565b612c3f81614a65565b50565b33612c4c81611e9f565b612c5557600080fd5b826003600c811115612c6a57612c696151ef565b5b600a6000838152602001908152602001600020600c0160009054906101000a900460ff16600c811115612ca057612c9f6151ef565b5b14612caa57600080fd5b6001600a600086815260200190815260200160002060080160026101000a81548160ff0219169083151502179055506004600a6000868152602001908152602001600020600c0160006101000a81548160ff0219169083600c811115612d1357612d126151ef565b5b021790555082600a6000868152602001908152602001600020600a01819055503373ffffffffffffffffffffffffffffffffffffffff16847f02b81c1405d612f3db14b449985a4aabdff28384bb7e12c5e4c4aa9fa1e9f9af4286604051612d7c9291906158d5565b60405180910390a350505050565b33612d9481611e1e565b612d9d57600080fd5b826009600c811115612db257612db16151ef565b5b600a6000838152602001908152602001600020600c0160009054906101000a900460ff16600c811115612de857612de76151ef565b5b14612df257600080fd5b8360011515600a600083815260200190815260200160002060080160009054906101000a900460ff16151514612e2757600080fd5b600a806000878152602001908152602001600020600c0160006101000a81548160ff0219169083600c811115612e6057612e5f6151ef565b5b021790555083600a6000878152602001908152602001600020600a01819055506001600a600087815260200190815260200160002060080160026101000a81548160ff0219169083151502179055503373ffffffffffffffffffffffffffffffffffffffff16857f15f96be6e4c7b03490c8220da8251fffd4f5f08ba5a8713a96c746c1b71d25474287604051612ef89291906158d5565b60405180910390a35050505050565b33612f1181610933565b612f1a57600080fd5b826000600c811115612f2f57612f2e6151ef565b5b600a6000838152602001908152602001600020600c0160009054906101000a900460ff16600c811115612f6557612f646151ef565b5b14612f6f57600080fd5b6001600a600086815260200190815260200160002060080160026101000a81548160ff0219169083151502179055506001600a6000868152602001908152602001600020600c0160006101000a81548160ff0219169083600c811115612fd857612fd76151ef565b5b021790555082600a6000868152602001908152602001600020600a01819055503373ffffffffffffffffffffffffffffffffffffffff16847f191580e268a8474c31b11f8958417d1f71b35d25884cd5e49ab272d6faaa01b542866040516130419291906158d5565b60405180910390a350505050565b60606000600c60008473ffffffffffffffffffffffffffffffffffffffff1673ffffffffffffffffffffffffffffffffffffffff1681526020019081526020016000206001018054905067ffffffffffffffff8111156130b2576130b1615685565b5b6040519080825280602002602001820160405280156130eb57816020015b6130d8614e2d565b8152602001906001900390816130d05790505b50905060005b600c60008573ffffffffffffffffffffffffffffffffffffffff1673ffffffffffffffffffffffffffffffffffffffff16815260200190815260200160002060010180549050811015613568576000600a6000600c60008873ffffffffffffffffffffffffffffffffffffffff1673ffffffffffffffffffffffffffffffffffffffff1681526020019081526020016000206001018481548110613198576131976158fe565b5b90600052602060002001548152602001908152602001600020905080604051806101e0016040529081600082015481526020016001820180546131da9061595c565b80601f01602080910402602001604051908101604052809291908181526020018280546132069061595c565b80156132535780601f1061322857610100808354040283529160200191613253565b820191906000526020600020905b81548152906001019060200180831161323657829003601f168201915b5050505050815260200160028201805461326c9061595c565b80601f01602080910402602001604051908101604052809291908181526020018280546132989061595c565b80156132e55780601f106132ba576101008083540402835291602001916132e5565b820191906000526020600020905b8154815290600101906020018083116132c857829003601f168201915b505050505081526020016003820180546132fe9061595c565b80601f016020809104026020016040519081016040528092919081815260200182805461332a9061595c565b80156133775780601f1061334c57610100808354040283529160200191613377565b820191906000526020600020905b81548152906001019060200180831161335a57829003601f168201915b505050505081526020016004820160009054906101000a900473ffffffffffffffffffffffffffffffffffffffff1673ffffffffffffffffffffffffffffffffffffffff1673ffffffffffffffffffffffffffffffffffffffff1681526020016005820160009054906101000a900473ffffffffffffffffffffffffffffffffffffffff1673ffffffffffffffffffffffffffffffffffffffff1673ffffffffffffffffffffffffffffffffffffffff1681526020016006820160009054906101000a900473ffffffffffffffffffffffffffffffffffffffff1673ffffffffffffffffffffffffffffffffffffffff1673ffffffffffffffffffffffffffffffffffffffff168152602001600782015481526020016008820160009054906101000a900460ff161515151581526020016008820160019054906101000a900460ff161515151581526020016008820160029054906101000a900460ff1615151515815260200160098201548152602001600a8201548152602001600b8201548152602001600c820160009054906101000a900460ff16600c8111156135205761351f6151ef565b5b600c811115613532576135316151ef565b5b81525050838381518110613549576135486158fe565b5b6020026020010181905250508080613560906159bd565b9150506130f1565b5080915050919050565b3361357c81611d21565b61358557600080fd5b600a6000838152602001908152602001600020600a0154803410156135a957600080fd5b826005600c8111156135be576135bd6151ef565b5b600a6000838152602001908152602001600020600c0160009054906101000a900460ff16600c8111156135f4576135f36151ef565b5b146135fe57600080fd5b8380600a600083815260200190815260200160002060050160009054906101000a900473ffffffffffffffffffffffffffffffffffffffff1633600a60008581526020019081526020016000206001016040516020016136619493929190615b81565b6040516020818303038152906040528051906020012060001c600a6000838152602001908152602001600020600b01541461369b57600080fd5b6006600a6000878152602001908152602001600020600c0160006101000a81548160ff0219169083600c8111156136d5576136d46151ef565b5b02179055506000600a600087815260200190815260200160002060080160026101000a81548160ff021916908315150217905550600a600086815260200190815260200160002060050160009054906101000a900473ffffffffffffffffffffffffffffffffffffffff1673ffffffffffffffffffffffffffffffffffffffff166108fc600a6000888152602001908152602001600020600a01549081150290604051600060405180830381858888f1935050505015801561379b573d6000803e3d6000fd5b50600b6000600a600088815260200190815260200160002060050160009054906101000a900473ffffffffffffffffffffffffffffffffffffffff1673ffffffffffffffffffffffffffffffffffffffff1673ffffffffffffffffffffffffffffffffffffffff168152602001908152602001600020600001600081548092919061382590615bcb565b919050555061386a85600a600088815260200190815260200160002060050160009054906101000a900473ffffffffffffffffffffffffffffffffffffffff16614409565b33600a600087815260200190815260200160002060050160006101000a81548173ffffffffffffffffffffffffffffffffffffffff021916908373ffffffffffffffffffffffffffffffffffffffff160217905550600c6000600a600088815260200190815260200160002060050160009054906101000a900473ffffffffffffffffffffffffffffffffffffffff1673ffffffffffffffffffffffffffffffffffffffff1673ffffffffffffffffffffffffffffffffffffffff168152602001908152602001600020600001600081548092919061394890615bcb565b919050555061398d85600a600088815260200190815260200160002060050160009054906101000a900473ffffffffffffffffffffffffffffffffffffffff16614656565b6000600a6000878152602001908152602001600020600a0181905550600b60003373ffffffffffffffffffffffffffffffffffffffff1673ffffffffffffffffffffffffffffffffffffffff16815260200190815260200160002060000160008154809291906139fc906159bd565b9190505550600b60003373ffffffffffffffffffffffffffffffffffffffff1673ffffffffffffffffffffffffffffffffffffffff168152602001908152602001600020600101859080600181540180825580915050600190039060005260206000200160009091909190915055847f568f99bfa0294af6be0e3aafa4f1109a23175d03006f5e4341622b2e3ce5c1a44233604051613a9c929190615c04565b60405180910390a25050505050565b613ab481614abf565b50565b33613ac181611e9f565b613aca57600080fd5b81613ad481611d21565b613add57600080fd5b836004600c811115613af257613af16151ef565b5b600a6000838152602001908152602001600020600c0160009054906101000a900460ff16600c811115613b2857613b276151ef565b5b14613b3257600080fd5b6005600a6000878152602001908152602001600020600c0160006101000a81548160ff0219169083600c811115613b6c57613b6b6151ef565b5b021790555083600a600087815260200190815260200160002060060160006101000a81548173ffffffffffffffffffffffffffffffffffffffff021916908373ffffffffffffffffffffffffffffffffffffffff160217905550600c60008573ffffffffffffffffffffffffffffffffffffffff1673ffffffffffffffffffffffffffffffffffffffff1681526020019081526020016000206000016000815480929190613c19906159bd565b9190505550600c60008573ffffffffffffffffffffffffffffffffffffffff1673ffffffffffffffffffffffffffffffffffffffff16815260200190815260200160002060010185908060018154018082558091505060019003906000526020600020016000909190919091505584600a600087815260200190815260200160002060050160009054906101000a900473ffffffffffffffffffffffffffffffffffffffff1685600a6000898152602001908152602001600020600101604051602001613ce99493929190615b0e565b6040516020818303038152906040528051906020012060001c600a6000878152602001908152602001600020600b01819055508373ffffffffffffffffffffffffffffffffffffffff163373ffffffffffffffffffffffffffffffffffffffff16867ff0085f598ab3ac050dca19ea301994110bdc7e266c0baf0ac5d4604dadd913d242604051613d7a91906158ba565b60405180910390a45050505050565b600033613d9581610933565b613d9e57600080fd5b6000613da8614b19565b90506000339050604051806101e001604052808381526020018a81526020018881526020018981526020018273ffffffffffffffffffffffffffffffffffffffff1681526020018273ffffffffffffffffffffffffffffffffffffffff168152602001600073ffffffffffffffffffffffffffffffffffffffff168152602001428152602001871515815260200160001515815260200160001515815260200186815260200160008152602001600081526020016000600c811115613e7057613e6f6151ef565b5b815250600a6000848152602001908152602001600020600082015181600001556020820151816001019080519060200190613eac929190614efd565b506040820151816002019080519060200190613ec9929190614efd565b506060820151816003019080519060200190613ee6929190614efd565b5060808201518160040160006101000a81548173ffffffffffffffffffffffffffffffffffffffff021916908373ffffffffffffffffffffffffffffffffffffffff16021790555060a08201518160050160006101000a81548173ffffffffffffffffffffffffffffffffffffffff021916908373ffffffffffffffffffffffffffffffffffffffff16021790555060c08201518160060160006101000a81548173ffffffffffffffffffffffffffffffffffffffff021916908373ffffffffffffffffffffffffffffffffffffffff16021790555060e082015181600701556101008201518160080160006101000a81548160ff0219169083151502179055506101208201518160080160016101000a81548160ff0219169083151502179055506101408201518160080160026101000a81548160ff021916908315150217905550610160820151816009015561018082015181600a01556101a082015181600b01556101c082015181600c0160006101000a81548160ff0219169083600c811115614076576140756151ef565b5b0217905550905050600b60008273ffffffffffffffffffffffffffffffffffffffff1673ffffffffffffffffffffffffffffffffffffffff16815260200190815260200160002060000160008154809291906140d1906159bd565b9190505550600b60008273ffffffffffffffffffffffffffffffffffffffff1673ffffffffffffffffffffffffffffffffffffffff1681526020019081526020016000206001018290806001815401808255809150506001900390600052602060002001600090919091909150553373ffffffffffffffffffffffffffffffffffffffff16827f5927e9cc693825f286f7181d772897345cef501932018aa4196ad97926cd54244260405161418691906158ba565b60405180910390a381935050505095945050505050565b6141a681614b77565b50565b60006141b433610933565b156141c2576001905061420c565b6141cb33611e9f565b156141d9576002905061420c565b6141e233611d21565b156141f0576003905061420c565b6141f933611e1e565b15614207576004905061420c565b600590505b90565b614223816001614bd190919063ffffffff16565b8073ffffffffffffffffffffffffffffffffffffffff167fe0bf0e8509bb65b00de9afcbc3870546ee37f1442ebfd9fe4211362ceb9dbce360405160405180910390a250565b61427d816003614c7c90919063ffffffff16565b8073ffffffffffffffffffffffffffffffffffffffff167f28b26e7a3d20aedbc5f8f2ebf7da671c0491723a2b78f47a097b0e46dee0714260405160405180910390a250565b60008073ffffffffffffffffffffffffffffffffffffffff168273ffffffffffffffffffffffffffffffffffffffff1614156142fe57600080fd5b8260000160008373ffffffffffffffffffffffffffffffffffffffff1673ffffffffffffffffffffffffffffffffffffffff16815260200190815260200160002060009054906101000a900460ff16905092915050565b614369816003614d8290919063ffffffff16565b8073ffffffffffffffffffffffffffffffffffffffff167f32dc543199df7e5ecd26e37915c895ccf94e87339d27cfe42886e67b06070fa960405160405180910390a250565b6143c3816007614d8290919063ffffffff16565b8073ffffffffffffffffffffffffffffffffffffffff167fe1b1b06fc90496227fbac1fb1445a73dc0b50ffe20541bc439caf054e130f2dd60405160405180910390a250565b60005b600b60008373ffffffffffffffffffffffffffffffffffffffff1673ffffffffffffffffffffffffffffffffffffffff1681526020019081526020016000206001018054905081101561465157600b60008373ffffffffffffffffffffffffffffffffffffffff1673ffffffffffffffffffffffffffffffffffffffff16815260200190815260200160002060010181815481106144ad576144ac6158fe565b5b906000526020600020015483141561463e57600b60008373ffffffffffffffffffffffffffffffffffffffff1673ffffffffffffffffffffffffffffffffffffffff1681526020019081526020016000206001016001600b60008573ffffffffffffffffffffffffffffffffffffffff1673ffffffffffffffffffffffffffffffffffffffff168152602001908152602001600020600101805490506145539190615c2d565b81548110614564576145636158fe565b5b9060005260206000200154600b60008473ffffffffffffffffffffffffffffffffffffffff1673ffffffffffffffffffffffffffffffffffffffff16815260200190815260200160002060010182815481106145c3576145c26158fe565b5b9060005260206000200181905550600b60008373ffffffffffffffffffffffffffffffffffffffff1673ffffffffffffffffffffffffffffffffffffffff16815260200190815260200160002060010180548061462357614622615c61565b5b60019003818190600052602060002001600090559055614651565b8080614649906159bd565b91505061440c565b505050565b60005b600c60008373ffffffffffffffffffffffffffffffffffffffff1673ffffffffffffffffffffffffffffffffffffffff1681526020019081526020016000206001018054905081101561489e57600c60008373ffffffffffffffffffffffffffffffffffffffff1673ffffffffffffffffffffffffffffffffffffffff16815260200190815260200160002060010181815481106146fa576146f96158fe565b5b906000526020600020015483141561488b57600c60008373ffffffffffffffffffffffffffffffffffffffff1673ffffffffffffffffffffffffffffffffffffffff1681526020019081526020016000206001016001600c60008573ffffffffffffffffffffffffffffffffffffffff1673ffffffffffffffffffffffffffffffffffffffff168152602001908152602001600020600101805490506147a09190615c2d565b815481106147b1576147b06158fe565b5b9060005260206000200154600c60008473ffffffffffffffffffffffffffffffffffffffff1673ffffffffffffffffffffffffffffffffffffffff16815260200190815260200160002060010182815481106148105761480f6158fe565b5b9060005260206000200181905550600c60008373ffffffffffffffffffffffffffffffffffffffff1673ffffffffffffffffffffffffffffffffffffffff1681526020019081526020016000206001018054806148705761486f615c61565b5b6001900381819060005260206000200160009055905561489e565b8080614896906159bd565b915050614659565b505050565b6148b7816005614c7c90919063ffffffff16565b8073ffffffffffffffffffffffffffffffffffffffff167f561138658ca49a8540dc70dcfe64c9026c1c5b9344642242dd6562970f9c127860405160405180910390a250565b614911816007614c7c90919063ffffffff16565b8073ffffffffffffffffffffffffffffffffffffffff167fddbf200aa634dc3fb81cfd68583dd1040d1c751d335e1d86b631bde3e977fea860405160405180910390a250565b61496b816003614bd190919063ffffffff16565b8073ffffffffffffffffffffffffffffffffffffffff167f32be4a8d8826ffe9dc8a86625dc3a215b00e3d5820fcc2d92ff5487356f5cab060405160405180910390a250565b6149c5816007614bd190919063ffffffff16565b8073ffffffffffffffffffffffffffffffffffffffff167f5ba057f6859f45b8bf9055bb78466867ffa8b7b7b3eac0e39c132390fa15630b60405160405180910390a250565b614a1f816001614c7c90919063ffffffff16565b8073ffffffffffffffffffffffffffffffffffffffff167f71ae26cad02663e3d92efd6ec56031a80d74a20c0ab4183faa8bf262261c9baa60405160405180910390a250565b614a79816005614bd190919063ffffffff16565b8073ffffffffffffffffffffffffffffffffffffffff167fd5343fb03455ce242a0f2aa16059f1b1036283c9220e28e631c46f1d6c55f89560405160405180910390a250565b614ad3816005614d8290919063ffffffff16565b8073ffffffffffffffffffffffffffffffffffffffff167fb95900c899bdac269b9171170672563471748b1d67c0f84de39892ffe1bb74f560405160405180910390a250565b6000600d6000815480929190614b2e906159bd565b91905055506304ec38ed4233600d54604051602001614b4f93929190615c90565b6040516020818303038152906040528051906020012060001c614b729190615cfc565b905090565b614b8b816001614d8290919063ffffffff16565b8073ffffffffffffffffffffffffffffffffffffffff167fd624a9d6aede8c855ca1538132c456ef4117d142f2b2b6ab106d1c06356715fd60405160405180910390a250565b600073ffffffffffffffffffffffffffffffffffffffff168173ffffffffffffffffffffffffffffffffffffffff161415614c0b57600080fd5b614c1582826142c3565b614c1e57600080fd5b60018260010160008373ffffffffffffffffffffffffffffffffffffffff1673ffffffffffffffffffffffffffffffffffffffff16815260200190815260200160002060006101000a81548160ff0219169083151502179055505050565b600073ffffffffffffffffffffffffffffffffffffffff168173ffffffffffffffffffffffffffffffffffffffff161415614cb657600080fd5b614cc082826142c3565b15614cca57600080fd5b60018260000160008373ffffffffffffffffffffffffffffffffffffffff1673ffffffffffffffffffffffffffffffffffffffff16815260200190815260200160002060006101000a81548160ff02191690831515021790555060008260010160008373ffffffffffffffffffffffffffffffffffffffff1673ffffffffffffffffffffffffffffffffffffffff16815260200190815260200160002060006101000a81548160ff0219169083151502179055505050565b600073ffffffffffffffffffffffffffffffffffffffff168173ffffffffffffffffffffffffffffffffffffffff161415614dbc57600080fd5b614dc682826142c3565b614dcf57600080fd5b60008260010160008373ffffffffffffffffffffffffffffffffffffffff1673ffffffffffffffffffffffffffffffffffffffff16815260200190815260200160002060006101000a81548160ff0219169083151502179055505050565b604051806101e0016040528060008152602001606081526020016060815260200160608152602001600073ffffffffffffffffffffffffffffffffffffffff168152602001600073ffffffffffffffffffffffffffffffffffffffff168152602001600073ffffffffffffffffffffffffffffffffffffffff168152602001600081526020016000151581526020016000151581526020016000151581526020016000815260200160008152602001600081526020016000600c811115614ef757614ef66151ef565b5b81525090565b828054614f099061595c565b90600052602060002090601f016020900481019282614f2b5760008555614f72565b82601f10614f4457805160ff1916838001178555614f72565b82800160010185558215614f72579182015b82811115614f71578251825591602001919060010190614f56565b5b509050614f7f9190614f83565b5090565b5b80821115614f9c576000816000905550600101614f84565b5090565b6000604051905090565b600080fd5b600080fd5b6000819050919050565b614fc781614fb4565b8114614fd257600080fd5b50565b600081359050614fe481614fbe565b92915050565b6000806040838503121561500157615000614faa565b5b600061500f85828601614fd5565b925050602061502085828601614fd5565b9150509250929050565b600073ffffffffffffffffffffffffffffffffffffffff82169050919050565b60006150558261502a565b9050919050565b6150658161504a565b811461507057600080fd5b50565b6000813590506150828161505c565b92915050565b60006020828403121561509e5761509d614faa565b5b60006150ac84828501615073565b91505092915050565b60008115159050919050565b6150ca816150b5565b82525050565b60006020820190506150e560008301846150c1565b92915050565b600081519050919050565b600082825260208201905092915050565b6000819050602082019050919050565b61512081614fb4565b82525050565b600081519050919050565b600082825260208201905092915050565b60005b83811015615160578082015181840152602081019050615145565b8381111561516f576000848401525b50505050565b6000601f19601f8301169050919050565b600061519182615126565b61519b8185615131565b93506151ab818560208601615142565b6151b481615175565b840191505092915050565b60006151ca8261502a565b9050919050565b6151da816151bf565b82525050565b6151e9816150b5565b82525050565b7f4e487b7100000000000000000000000000000000000000000000000000000000600052602160045260246000fd5b600d811061522f5761522e6151ef565b5b50565b60008190506152408261521e565b919050565b600061525082615232565b9050919050565b61526081615245565b82525050565b60006101e08301600083015161527f6000860182615117565b50602083015184820360208601526152978282615186565b915050604083015184820360408601526152b18282615186565b915050606083015184820360608601526152cb8282615186565b91505060808301516152e060808601826151d1565b5060a08301516152f360a08601826151d1565b5060c083015161530660c08601826151d1565b5060e083015161531960e0860182615117565b5061010083015161532e6101008601826151e0565b506101208301516153436101208601826151e0565b506101408301516153586101408601826151e0565b5061016083015161536d610160860182615117565b50610180830151615382610180860182615117565b506101a08301516153976101a0860182615117565b506101c08301516153ac6101c0860182615257565b508091505092915050565b60006153c38383615266565b905092915050565b6000602082019050919050565b60006153e3826150eb565b6153ed81856150f6565b9350836020820285016153ff85615107565b8060005b8581101561543b578484038952815161541c85826153b7565b9450615427836153cb565b925060208a01995050600181019050615403565b50829750879550505050505092915050565b6000602082019050818103600083015261546781846153d8565b905092915050565b615478816151bf565b811461548357600080fd5b50565b6000813590506154958161546f565b92915050565b600080604083850312156154b2576154b1614faa565b5b60006154c085828601614fd5565b92505060206154d185828601615486565b9150509250929050565b6000602082840312156154f1576154f0614faa565b5b60006154ff84828501614fd5565b91505092915050565b60006101e0830160008301516155216000860182615117565b50602083015184820360208601526155398282615186565b915050604083015184820360408601526155538282615186565b9150506060830151848203606086015261556d8282615186565b915050608083015161558260808601826151d1565b5060a083015161559560a08601826151d1565b5060c08301516155a860c08601826151d1565b5060e08301516155bb60e0860182615117565b506101008301516155d06101008601826151e0565b506101208301516155e56101208601826151e0565b506101408301516155fa6101408601826151e0565b5061016083015161560f610160860182615117565b50610180830151615624610180860182615117565b506101a08301516156396101a0860182615117565b506101c083015161564e6101c0860182615257565b508091505092915050565b600060208201905081810360008301526156738184615508565b905092915050565b600080fd5b600080fd5b7f4e487b7100000000000000000000000000000000000000000000000000000000600052604160045260246000fd5b6156bd82615175565b810181811067ffffffffffffffff821117156156dc576156db615685565b5b80604052505050565b60006156ef614fa0565b90506156fb82826156b4565b919050565b600067ffffffffffffffff82111561571b5761571a615685565b5b61572482615175565b9050602081019050919050565b82818337600083830152505050565b600061575361574e84615700565b6156e5565b90508281526020810184848401111561576f5761576e615680565b5b61577a848285615731565b509392505050565b600082601f8301126157975761579661567b565b5b81356157a7848260208601615740565b91505092915050565b6157b9816150b5565b81146157c457600080fd5b50565b6000813590506157d6816157b0565b92915050565b600080600080600060a086880312156157f8576157f7614faa565b5b600086013567ffffffffffffffff81111561581657615815614faf565b5b61582288828901615782565b955050602086013567ffffffffffffffff81111561584357615842614faf565b5b61584f88828901615782565b945050604086013567ffffffffffffffff8111156158705761586f614faf565b5b61587c88828901615782565b935050606061588d888289016157c7565b925050608061589e88828901614fd5565b9150509295509295909350565b6158b481614fb4565b82525050565b60006020820190506158cf60008301846158ab565b92915050565b60006040820190506158ea60008301856158ab565b6158f760208301846158ab565b9392505050565b7f4e487b7100000000000000000000000000000000000000000000000000000000600052603260045260246000fd5b7f4e487b7100000000000000000000000000000000000000000000000000000000600052602260045260246000fd5b6000600282049050600182168061597457607f821691505b602082108114156159885761598761592d565b5b50919050565b7f4e487b7100000000000000000000000000000000000000000000000000000000600052601160045260246000fd5b60006159c882614fb4565b91507fffffffffffffffffffffffffffffffffffffffffffffffffffffffffffffffff8214156159fb576159fa61598e565b5b600182019050919050565b6000819050919050565b615a21615a1c82614fb4565b615a06565b82525050565b60008160601b9050919050565b6000615a3f82615a27565b9050919050565b6000615a5182615a34565b9050919050565b615a69615a64826151bf565b615a46565b82525050565b600081905092915050565b60008190508160005260206000209050919050565b60008154615a9c8161595c565b615aa68186615a6f565b94506001821660008114615ac15760018114615ad257615b05565b60ff19831686528186019350615b05565b615adb85615a7a565b60005b83811015615afd57815481890152600182019150602081019050615ade565b838801955050505b50505092915050565b6000615b1a8287615a10565b602082019150615b2a8286615a58565b601482019150615b3a8285615a58565b601482019150615b4a8284615a8f565b915081905095945050505050565b6000615b6382615a34565b9050919050565b615b7b615b768261504a565b615b58565b82525050565b6000615b8d8287615a10565b602082019150615b9d8286615a58565b601482019150615bad8285615b6a565b601482019150615bbd8284615a8f565b915081905095945050505050565b6000615bd682614fb4565b91506000821415615bea57615be961598e565b5b600182039050919050565b615bfe8161504a565b82525050565b6000604082019050615c1960008301856158ab565b615c266020830184615bf5565b9392505050565b6000615c3882614fb4565b9150615c4383614fb4565b925082821015615c5657615c5561598e565b5b828203905092915050565b7f4e487b7100000000000000000000000000000000000000000000000000000000600052603160045260246000fd5b6000615c9c8286615a10565b602082019150615cac8285615b6a565b601482019150615cbc8284615a10565b602082019150819050949350505050565b7f4e487b7100000000000000000000000000000000000000000000000000000000600052601260045260246000fd5b6000615d0782614fb4565b9150615d1283614fb4565b925082615d2257615d21615ccd565b5b82820690509291505056fea26469706673582212205dc40266aa852b14a054fb3d9e717d76a1db22099bef0514dc93cda77aede74764736f6c634300080b0033",
  "immutableReferences": {},
  "source": "// SPDX-License-Identifier: UNLICENSED\r\npragma solidity >=0.4.24;\r\n\r\n//contracts\r\nimport \"./Consumer.sol\";\r\nimport \"./Distributor.sol\";\r\nimport \"./Manufacturer.sol\";\r\nimport \"./Retailer.sol\";\r\n\r\ncontract SupplyChain is Retailer, Consumer, Manufacturer, Distributor {\r\n    uint256[] composite;\r\n    mapping(uint256 => Item) items;\r\n    mapping(address => totalItems) ownership;\r\n    mapping(address => totalItems) shipped;\r\n    //mapping(uint256 => composite) mappingComposite;\r\n\r\n    uint256 randNonce = 0;\r\n\r\n    function randMod() internal returns (uint256) {\r\n        randNonce++;\r\n        return\r\n            uint256(\r\n                keccak256(\r\n                    abi.encodePacked(block.timestamp, msg.sender, randNonce)\r\n                )\r\n            ) % 82589933;\r\n    }\r\n\r\n    function deleteItem(uint256 _uin, address x) internal {\r\n        for (uint256 i = 0; i < ownership[x].itemUin.length; i++) {\r\n            if (_uin == ownership[x].itemUin[i]) {\r\n                ownership[x].itemUin[i] = ownership[x].itemUin[\r\n                    ownership[x].itemUin.length - 1\r\n                ];\r\n                ownership[x].itemUin.pop();\r\n                break;\r\n            }\r\n        }\r\n    }\r\n\r\n    function deleteItemshipped(uint256 _uin, address x) internal {\r\n        for (uint256 i = 0; i < shipped[x].itemUin.length; i++) {\r\n            if (_uin == shipped[x].itemUin[i]) {\r\n                shipped[x].itemUin[i] = shipped[x].itemUin[\r\n                    shipped[x].itemUin.length - 1\r\n                ];\r\n                shipped[x].itemUin.pop();\r\n                break;\r\n            }\r\n        }\r\n    }\r\n\r\n    enum State {\r\n        SProducedByManufacturer, //0\r\n        SForSaleByManufacturer, //1\r\n        SShippedByManufacturer, //2\r\n        SReceivedByDistributor, //3\r\n        SForSaleByDistributor, //4\r\n        SShippedByDistributor, //5\r\n        SReceivedByRetailer, //6\r\n        SForSaleByRetailer, //7\r\n        SShippedByRetailer, //8\r\n        SReceivedByCustomer, //9\r\n        SCollectibleForSaleByCustomer, //10\r\n        SShippedByCustomer, //11\r\n        SReceivedCollectibleByCustomer //12\r\n    }\r\n\r\n    State constant defaultState = State.SProducedByManufacturer;\r\n\r\n    struct totalItems {\r\n        uint256 count;\r\n        uint256[] itemUin;\r\n    }\r\n\r\n    struct Item {\r\n        uint256 uin;\r\n        string productName;\r\n        string productType;\r\n        string productDescription;\r\n        address payable manufacturerId;\r\n        address payable CurrentOwner;\r\n        address payable ShipTo;\r\n        uint256 productDate;\r\n        bool collectible;\r\n        bool composite;\r\n        bool visibility;\r\n        uint256 weight;\r\n        uint256 productPrice;\r\n        uint256 productHash;\r\n        State productState;\r\n    }\r\n\r\n    //Events\r\n\r\n    event EProducedByManufacturer(\r\n        uint256 indexed uin,\r\n        uint256 timeStamp,\r\n        address indexed caller\r\n    );\r\n    event EForSaleByManufacturer(\r\n        uint256 indexed uin,\r\n        uint256 timeStamp,\r\n        address indexed caller,\r\n        uint256 price\r\n    );\r\n    event EShippedByManufacturer(\r\n        uint256 indexed uin,\r\n        uint256 timeStamp,\r\n        address indexed caller,\r\n        address indexed receiver\r\n    );\r\n    event EReceivedByDistributor(\r\n        uint256 indexed uin,\r\n        uint256 timeStamp,\r\n        address indexed caller\r\n    );\r\n    event EForSaleByDistributor(\r\n        uint256 indexed uin,\r\n        uint256 timeStamp,\r\n        address indexed caller,\r\n        uint256 price\r\n    );\r\n    event EShippedByDistributor(\r\n        uint256 indexed uin,\r\n        uint256 timeStamp,\r\n        address indexed caller,\r\n        address indexed receiver\r\n    );\r\n    event EReceivedByRetailer(\r\n        uint256 indexed uin,\r\n        uint256 timeStamp,\r\n        address caller\r\n    );\r\n\r\n    event EForSaleByRetailer(\r\n        uint256 indexed uin,\r\n        uint256 timeStamp,\r\n        address indexed caller,\r\n        uint256 price\r\n    );\r\n\r\n    event EShippedByRetailer(\r\n        uint256 indexed uin,\r\n        uint256 timeStamp,\r\n        address indexed caller,\r\n        address indexed receiver\r\n    );\r\n\r\n    event EReceivedByCustomer(\r\n        uint256 indexed uin,\r\n        uint256 timeStamp,\r\n        address caller\r\n    );\r\n\r\n    event ECollectibleForSaleByCustomer(\r\n        uint256 indexed uin,\r\n        uint256 timeStamp,\r\n        address indexed caller,\r\n        uint256 price\r\n    );\r\n\r\n    event EShippedtheCollectibleByCustomer(\r\n        uint256 indexed uin,\r\n        uint256 timeStamp,\r\n        address indexed caller,\r\n        address indexed receiver\r\n    );\r\n\r\n    event EReceivedCollectibleByCustomer(\r\n        uint256 indexed uin,\r\n        uint256 timeStamp,\r\n        address caller\r\n    );\r\n\r\n    //Is Amount Equal\r\n    modifier paidEnough(uint256 _price) {\r\n        require(msg.value >= _price);\r\n        _;\r\n    }\r\n\r\n    //Return Extra value\r\n    modifier checkValue(uint256 _upc, address payable addressToFund) {\r\n        uint256 _price = items[_upc].productPrice;\r\n        uint256 amountToReturn = msg.value - _price;\r\n        addressToFund.transfer(amountToReturn);\r\n        _;\r\n    }\r\n\r\n    //Item State Modifiers\r\n    modifier MProducedByManufacturer(uint256 _uin) {\r\n        require(items[_uin].productState == State.SProducedByManufacturer);\r\n        _;\r\n    }\r\n\r\n    modifier MForSaleByManufacturer(uint256 _uin) {\r\n        require(items[_uin].productState == State.SForSaleByManufacturer);\r\n        _;\r\n    }\r\n\r\n    modifier MReceivedByDistributor(uint256 _uin) {\r\n        require(items[_uin].productState == State.SReceivedByDistributor);\r\n        _;\r\n    }\r\n\r\n    modifier MShippedByManufacturer(uint256 _uin) {\r\n        require(items[_uin].productState == State.SShippedByManufacturer);\r\n        _;\r\n    }\r\n\r\n    modifier MForSaleByDistributor(uint256 _uin) {\r\n        require(items[_uin].productState == State.SForSaleByDistributor);\r\n        _;\r\n    }\r\n\r\n    modifier MShippedByDistributor(uint256 _uin) {\r\n        require(items[_uin].productState == State.SShippedByDistributor);\r\n        _;\r\n    }\r\n\r\n    modifier MReceivedByRetailer(uint256 _uin) {\r\n        require(items[_uin].productState == State.SReceivedByRetailer);\r\n        _;\r\n    }\r\n\r\n    modifier MForSaleByRetailer(uint256 _uin) {\r\n        require(items[_uin].productState == State.SForSaleByRetailer);\r\n        _;\r\n    }\r\n\r\n    modifier MShippedByRetailer(uint256 _uin) {\r\n        require(items[_uin].productState == State.SShippedByRetailer);\r\n        _;\r\n    }\r\n\r\n    modifier MReceivedByCustomer(uint256 _uin) {\r\n        require(items[_uin].productState == State.SReceivedByCustomer);\r\n        _;\r\n    }\r\n\r\n    modifier MCollectibleForSaleByCustomer(uint256 _uin) {\r\n        require(\r\n            items[_uin].productState == State.SCollectibleForSaleByCustomer\r\n        );\r\n        _;\r\n    }\r\n\r\n    modifier MShippedCollectibleByCustomer(uint256 _uin) {\r\n        require(items[_uin].productState == State.SShippedByCustomer);\r\n        _;\r\n    }\r\n\r\n    modifier MReceivedCollectibleByCustomer(uint256 _uin) {\r\n        require(\r\n            items[_uin].productState == State.SReceivedCollectibleByCustomer\r\n        );\r\n        _;\r\n    }\r\n\r\n    modifier MisCollectible(uint256 _uin) {\r\n        require(items[_uin].collectible == true);\r\n        _;\r\n    }\r\n\r\n    modifier MVerifyCaller(uint256 _uin) {\r\n        require(\r\n            items[_uin].productHash ==\r\n                uint256(\r\n                    keccak256(\r\n                        abi.encodePacked(\r\n                            _uin,\r\n                            items[_uin].CurrentOwner,\r\n                            msg.sender,\r\n                            items[_uin].productName\r\n                        )\r\n                    )\r\n                )\r\n        );\r\n        _;\r\n    }\r\n\r\n    function getEntity() public view returns (uint256) {\r\n        if (isManufacturer(msg.sender)) {\r\n            return 1;\r\n        } else if (isDistributor(msg.sender)) {\r\n            return 2;\r\n        } else if (isRetailer(msg.sender)) {\r\n            return 3;\r\n        } else if (isConsumer(msg.sender)) {\r\n            return 4;\r\n        } else {\r\n            return 5;\r\n        }\r\n    }\r\n\r\n    // Step1\r\n    function producebymanufacturer(\r\n        string memory _ProductName,\r\n        string memory _ProductDesc,\r\n        string memory _ProductType,\r\n        bool _collectible,\r\n        uint256 weight\r\n    ) public onlyManufacturer(msg.sender) returns (uint256) {\r\n        uint256 uin = randMod();\r\n        address payable manufacturer = payable(msg.sender);\r\n        items[uin] = Item(\r\n            uin,\r\n            _ProductName,\r\n            _ProductType,\r\n            _ProductDesc,\r\n            manufacturer,\r\n            manufacturer,\r\n            payable(address(0)),\r\n            block.timestamp,\r\n            _collectible,\r\n            false,\r\n            false,\r\n            weight,\r\n            0,\r\n            0,\r\n            defaultState\r\n        );\r\n        ownership[manufacturer].count++;\r\n        ownership[manufacturer].itemUin.push(uin);\r\n        emit EProducedByManufacturer(uin, block.timestamp, msg.sender);\r\n        return (uin);\r\n    }\r\n\r\n    //Step2\r\n    function forsalebymanufacturer(uint256 uin, uint256 price)\r\n        public\r\n        onlyManufacturer(msg.sender)\r\n        MProducedByManufacturer(uin)\r\n    {\r\n        items[uin].visibility = true;\r\n        items[uin].productState = State.SForSaleByManufacturer;\r\n        items[uin].productPrice = price;\r\n        emit EForSaleByManufacturer(uin, block.timestamp, msg.sender, price);\r\n    }\r\n\r\n    //Step3\r\n\r\n    function shippedbymanufacturer(uint256 uin, address payable shipTo)\r\n        public\r\n        onlyManufacturer(msg.sender)\r\n        onlyDistributor(shipTo)\r\n        MForSaleByManufacturer(uin)\r\n    {\r\n        items[uin].productState = State.SShippedByManufacturer;\r\n        items[uin].ShipTo = shipTo;\r\n        shipped[shipTo].count++;\r\n        shipped[shipTo].itemUin.push(uin);\r\n        items[uin].productHash = uint256(\r\n            keccak256(\r\n                abi.encodePacked(\r\n                    uin,\r\n                    items[uin].CurrentOwner,\r\n                    shipTo,\r\n                    items[uin].productName\r\n                )\r\n            )\r\n        );\r\n        emit EShippedByManufacturer(uin, block.timestamp, msg.sender, shipTo);\r\n    }\r\n\r\n    //Step4\r\n\r\n    function receivedbydistributor(uint256 uin)\r\n        public\r\n        payable\r\n        onlyDistributor(msg.sender)\r\n        paidEnough(items[uin].productPrice)\r\n        MShippedByManufacturer(uin)\r\n        MVerifyCaller(uin)\r\n    //checkValue(items[uin].productPrice, payable(msg.sender))\r\n    {\r\n        items[uin].productState = State.SReceivedByDistributor;\r\n        items[uin].visibility = false;\r\n        items[uin].CurrentOwner.transfer(items[uin].productPrice);\r\n        deleteItem(uin, items[uin].CurrentOwner);\r\n        ownership[items[uin].CurrentOwner].count--;\r\n        items[uin].CurrentOwner = payable(msg.sender);\r\n        shipped[items[uin].CurrentOwner].count--;\r\n        deleteItemshipped(uin, items[uin].CurrentOwner);\r\n        items[uin].productPrice = 0;\r\n        ownership[msg.sender].count++;\r\n        ownership[msg.sender].itemUin.push(uin);\r\n        emit EReceivedByDistributor(uin, block.timestamp, msg.sender);\r\n    }\r\n\r\n    //Step5\r\n    function forsalebydistributor(uint256 uin, uint256 price)\r\n        public\r\n        onlyDistributor(msg.sender)\r\n        MReceivedByDistributor(uin)\r\n    {\r\n        items[uin].visibility = true;\r\n        items[uin].productState = State.SForSaleByDistributor;\r\n        items[uin].productPrice = price;\r\n        emit EForSaleByDistributor(uin, block.timestamp, msg.sender, price);\r\n    }\r\n\r\n    //Step6\r\n    function shippedbydistributor(uint256 uin, address payable shipTo)\r\n        public\r\n        onlyDistributor(msg.sender)\r\n        onlyRetailer(shipTo)\r\n        MForSaleByDistributor(uin)\r\n    {\r\n        items[uin].productState = State.SShippedByDistributor;\r\n        items[uin].ShipTo = shipTo;\r\n        shipped[shipTo].count++;\r\n        shipped[shipTo].itemUin.push(uin);\r\n        items[uin].productHash = uint256(\r\n            keccak256(\r\n                abi.encodePacked(\r\n                    uin,\r\n                    items[uin].CurrentOwner,\r\n                    shipTo,\r\n                    items[uin].productName\r\n                )\r\n            )\r\n        );\r\n        emit EShippedByDistributor(uin, block.timestamp, msg.sender, shipTo);\r\n    }\r\n\r\n    //Step7\r\n    function receivedbyretailer(uint256 uin)\r\n        public\r\n        payable\r\n        onlyRetailer(msg.sender)\r\n        paidEnough(items[uin].productPrice)\r\n        MShippedByDistributor(uin)\r\n        MVerifyCaller(uin)\r\n    {\r\n        items[uin].productState = State.SReceivedByRetailer;\r\n        items[uin].visibility = false;\r\n        items[uin].CurrentOwner.transfer(items[uin].productPrice);\r\n        ownership[items[uin].CurrentOwner].count--;\r\n        deleteItem(uin, items[uin].CurrentOwner);\r\n        items[uin].CurrentOwner = payable(msg.sender);\r\n        shipped[items[uin].CurrentOwner].count--;\r\n        deleteItemshipped(uin, items[uin].CurrentOwner);\r\n        items[uin].productPrice = 0;\r\n        ownership[msg.sender].count++;\r\n        ownership[msg.sender].itemUin.push(uin);\r\n        emit EReceivedByRetailer(uin, block.timestamp, msg.sender);\r\n    }\r\n\r\n    //Step8\r\n    function forsalebyretailer(uint256 uin, uint256 price)\r\n        public\r\n        onlyRetailer(msg.sender)\r\n        MReceivedByRetailer(uin)\r\n    {\r\n        items[uin].productState = State.SForSaleByRetailer;\r\n        items[uin].productPrice = price;\r\n        emit EForSaleByRetailer(uin, block.timestamp, msg.sender, price);\r\n    }\r\n\r\n    //Step9\r\n    function shippedbyretailer(uint256 uin, address payable shipTo)\r\n        public\r\n        onlyRetailer(msg.sender)\r\n        onlyConsumer(shipTo)\r\n        MForSaleByRetailer(uin)\r\n    {\r\n        items[uin].productState = State.SShippedByRetailer;\r\n        items[uin].ShipTo = shipTo;\r\n        shipped[shipTo].count++;\r\n        shipped[shipTo].itemUin.push(uin);\r\n        items[uin].productHash = uint256(\r\n            keccak256(\r\n                abi.encodePacked(\r\n                    uin,\r\n                    items[uin].CurrentOwner,\r\n                    shipTo,\r\n                    items[uin].productName\r\n                )\r\n            )\r\n        );\r\n        emit EShippedByRetailer(uin, block.timestamp, msg.sender, shipTo);\r\n    }\r\n\r\n    //Step10\r\n    function receivedbycustomer(uint256 uin)\r\n        public\r\n        payable\r\n        onlyConsumer(payable(msg.sender))\r\n        paidEnough(items[uin].productPrice)\r\n        MShippedByRetailer(uin)\r\n        MVerifyCaller(uin)\r\n    {\r\n        items[uin].productState = State.SReceivedByCustomer;\r\n        items[uin].visibility = false;\r\n        items[uin].CurrentOwner.transfer(items[uin].productPrice);\r\n        ownership[items[uin].CurrentOwner].count--;\r\n        deleteItem(uin, items[uin].CurrentOwner);\r\n        items[uin].CurrentOwner = payable(msg.sender);\r\n        shipped[items[uin].CurrentOwner].count--;\r\n        deleteItemshipped(uin, items[uin].CurrentOwner);\r\n        items[uin].productPrice = 0;\r\n        ownership[msg.sender].count++;\r\n        ownership[msg.sender].itemUin.push(uin);\r\n        emit EReceivedByCustomer(uin, block.timestamp, msg.sender);\r\n    }\r\n\r\n    //Step11\r\n    function collectibleforsalebycustomer(uint256 uin, uint256 price)\r\n        public\r\n        onlyConsumer(payable(msg.sender))\r\n        MReceivedByCustomer(uin)\r\n        MisCollectible(uin)\r\n    {\r\n        items[uin].productState = State.SCollectibleForSaleByCustomer;\r\n        items[uin].productPrice = price;\r\n        items[uin].visibility = true;\r\n        emit ECollectibleForSaleByCustomer(\r\n            uin,\r\n            block.timestamp,\r\n            msg.sender,\r\n            price\r\n        );\r\n    }\r\n\r\n    //Step12\r\n    function shippedcollectiblebycustomer(uint256 uin, address payable ShipTo)\r\n        public\r\n        onlyConsumer(payable(msg.sender))\r\n        onlyConsumer(ShipTo)\r\n        MCollectibleForSaleByCustomer(uin)\r\n    {\r\n        items[uin].productState = State.SShippedByCustomer;\r\n        items[uin].ShipTo = ShipTo;\r\n        shipped[ShipTo].count++;\r\n        shipped[ShipTo].itemUin.push(uin);\r\n        items[uin].productHash = uint256(\r\n            keccak256(\r\n                abi.encodePacked(\r\n                    uin,\r\n                    items[uin].CurrentOwner,\r\n                    ShipTo,\r\n                    items[uin].productName\r\n                )\r\n            )\r\n        );\r\n        emit EShippedtheCollectibleByCustomer(\r\n            uin,\r\n            block.timestamp,\r\n            msg.sender,\r\n            ShipTo\r\n        );\r\n    }\r\n\r\n    //Step13\r\n\r\n    function receivedcollectiblebycustomer(uint256 uin)\r\n        public\r\n        payable\r\n        onlyConsumer(payable(msg.sender))\r\n        MisCollectible(uin)\r\n        paidEnough(items[uin].productPrice)\r\n        MShippedCollectibleByCustomer(uin)\r\n        MVerifyCaller(uin)\r\n    {\r\n        items[uin].productState = State.SReceivedCollectibleByCustomer;\r\n        items[uin].visibility = false;\r\n        items[uin].CurrentOwner.transfer(items[uin].productPrice);\r\n        ownership[items[uin].CurrentOwner].count--;\r\n        deleteItem(uin, items[uin].CurrentOwner);\r\n        items[uin].CurrentOwner = payable(msg.sender);\r\n        shipped[items[uin].CurrentOwner].count--;\r\n        deleteItemshipped(uin, items[uin].CurrentOwner);\r\n        items[uin].productPrice = 0;\r\n        ownership[msg.sender].count++;\r\n        ownership[msg.sender].itemUin.push(uin);\r\n        emit EReceivedCollectibleByCustomer(uin, block.timestamp, msg.sender);\r\n    }\r\n\r\n    //Step 14\r\n    // function productDetail(uint256 uin)\r\n    //     public\r\n    //     view\r\n    //     returns (\r\n    //         uint256,\r\n    //         string memory,\r\n    //         string memory,\r\n    //         address,\r\n    //         address,\r\n    //         uint256,\r\n    //         uint256\r\n    //     )\r\n    // {\r\n    //     return (\r\n    //         items[uin].uin,\r\n    //         items[uin].productName,\r\n    //         items[uin].productDescription,\r\n    //         items[uin].manufacturerId,\r\n    //         items[uin].CurrentOwner,\r\n    //         items[uin].productDate,\r\n    //         items[uin].productPrice\r\n    //     );\r\n    // }\r\n\r\n    function productDetail(uint256 uin) public view returns (Item memory) {\r\n        return (items[uin]);\r\n    }\r\n\r\n    function getOwnedProducts(address z) public view returns (Item[] memory) {\r\n        Item[] memory item = new Item[](ownership[z].itemUin.length);\r\n        for (uint256 i = 0; i < ownership[z].itemUin.length; i++) {\r\n            Item storage x = items[ownership[z].itemUin[i]];\r\n            item[i] = x;\r\n        }\r\n        return item;\r\n    }\r\n\r\n    function getShippedProducts(address z) public view returns (Item[] memory) {\r\n        Item[] memory item = new Item[](shipped[z].itemUin.length);\r\n        for (uint256 i = 0; i < shipped[z].itemUin.length; i++) {\r\n            Item storage x = items[shipped[z].itemUin[i]];\r\n            item[i] = x;\r\n        }\r\n        return item;\r\n    }\r\n}\r\n\r\n//         uint256 uin\r\n//         string productName;\r\n//         string productDescription;\r\n//         address manufacturerId;\r\n//         address CurrentOwner;\r\n//         uint256 productDate;\r\n//         bool collectible;\r\n//         bool composite;\r\n//         uint weight;\r\n//         uint productPrice;\r\n//         byte32 productHash;\r\n//         State productState;\r\n",
  "sourcePath": "C:\\Users\\Dell\\Desktop\\Contracts\\projectApproach2\\truffle\\contracts\\SupplyChain.sol",
  "compiler": {
    "name": "solc",
    "version": "0.8.11+commit.d7f03943.Emscripten.clang"
  },
  "schemaVersion": "3.4.5",
  "updatedAt": "2022-03-21T13:06:44.492Z",
  "networkType": "ethereum",
  "devdoc": {
    "kind": "dev",
    "methods": {},
    "version": 1
  },
  "userdoc": {
    "kind": "user",
    "methods": {},
    "version": 1
  }
}