{
  "contractName": "SupplyChain",
  "abi": [
    {
      "anonymous": false,
      "inputs": [
        {
          "indexed": true,
          "internalType": "address",
          "name": "account",
          "type": "address"
        }
      ],
      "name": "ConsumerAdded",
      "type": "event"
    },
    {
      "anonymous": false,
      "inputs": [
        {
          "indexed": true,
          "internalType": "address",
          "name": "account",
          "type": "address"
        }
      ],
      "name": "ConsumerRemoved",
      "type": "event"
    },
    {
      "anonymous": false,
      "inputs": [
        {
          "indexed": true,
          "internalType": "address",
          "name": "account",
          "type": "address"
        }
      ],
      "name": "ConsumerReported",
      "type": "event"
    },
    {
      "anonymous": false,
      "inputs": [
        {
          "indexed": true,
          "internalType": "address",
          "name": "account",
          "type": "address"
        }
      ],
      "name": "ConsumerUnreported",
      "type": "event"
    },
    {
      "anonymous": false,
      "inputs": [
        {
          "indexed": true,
          "internalType": "address",
          "name": "account",
          "type": "address"
        }
      ],
      "name": "DistributorAdded",
      "type": "event"
    },
    {
      "anonymous": false,
      "inputs": [
        {
          "indexed": true,
          "internalType": "address",
          "name": "account",
          "type": "address"
        }
      ],
      "name": "DistributorRemoved",
      "type": "event"
    },
    {
      "anonymous": false,
      "inputs": [
        {
          "indexed": true,
          "internalType": "address",
          "name": "account",
          "type": "address"
        }
      ],
      "name": "DistributorReported",
      "type": "event"
    },
    {
      "anonymous": false,
      "inputs": [
        {
          "indexed": true,
          "internalType": "address",
          "name": "account",
          "type": "address"
        }
      ],
      "name": "DistributorUnreported",
      "type": "event"
    },
    {
      "anonymous": false,
      "inputs": [
        {
          "indexed": true,
          "internalType": "uint256",
          "name": "uin",
          "type": "uint256"
        },
        {
          "indexed": false,
          "internalType": "uint256",
          "name": "x",
          "type": "uint256"
        },
        {
          "indexed": true,
          "internalType": "address",
          "name": "y",
          "type": "address"
        },
        {
          "indexed": false,
          "internalType": "uint256",
          "name": "z",
          "type": "uint256"
        }
      ],
      "name": "ECollectibleForSaleByCustomer",
      "type": "event"
    },
    {
      "anonymous": false,
      "inputs": [
        {
          "indexed": true,
          "internalType": "uint256",
          "name": "uin",
          "type": "uint256"
        },
        {
          "indexed": false,
          "internalType": "uint256",
          "name": "x",
          "type": "uint256"
        },
        {
          "indexed": true,
          "internalType": "address",
          "name": "y",
          "type": "address"
        },
        {
          "indexed": false,
          "internalType": "uint256",
          "name": "z",
          "type": "uint256"
        }
      ],
      "name": "EForSaleByDistributor",
      "type": "event"
    },
    {
      "anonymous": false,
      "inputs": [
        {
          "indexed": true,
          "internalType": "uint256",
          "name": "uin",
          "type": "uint256"
        },
        {
          "indexed": false,
          "internalType": "uint256",
          "name": "x",
          "type": "uint256"
        },
        {
          "indexed": true,
          "internalType": "address",
          "name": "y",
          "type": "address"
        },
        {
          "indexed": false,
          "internalType": "uint256",
          "name": "z",
          "type": "uint256"
        }
      ],
      "name": "EForSaleByManufacturer",
      "type": "event"
    },
    {
      "anonymous": false,
      "inputs": [
        {
          "indexed": true,
          "internalType": "uint256",
          "name": "uin",
          "type": "uint256"
        },
        {
          "indexed": false,
          "internalType": "uint256",
          "name": "x",
          "type": "uint256"
        },
        {
          "indexed": true,
          "internalType": "address",
          "name": "y",
          "type": "address"
        },
        {
          "indexed": false,
          "internalType": "uint256",
          "name": "z",
          "type": "uint256"
        }
      ],
      "name": "EForSaleByRetailer",
      "type": "event"
    },
    {
      "anonymous": false,
      "inputs": [
        {
          "indexed": true,
          "internalType": "uint256",
          "name": "uin",
          "type": "uint256"
        },
        {
          "indexed": false,
          "internalType": "uint256",
          "name": "x",
          "type": "uint256"
        },
        {
          "indexed": true,
          "internalType": "address",
          "name": "y",
          "type": "address"
        }
      ],
      "name": "EProducedByManufacturer",
      "type": "event"
    },
    {
      "anonymous": false,
      "inputs": [
        {
          "indexed": true,
          "internalType": "uint256",
          "name": "uin",
          "type": "uint256"
        },
        {
          "indexed": false,
          "internalType": "uint256",
          "name": "x",
          "type": "uint256"
        },
        {
          "indexed": false,
          "internalType": "address",
          "name": "y",
          "type": "address"
        }
      ],
      "name": "EReceivedByCustomer",
      "type": "event"
    },
    {
      "anonymous": false,
      "inputs": [
        {
          "indexed": true,
          "internalType": "uint256",
          "name": "uin",
          "type": "uint256"
        },
        {
          "indexed": false,
          "internalType": "uint256",
          "name": "x",
          "type": "uint256"
        },
        {
          "indexed": true,
          "internalType": "address",
          "name": "y",
          "type": "address"
        }
      ],
      "name": "EReceivedByDistributor",
      "type": "event"
    },
    {
      "anonymous": false,
      "inputs": [
        {
          "indexed": true,
          "internalType": "uint256",
          "name": "uin",
          "type": "uint256"
        },
        {
          "indexed": false,
          "internalType": "uint256",
          "name": "x",
          "type": "uint256"
        },
        {
          "indexed": false,
          "internalType": "address",
          "name": "y",
          "type": "address"
        }
      ],
      "name": "EReceivedByRetailer",
      "type": "event"
    },
    {
      "anonymous": false,
      "inputs": [
        {
          "indexed": true,
          "internalType": "uint256",
          "name": "uin",
          "type": "uint256"
        },
        {
          "indexed": false,
          "internalType": "uint256",
          "name": "x",
          "type": "uint256"
        },
        {
          "indexed": true,
          "internalType": "address",
          "name": "y",
          "type": "address"
        }
      ],
      "name": "EReceivedCollectibleByCustomer",
      "type": "event"
    },
    {
      "anonymous": false,
      "inputs": [
        {
          "indexed": true,
          "internalType": "uint256",
          "name": "uin",
          "type": "uint256"
        },
        {
          "indexed": false,
          "internalType": "uint256",
          "name": "x",
          "type": "uint256"
        },
        {
          "indexed": true,
          "internalType": "address",
          "name": "y",
          "type": "address"
        },
        {
          "indexed": true,
          "internalType": "address",
          "name": "z",
          "type": "address"
        }
      ],
      "name": "EShippedByDistributor",
      "type": "event"
    },
    {
      "anonymous": false,
      "inputs": [
        {
          "indexed": true,
          "internalType": "uint256",
          "name": "uin",
          "type": "uint256"
        },
        {
          "indexed": false,
          "internalType": "uint256",
          "name": "x",
          "type": "uint256"
        },
        {
          "indexed": true,
          "internalType": "address",
          "name": "y",
          "type": "address"
        },
        {
          "indexed": true,
          "internalType": "address",
          "name": "z",
          "type": "address"
        }
      ],
      "name": "EShippedByManufacturer",
      "type": "event"
    },
    {
      "anonymous": false,
      "inputs": [
        {
          "indexed": true,
          "internalType": "uint256",
          "name": "uin",
          "type": "uint256"
        },
        {
          "indexed": false,
          "internalType": "uint256",
          "name": "x",
          "type": "uint256"
        },
        {
          "indexed": true,
          "internalType": "address",
          "name": "y",
          "type": "address"
        },
        {
          "indexed": true,
          "internalType": "address",
          "name": "z",
          "type": "address"
        }
      ],
      "name": "EShippedByRetailer",
      "type": "event"
    },
    {
      "anonymous": false,
      "inputs": [
        {
          "indexed": true,
          "internalType": "uint256",
          "name": "uin",
          "type": "uint256"
        },
        {
          "indexed": false,
          "internalType": "uint256",
          "name": "x",
          "type": "uint256"
        },
        {
          "indexed": true,
          "internalType": "address",
          "name": "y",
          "type": "address"
        },
        {
          "indexed": true,
          "internalType": "address",
          "name": "z",
          "type": "address"
        }
      ],
      "name": "EShippedtheCollectibleByCustomer",
      "type": "event"
    },
    {
      "anonymous": false,
      "inputs": [
        {
          "indexed": true,
          "internalType": "address",
          "name": "account",
          "type": "address"
        }
      ],
      "name": "ManufacturerAdded",
      "type": "event"
    },
    {
      "anonymous": false,
      "inputs": [
        {
          "indexed": true,
          "internalType": "address",
          "name": "account",
          "type": "address"
        }
      ],
      "name": "ManufacturerRemoved",
      "type": "event"
    },
    {
      "anonymous": false,
      "inputs": [
        {
          "indexed": true,
          "internalType": "address",
          "name": "account",
          "type": "address"
        }
      ],
      "name": "ManufacturerReported",
      "type": "event"
    },
    {
      "anonymous": false,
      "inputs": [
        {
          "indexed": true,
          "internalType": "address",
          "name": "account",
          "type": "address"
        }
      ],
      "name": "ManufacturerUnreported",
      "type": "event"
    },
    {
      "anonymous": false,
      "inputs": [
        {
          "indexed": true,
          "internalType": "address",
          "name": "account",
          "type": "address"
        }
      ],
      "name": "RetailerAdded",
      "type": "event"
    },
    {
      "anonymous": false,
      "inputs": [
        {
          "indexed": true,
          "internalType": "address",
          "name": "account",
          "type": "address"
        }
      ],
      "name": "RetailerRemoved",
      "type": "event"
    },
    {
      "anonymous": false,
      "inputs": [
        {
          "indexed": true,
          "internalType": "address",
          "name": "account",
          "type": "address"
        }
      ],
      "name": "RetailerReported",
      "type": "event"
    },
    {
      "anonymous": false,
      "inputs": [
        {
          "indexed": true,
          "internalType": "address",
          "name": "account",
          "type": "address"
        }
      ],
      "name": "RetailerUnreported",
      "type": "event"
    },
    {
      "inputs": [
        {
          "internalType": "address",
          "name": "account",
          "type": "address"
        }
      ],
      "name": "addConsumer",
      "outputs": [],
      "stateMutability": "nonpayable",
      "type": "function"
    },
    {
      "inputs": [
        {
          "internalType": "address",
          "name": "account",
          "type": "address"
        }
      ],
      "name": "addDistributor",
      "outputs": [],
      "stateMutability": "nonpayable",
      "type": "function"
    },
    {
      "inputs": [
        {
          "internalType": "address",
          "name": "account",
          "type": "address"
        }
      ],
      "name": "addManufacturer",
      "outputs": [],
      "stateMutability": "nonpayable",
      "type": "function"
    },
    {
      "inputs": [
        {
          "internalType": "address",
          "name": "account",
          "type": "address"
        }
      ],
      "name": "addRetailer",
      "outputs": [],
      "stateMutability": "nonpayable",
      "type": "function"
    },
    {
      "inputs": [
        {
          "internalType": "address",
          "name": "account",
          "type": "address"
        }
      ],
      "name": "isConsumer",
      "outputs": [
        {
          "internalType": "bool",
          "name": "",
          "type": "bool"
        }
      ],
      "stateMutability": "view",
      "type": "function",
      "constant": true
    },
    {
      "inputs": [
        {
          "internalType": "address",
          "name": "account",
          "type": "address"
        }
      ],
      "name": "isDistributor",
      "outputs": [
        {
          "internalType": "bool",
          "name": "",
          "type": "bool"
        }
      ],
      "stateMutability": "view",
      "type": "function",
      "constant": true
    },
    {
      "inputs": [
        {
          "internalType": "address",
          "name": "account",
          "type": "address"
        }
      ],
      "name": "isManufacturer",
      "outputs": [
        {
          "internalType": "bool",
          "name": "",
          "type": "bool"
        }
      ],
      "stateMutability": "view",
      "type": "function",
      "constant": true
    },
    {
      "inputs": [
        {
          "internalType": "address",
          "name": "account",
          "type": "address"
        }
      ],
      "name": "isRetailer",
      "outputs": [
        {
          "internalType": "bool",
          "name": "",
          "type": "bool"
        }
      ],
      "stateMutability": "view",
      "type": "function",
      "constant": true
    },
    {
      "inputs": [
        {
          "internalType": "address",
          "name": "account",
          "type": "address"
        }
      ],
      "name": "reportConsumer",
      "outputs": [],
      "stateMutability": "nonpayable",
      "type": "function"
    },
    {
      "inputs": [
        {
          "internalType": "address",
          "name": "account",
          "type": "address"
        }
      ],
      "name": "reportDistributor",
      "outputs": [],
      "stateMutability": "nonpayable",
      "type": "function"
    },
    {
      "inputs": [
        {
          "internalType": "address",
          "name": "account",
          "type": "address"
        }
      ],
      "name": "reportManufacturer",
      "outputs": [],
      "stateMutability": "nonpayable",
      "type": "function"
    },
    {
      "inputs": [
        {
          "internalType": "address",
          "name": "account",
          "type": "address"
        }
      ],
      "name": "reportRetailer",
      "outputs": [],
      "stateMutability": "nonpayable",
      "type": "function"
    },
    {
      "inputs": [
        {
          "internalType": "address",
          "name": "account",
          "type": "address"
        }
      ],
      "name": "unreportConsumer",
      "outputs": [],
      "stateMutability": "nonpayable",
      "type": "function"
    },
    {
      "inputs": [
        {
          "internalType": "address",
          "name": "account",
          "type": "address"
        }
      ],
      "name": "unreportDistributor",
      "outputs": [],
      "stateMutability": "nonpayable",
      "type": "function"
    },
    {
      "inputs": [
        {
          "internalType": "address",
          "name": "account",
          "type": "address"
        }
      ],
      "name": "unreportManufacturer",
      "outputs": [],
      "stateMutability": "nonpayable",
      "type": "function"
    },
    {
      "inputs": [
        {
          "internalType": "address",
          "name": "account",
          "type": "address"
        }
      ],
      "name": "unreportRetailer",
      "outputs": [],
      "stateMutability": "nonpayable",
      "type": "function"
    },
    {
      "inputs": [],
      "name": "getEntity",
      "outputs": [
        {
          "internalType": "uint256",
          "name": "",
          "type": "uint256"
        }
      ],
      "stateMutability": "view",
      "type": "function",
      "constant": true
    },
    {
      "inputs": [
        {
          "internalType": "string",
          "name": "_ProductName",
          "type": "string"
        },
        {
          "internalType": "string",
          "name": "_ProductDesc",
          "type": "string"
        },
        {
          "internalType": "string",
          "name": "_ProductType",
          "type": "string"
        },
        {
          "internalType": "bool",
          "name": "_collectible",
          "type": "bool"
        },
        {
          "internalType": "uint256",
          "name": "weight",
          "type": "uint256"
        }
      ],
      "name": "producebymanufacturer",
      "outputs": [
        {
          "internalType": "uint256",
          "name": "",
          "type": "uint256"
        }
      ],
      "stateMutability": "nonpayable",
      "type": "function"
    },
    {
      "inputs": [
        {
          "internalType": "uint256",
          "name": "uin",
          "type": "uint256"
        },
        {
          "internalType": "uint256",
          "name": "price",
          "type": "uint256"
        }
      ],
      "name": "forsalebymanufacturer",
      "outputs": [],
      "stateMutability": "nonpayable",
      "type": "function"
    },
    {
      "inputs": [
        {
          "internalType": "uint256",
          "name": "uin",
          "type": "uint256"
        },
        {
          "internalType": "address payable",
          "name": "shipTo",
          "type": "address"
        }
      ],
      "name": "shippedbymanufacturer",
      "outputs": [],
      "stateMutability": "nonpayable",
      "type": "function"
    },
    {
      "inputs": [
        {
          "internalType": "uint256",
          "name": "uin",
          "type": "uint256"
        }
      ],
      "name": "receivedbydistributor",
      "outputs": [],
      "stateMutability": "payable",
      "type": "function",
      "payable": true
    },
    {
      "inputs": [
        {
          "internalType": "uint256",
          "name": "uin",
          "type": "uint256"
        },
        {
          "internalType": "uint256",
          "name": "price",
          "type": "uint256"
        }
      ],
      "name": "forsalebydistributor",
      "outputs": [],
      "stateMutability": "nonpayable",
      "type": "function"
    },
    {
      "inputs": [
        {
          "internalType": "uint256",
          "name": "uin",
          "type": "uint256"
        },
        {
          "internalType": "address payable",
          "name": "shipTo",
          "type": "address"
        }
      ],
      "name": "shippedbydistributor",
      "outputs": [],
      "stateMutability": "nonpayable",
      "type": "function"
    },
    {
      "inputs": [
        {
          "internalType": "uint256",
          "name": "uin",
          "type": "uint256"
        }
      ],
      "name": "receivedbyretailer",
      "outputs": [],
      "stateMutability": "payable",
      "type": "function",
      "payable": true
    },
    {
      "inputs": [
        {
          "internalType": "uint256",
          "name": "uin",
          "type": "uint256"
        },
        {
          "internalType": "uint256",
          "name": "price",
          "type": "uint256"
        }
      ],
      "name": "forsalebyretailer",
      "outputs": [],
      "stateMutability": "nonpayable",
      "type": "function"
    },
    {
      "inputs": [
        {
          "internalType": "uint256",
          "name": "uin",
          "type": "uint256"
        },
        {
          "internalType": "address payable",
          "name": "shipTo",
          "type": "address"
        }
      ],
      "name": "shippedbyretailer",
      "outputs": [],
      "stateMutability": "nonpayable",
      "type": "function"
    },
    {
      "inputs": [
        {
          "internalType": "uint256",
          "name": "uin",
          "type": "uint256"
        }
      ],
      "name": "receivedbycustomer",
      "outputs": [],
      "stateMutability": "payable",
      "type": "function",
      "payable": true
    },
    {
      "inputs": [
        {
          "internalType": "uint256",
          "name": "uin",
          "type": "uint256"
        },
        {
          "internalType": "uint256",
          "name": "price",
          "type": "uint256"
        }
      ],
      "name": "collectibleforsalebycustomer",
      "outputs": [],
      "stateMutability": "nonpayable",
      "type": "function"
    },
    {
      "inputs": [
        {
          "internalType": "uint256",
          "name": "uin",
          "type": "uint256"
        },
        {
          "internalType": "address payable",
          "name": "ShipTo",
          "type": "address"
        }
      ],
      "name": "shippedcollectiblebycustomer",
      "outputs": [],
      "stateMutability": "nonpayable",
      "type": "function"
    },
    {
      "inputs": [
        {
          "internalType": "uint256",
          "name": "uin",
          "type": "uint256"
        }
      ],
      "name": "receivedcollectiblebycustomer",
      "outputs": [],
      "stateMutability": "payable",
      "type": "function",
      "payable": true
    },
    {
      "inputs": [
        {
          "internalType": "uint256",
          "name": "uin",
          "type": "uint256"
        }
      ],
      "name": "productDetail",
      "outputs": [
        {
          "components": [
            {
              "internalType": "uint256",
              "name": "uin",
              "type": "uint256"
            },
            {
              "internalType": "string",
              "name": "productName",
              "type": "string"
            },
            {
              "internalType": "string",
              "name": "productType",
              "type": "string"
            },
            {
              "internalType": "string",
              "name": "productDescription",
              "type": "string"
            },
            {
              "internalType": "address payable",
              "name": "manufacturerId",
              "type": "address"
            },
            {
              "internalType": "address payable",
              "name": "CurrentOwner",
              "type": "address"
            },
            {
              "internalType": "address payable",
              "name": "ShipTo",
              "type": "address"
            },
            {
              "internalType": "uint256",
              "name": "productDate",
              "type": "uint256"
            },
            {
              "internalType": "bool",
              "name": "collectible",
              "type": "bool"
            },
            {
              "internalType": "bool",
              "name": "composite",
              "type": "bool"
            },
            {
              "internalType": "bool",
              "name": "visibility",
              "type": "bool"
            },
            {
              "internalType": "uint256",
              "name": "weight",
              "type": "uint256"
            },
            {
              "internalType": "uint256",
              "name": "productPrice",
              "type": "uint256"
            },
            {
              "internalType": "uint256",
              "name": "productHash",
              "type": "uint256"
            },
            {
              "internalType": "enum SupplyChain.State",
              "name": "productState",
              "type": "uint8"
            }
          ],
          "internalType": "struct SupplyChain.Item",
          "name": "",
          "type": "tuple"
        }
      ],
      "stateMutability": "view",
      "type": "function",
      "constant": true
    },
    {
      "inputs": [
        {
          "internalType": "address",
          "name": "z",
          "type": "address"
        }
      ],
      "name": "getOwnedProducts",
      "outputs": [
        {
          "components": [
            {
              "internalType": "uint256",
              "name": "uin",
              "type": "uint256"
            },
            {
              "internalType": "string",
              "name": "productName",
              "type": "string"
            },
            {
              "internalType": "string",
              "name": "productType",
              "type": "string"
            },
            {
              "internalType": "string",
              "name": "productDescription",
              "type": "string"
            },
            {
              "internalType": "address payable",
              "name": "manufacturerId",
              "type": "address"
            },
            {
              "internalType": "address payable",
              "name": "CurrentOwner",
              "type": "address"
            },
            {
              "internalType": "address payable",
              "name": "ShipTo",
              "type": "address"
            },
            {
              "internalType": "uint256",
              "name": "productDate",
              "type": "uint256"
            },
            {
              "internalType": "bool",
              "name": "collectible",
              "type": "bool"
            },
            {
              "internalType": "bool",
              "name": "composite",
              "type": "bool"
            },
            {
              "internalType": "bool",
              "name": "visibility",
              "type": "bool"
            },
            {
              "internalType": "uint256",
              "name": "weight",
              "type": "uint256"
            },
            {
              "internalType": "uint256",
              "name": "productPrice",
              "type": "uint256"
            },
            {
              "internalType": "uint256",
              "name": "productHash",
              "type": "uint256"
            },
            {
              "internalType": "enum SupplyChain.State",
              "name": "productState",
              "type": "uint8"
            }
          ],
          "internalType": "struct SupplyChain.Item[]",
          "name": "",
          "type": "tuple[]"
        }
      ],
      "stateMutability": "view",
      "type": "function",
      "constant": true
    },
    {
      "inputs": [
        {
          "internalType": "address",
          "name": "z",
          "type": "address"
        }
      ],
      "name": "getShippedProducts",
      "outputs": [
        {
          "components": [
            {
              "internalType": "uint256",
              "name": "uin",
              "type": "uint256"
            },
            {
              "internalType": "string",
              "name": "productName",
              "type": "string"
            },
            {
              "internalType": "string",
              "name": "productType",
              "type": "string"
            },
            {
              "internalType": "string",
              "name": "productDescription",
              "type": "string"
            },
            {
              "internalType": "address payable",
              "name": "manufacturerId",
              "type": "address"
            },
            {
              "internalType": "address payable",
              "name": "CurrentOwner",
              "type": "address"
            },
            {
              "internalType": "address payable",
              "name": "ShipTo",
              "type": "address"
            },
            {
              "internalType": "uint256",
              "name": "productDate",
              "type": "uint256"
            },
            {
              "internalType": "bool",
              "name": "collectible",
              "type": "bool"
            },
            {
              "internalType": "bool",
              "name": "composite",
              "type": "bool"
            },
            {
              "internalType": "bool",
              "name": "visibility",
              "type": "bool"
            },
            {
              "internalType": "uint256",
              "name": "weight",
              "type": "uint256"
            },
            {
              "internalType": "uint256",
              "name": "productPrice",
              "type": "uint256"
            },
            {
              "internalType": "uint256",
              "name": "productHash",
              "type": "uint256"
            },
            {
              "internalType": "enum SupplyChain.State",
              "name": "productState",
              "type": "uint8"
            }
          ],
          "internalType": "struct SupplyChain.Item[]",
          "name": "",
          "type": "tuple[]"
        }
      ],
      "stateMutability": "view",
      "type": "function",
      "constant": true
    }
  ],
  "bytecode": "0x60806040526000600d5534801561001557600080fd5b50336000806101000a81548173ffffffffffffffffffffffffffffffffffffffff021916908373ffffffffffffffffffffffffffffffffffffffff160217905550615d7880620000666000396000f3fe6080604052600436106101ee5760003560e01c8063834ff7391161010d578063b2c89009116100a0578063e4e376a41161006f578063e4e376a4146106c7578063ee6197cb146106f0578063f1b7f9ce14610719578063f8bd330b14610756578063ff200d2b1461077f576101ee565b8063b2c890091461061c578063b4bdb42514610645578063c45cca3d1461066e578063d9589fd1146106ab576101ee565b806398968794116100dc57806398968794146105855780639e76a293146105a1578063a3cb25e1146105ca578063a4b2e157146105f3576101ee565b8063834ff739146104c65780638ec4f505146105035780638f0c86fa1461052c5780639331829714610569576101ee565b806342f35885116101855780635f8a5afa116101545780635f8a5afa146104225780637250e2241461044b57806375dcdeb11461047457806381d2e95c1461049d576101ee565b806342f358851461036357806352931de8146103a057806355cf64b4146103c95780635da09b88146103e5576101ee565b80631a42c582116101c15780631a42c582146102ab578063250bb38c146102e85780632b182379146103115780632c5ee9bf1461033a576101ee565b806301b8a64e146101f35780630fd22c841461021c578063112940f91461024557806317d4a4911461026e575b600080fd5b3480156101ff57600080fd5b5061021a60048036038101906102159190614fff565b6107aa565b005b34801561022857600080fd5b50610243600480360381019061023e919061509d565b6108c3565b005b34801561025157600080fd5b5061026c6004803603810190610267919061509d565b6108cf565b005b34801561027a57600080fd5b506102956004803603810190610290919061509d565b610933565b6040516102a291906150e5565b60405180910390f35b3480156102b757600080fd5b506102d260048036038101906102cd919061509d565b610950565b6040516102df9190615462565b60405180910390f35b3480156102f457600080fd5b5061030f600480360381019061030a91906154b0565b610e73565b005b34801561031d57600080fd5b50610338600480360381019061033391906154b0565b611145565b005b34801561034657600080fd5b50610361600480360381019061035c919061509d565b611417565b005b34801561036f57600080fd5b5061038a600480360381019061038591906154f0565b611423565b604051610397919061566e565b60405180910390f35b3480156103ac57600080fd5b506103c760048036038101906103c2919061509d565b6117c7565b005b6103e360048036038101906103de91906154f0565b6117d3565b005b3480156103f157600080fd5b5061040c6004803603810190610407919061509d565b611d21565b60405161041991906150e5565b60405180910390f35b34801561042e57600080fd5b506104496004803603810190610444919061509d565b611d3e565b005b34801561045757600080fd5b50610472600480360381019061046d919061509d565b611da2565b005b34801561048057600080fd5b5061049b6004803603810190610496919061509d565b611e06565b005b3480156104a957600080fd5b506104c460048036038101906104bf919061509d565b611e12565b005b3480156104d257600080fd5b506104ed60048036038101906104e8919061509d565b611e1e565b6040516104fa91906150e5565b60405180910390f35b34801561050f57600080fd5b5061052a6004803603810190610525919061509d565b611e3b565b005b34801561053857600080fd5b50610553600480360381019061054e919061509d565b611e9f565b60405161056091906150e5565b60405180910390f35b610583600480360381019061057e91906154f0565b611ebc565b005b61059f600480360381019061059a91906154f0565b612440565b005b3480156105ad57600080fd5b506105c860048036038101906105c391906154b0565b612979565b005b3480156105d657600080fd5b506105f160048036038101906105ec919061509d565b612c4b565b005b3480156105ff57600080fd5b5061061a60048036038101906106159190614fff565b612c57565b005b34801561062857600080fd5b50610643600480360381019061063e9190614fff565b612d9f565b005b34801561065157600080fd5b5061066c60048036038101906106679190614fff565b612f1c565b005b34801561067a57600080fd5b506106956004803603810190610690919061509d565b613064565b6040516106a29190615462565b60405180910390f35b6106c560048036038101906106c091906154f0565b613587565b005b3480156106d357600080fd5b506106ee60048036038101906106e9919061509d565b613ac0565b005b3480156106fc57600080fd5b50610717600480360381019061071291906154b0565b613acc565b005b34801561072557600080fd5b50610740600480360381019061073b91906157f1565b613d9e565b60405161074d91906158cf565b60405180910390f35b34801561076257600080fd5b5061077d6004803603810190610778919061509d565b6141b2565b005b34801561078b57600080fd5b506107946141be565b6040516107a191906158cf565b60405180910390f35b336107b481611d21565b6107bd57600080fd5b826006600c8111156107d2576107d1615204565b5b600a6000838152602001908152602001600020600c0160009054906101000a900460ff16600c81111561080857610807615204565b5b1461081257600080fd5b6007600a6000868152602001908152602001600020600c0160006101000a81548160ff0219169083600c81111561084c5761084b615204565b5b021790555082600a6000868152602001908152602001600020600a01819055503373ffffffffffffffffffffffffffffffffffffffff16847f5deefb19e7e549a7e04121977fe61c27d9d2842fe25f92cec6ab2d9dfbb8cffe42866040516108b59291906158ea565b60405180910390a350505050565b6108cc81614224565b50565b3373ffffffffffffffffffffffffffffffffffffffff1660008054906101000a900473ffffffffffffffffffffffffffffffffffffffff1673ffffffffffffffffffffffffffffffffffffffff161461092757600080fd5b6109308161427e565b50565b60006109498260056142d890919063ffffffff16565b9050919050565b60606000600b60008473ffffffffffffffffffffffffffffffffffffffff1673ffffffffffffffffffffffffffffffffffffffff1681526020019081526020016000206001018054905067ffffffffffffffff8111156109b3576109b261569a565b5b6040519080825280602002602001820160405280156109ec57816020015b6109d9614e42565b8152602001906001900390816109d15790505b50905060005b600b60008573ffffffffffffffffffffffffffffffffffffffff1673ffffffffffffffffffffffffffffffffffffffff16815260200190815260200160002060010180549050811015610e69576000600a6000600b60008873ffffffffffffffffffffffffffffffffffffffff1673ffffffffffffffffffffffffffffffffffffffff1681526020019081526020016000206001018481548110610a9957610a98615913565b5b90600052602060002001548152602001908152602001600020905080604051806101e001604052908160008201548152602001600182018054610adb90615971565b80601f0160208091040260200160405190810160405280929190818152602001828054610b0790615971565b8015610b545780601f10610b2957610100808354040283529160200191610b54565b820191906000526020600020905b815481529060010190602001808311610b3757829003601f168201915b50505050508152602001600282018054610b6d90615971565b80601f0160208091040260200160405190810160405280929190818152602001828054610b9990615971565b8015610be65780601f10610bbb57610100808354040283529160200191610be6565b820191906000526020600020905b815481529060010190602001808311610bc957829003601f168201915b50505050508152602001600382018054610bff90615971565b80601f0160208091040260200160405190810160405280929190818152602001828054610c2b90615971565b8015610c785780601f10610c4d57610100808354040283529160200191610c78565b820191906000526020600020905b815481529060010190602001808311610c5b57829003601f168201915b505050505081526020016004820160009054906101000a900473ffffffffffffffffffffffffffffffffffffffff1673ffffffffffffffffffffffffffffffffffffffff1673ffffffffffffffffffffffffffffffffffffffff1681526020016005820160009054906101000a900473ffffffffffffffffffffffffffffffffffffffff1673ffffffffffffffffffffffffffffffffffffffff1673ffffffffffffffffffffffffffffffffffffffff1681526020016006820160009054906101000a900473ffffffffffffffffffffffffffffffffffffffff1673ffffffffffffffffffffffffffffffffffffffff1673ffffffffffffffffffffffffffffffffffffffff168152602001600782015481526020016008820160009054906101000a900460ff161515151581526020016008820160019054906101000a900460ff161515151581526020016008820160029054906101000a900460ff1615151515815260200160098201548152602001600a8201548152602001600b8201548152602001600c820160009054906101000a900460ff16600c811115610e2157610e20615204565b5b600c811115610e3357610e32615204565b5b81525050838381518110610e4a57610e49615913565b5b6020026020010181905250508080610e61906159d2565b9150506109f2565b5080915050919050565b33610e7d81611e1e565b610e8657600080fd5b81610e9081611e1e565b610e9957600080fd5b83600a600c811115610eae57610ead615204565b5b600a6000838152602001908152602001600020600c0160009054906101000a900460ff16600c811115610ee457610ee3615204565b5b14610eee57600080fd5b600b600a6000878152602001908152602001600020600c0160006101000a81548160ff0219169083600c811115610f2857610f27615204565b5b021790555083600a600087815260200190815260200160002060060160006101000a81548173ffffffffffffffffffffffffffffffffffffffff021916908373ffffffffffffffffffffffffffffffffffffffff160217905550600c60008573ffffffffffffffffffffffffffffffffffffffff1673ffffffffffffffffffffffffffffffffffffffff1681526020019081526020016000206000016000815480929190610fd5906159d2565b9190505550600c60008573ffffffffffffffffffffffffffffffffffffffff1673ffffffffffffffffffffffffffffffffffffffff16815260200190815260200160002060010185908060018154018082558091505060019003906000526020600020016000909190919091505584600a600087815260200190815260200160002060050160009054906101000a900473ffffffffffffffffffffffffffffffffffffffff1685600a60008981526020019081526020016000206001016040516020016110a59493929190615b23565b6040516020818303038152906040528051906020012060001c600a6000878152602001908152602001600020600b01819055508373ffffffffffffffffffffffffffffffffffffffff163373ffffffffffffffffffffffffffffffffffffffff16867fc188b500118c60ef4779ac03c68763ffbdb2be1f6c016872c9e9db545cd7c92f4260405161113691906158cf565b60405180910390a45050505050565b3361114f81611d21565b61115857600080fd5b8161116281611e1e565b61116b57600080fd5b836007600c8111156111805761117f615204565b5b600a6000838152602001908152602001600020600c0160009054906101000a900460ff16600c8111156111b6576111b5615204565b5b146111c057600080fd5b6008600a6000878152602001908152602001600020600c0160006101000a81548160ff0219169083600c8111156111fa576111f9615204565b5b021790555083600a600087815260200190815260200160002060060160006101000a81548173ffffffffffffffffffffffffffffffffffffffff021916908373ffffffffffffffffffffffffffffffffffffffff160217905550600c60008573ffffffffffffffffffffffffffffffffffffffff1673ffffffffffffffffffffffffffffffffffffffff16815260200190815260200160002060000160008154809291906112a7906159d2565b9190505550600c60008573ffffffffffffffffffffffffffffffffffffffff1673ffffffffffffffffffffffffffffffffffffffff16815260200190815260200160002060010185908060018154018082558091505060019003906000526020600020016000909190919091505584600a600087815260200190815260200160002060050160009054906101000a900473ffffffffffffffffffffffffffffffffffffffff1685600a60008981526020019081526020016000206001016040516020016113779493929190615b23565b6040516020818303038152906040528051906020012060001c600a6000878152602001908152602001600020600b01819055508373ffffffffffffffffffffffffffffffffffffffff163373ffffffffffffffffffffffffffffffffffffffff16867fff4edcb43f0794bbff4e154b1d284970e59c24e8100f6439c1cecaf0b87eb0904260405161140891906158cf565b60405180910390a45050505050565b6114208161436a565b50565b61142b614e42565b600a6000838152602001908152602001600020604051806101e00160405290816000820154815260200160018201805461146490615971565b80601f016020809104026020016040519081016040528092919081815260200182805461149090615971565b80156114dd5780601f106114b2576101008083540402835291602001916114dd565b820191906000526020600020905b8154815290600101906020018083116114c057829003601f168201915b505050505081526020016002820180546114f690615971565b80601f016020809104026020016040519081016040528092919081815260200182805461152290615971565b801561156f5780601f106115445761010080835404028352916020019161156f565b820191906000526020600020905b81548152906001019060200180831161155257829003601f168201915b5050505050815260200160038201805461158890615971565b80601f01602080910402602001604051908101604052809291908181526020018280546115b490615971565b80156116015780601f106115d657610100808354040283529160200191611601565b820191906000526020600020905b8154815290600101906020018083116115e457829003601f168201915b505050505081526020016004820160009054906101000a900473ffffffffffffffffffffffffffffffffffffffff1673ffffffffffffffffffffffffffffffffffffffff1673ffffffffffffffffffffffffffffffffffffffff1681526020016005820160009054906101000a900473ffffffffffffffffffffffffffffffffffffffff1673ffffffffffffffffffffffffffffffffffffffff1673ffffffffffffffffffffffffffffffffffffffff1681526020016006820160009054906101000a900473ffffffffffffffffffffffffffffffffffffffff1673ffffffffffffffffffffffffffffffffffffffff1673ffffffffffffffffffffffffffffffffffffffff168152602001600782015481526020016008820160009054906101000a900460ff161515151581526020016008820160019054906101000a900460ff161515151581526020016008820160029054906101000a900460ff1615151515815260200160098201548152602001600a8201548152602001600b8201548152602001600c820160009054906101000a900460ff16600c8111156117aa576117a9615204565b5b600c8111156117bc576117bb615204565b5b815250509050919050565b6117d0816143c4565b50565b336117dd81611e9f565b6117e657600080fd5b600a6000838152602001908152602001600020600a01548034101561180a57600080fd5b826002600c81111561181f5761181e615204565b5b600a6000838152602001908152602001600020600c0160009054906101000a900460ff16600c81111561185557611854615204565b5b1461185f57600080fd5b8380600a600083815260200190815260200160002060050160009054906101000a900473ffffffffffffffffffffffffffffffffffffffff1633600a60008581526020019081526020016000206001016040516020016118c29493929190615b96565b6040516020818303038152906040528051906020012060001c600a6000838152602001908152602001600020600b0154146118fc57600080fd5b6003600a6000878152602001908152602001600020600c0160006101000a81548160ff0219169083600c81111561193657611935615204565b5b02179055506000600a600087815260200190815260200160002060080160026101000a81548160ff021916908315150217905550600a600086815260200190815260200160002060050160009054906101000a900473ffffffffffffffffffffffffffffffffffffffff1673ffffffffffffffffffffffffffffffffffffffff166108fc600a6000888152602001908152602001600020600a01549081150290604051600060405180830381858888f193505050501580156119fc573d6000803e3d6000fd5b50611a3d85600a600088815260200190815260200160002060050160009054906101000a900473ffffffffffffffffffffffffffffffffffffffff1661441e565b600b6000600a600088815260200190815260200160002060050160009054906101000a900473ffffffffffffffffffffffffffffffffffffffff1673ffffffffffffffffffffffffffffffffffffffff1673ffffffffffffffffffffffffffffffffffffffff1681526020019081526020016000206000016000815480929190611ac690615be0565b919050555033600a600087815260200190815260200160002060050160006101000a81548173ffffffffffffffffffffffffffffffffffffffff021916908373ffffffffffffffffffffffffffffffffffffffff160217905550600c6000600a600088815260200190815260200160002060050160009054906101000a900473ffffffffffffffffffffffffffffffffffffffff1673ffffffffffffffffffffffffffffffffffffffff1673ffffffffffffffffffffffffffffffffffffffff1681526020019081526020016000206000016000815480929190611ba990615be0565b9190505550611bee85600a600088815260200190815260200160002060050160009054906101000a900473ffffffffffffffffffffffffffffffffffffffff1661466b565b6000600a6000878152602001908152602001600020600a0181905550600b60003373ffffffffffffffffffffffffffffffffffffffff1673ffffffffffffffffffffffffffffffffffffffff1681526020019081526020016000206000016000815480929190611c5d906159d2565b9190505550600b60003373ffffffffffffffffffffffffffffffffffffffff1673ffffffffffffffffffffffffffffffffffffffff1681526020019081526020016000206001018590806001815401808255809150506001900390600052602060002001600090919091909150553373ffffffffffffffffffffffffffffffffffffffff16857f28d2d7e57b87b5cd5e17a265773ce73b97b3d2e4595bc6239f69bb0915536d5942604051611d1291906158cf565b60405180910390a35050505050565b6000611d378260016142d890919063ffffffff16565b9050919050565b3373ffffffffffffffffffffffffffffffffffffffff1660008054906101000a900473ffffffffffffffffffffffffffffffffffffffff1673ffffffffffffffffffffffffffffffffffffffff1614611d9657600080fd5b611d9f816148b8565b50565b3373ffffffffffffffffffffffffffffffffffffffff1660008054906101000a900473ffffffffffffffffffffffffffffffffffffffff1673ffffffffffffffffffffffffffffffffffffffff1614611dfa57600080fd5b611e0381614912565b50565b611e0f8161496c565b50565b611e1b816149c6565b50565b6000611e348260036142d890919063ffffffff16565b9050919050565b3373ffffffffffffffffffffffffffffffffffffffff1660008054906101000a900473ffffffffffffffffffffffffffffffffffffffff1673ffffffffffffffffffffffffffffffffffffffff1614611e9357600080fd5b611e9c81614a20565b50565b6000611eb58260076142d890919063ffffffff16565b9050919050565b33611ec681611e1e565b611ecf57600080fd5b8160011515600a600083815260200190815260200160002060080160009054906101000a900460ff16151514611f0457600080fd5b600a6000848152602001908152602001600020600a015480341015611f2857600080fd5b83600b600c811115611f3d57611f3c615204565b5b600a6000838152602001908152602001600020600c0160009054906101000a900460ff16600c811115611f7357611f72615204565b5b14611f7d57600080fd5b8480600a600083815260200190815260200160002060050160009054906101000a900473ffffffffffffffffffffffffffffffffffffffff1633600a6000858152602001908152602001600020600101604051602001611fe09493929190615b96565b6040516020818303038152906040528051906020012060001c600a6000838152602001908152602001600020600b01541461201a57600080fd5b600c600a6000888152602001908152602001600020600c0160006101000a81548160ff0219169083600c81111561205457612053615204565b5b02179055506000600a600088815260200190815260200160002060080160026101000a81548160ff021916908315150217905550600a600087815260200190815260200160002060050160009054906101000a900473ffffffffffffffffffffffffffffffffffffffff1673ffffffffffffffffffffffffffffffffffffffff166108fc600a6000898152602001908152602001600020600a01549081150290604051600060405180830381858888f1935050505015801561211a573d6000803e3d6000fd5b50600b6000600a600089815260200190815260200160002060050160009054906101000a900473ffffffffffffffffffffffffffffffffffffffff1673ffffffffffffffffffffffffffffffffffffffff1673ffffffffffffffffffffffffffffffffffffffff16815260200190815260200160002060000160008154809291906121a490615be0565b91905055506121e986600a600089815260200190815260200160002060050160009054906101000a900473ffffffffffffffffffffffffffffffffffffffff1661441e565b33600a600088815260200190815260200160002060050160006101000a81548173ffffffffffffffffffffffffffffffffffffffff021916908373ffffffffffffffffffffffffffffffffffffffff160217905550600c6000600a600089815260200190815260200160002060050160009054906101000a900473ffffffffffffffffffffffffffffffffffffffff1673ffffffffffffffffffffffffffffffffffffffff1673ffffffffffffffffffffffffffffffffffffffff16815260200190815260200160002060000160008154809291906122c790615be0565b919050555061230c86600a600089815260200190815260200160002060050160009054906101000a900473ffffffffffffffffffffffffffffffffffffffff1661466b565b6000600a6000888152602001908152602001600020600a0181905550600b60003373ffffffffffffffffffffffffffffffffffffffff1673ffffffffffffffffffffffffffffffffffffffff168152602001908152602001600020600001600081548092919061237b906159d2565b9190505550600b60003373ffffffffffffffffffffffffffffffffffffffff1673ffffffffffffffffffffffffffffffffffffffff1681526020019081526020016000206001018690806001815401808255809150506001900390600052602060002001600090919091909150553373ffffffffffffffffffffffffffffffffffffffff16867fab24060fff978f4fefd01f7c5907e6b14f60d643e4c578a1cc8b17299cff13404260405161243091906158cf565b60405180910390a3505050505050565b3361244a81611e1e565b61245357600080fd5b600a6000838152602001908152602001600020600a01548034101561247757600080fd5b826008600c81111561248c5761248b615204565b5b600a6000838152602001908152602001600020600c0160009054906101000a900460ff16600c8111156124c2576124c1615204565b5b146124cc57600080fd5b8380600a600083815260200190815260200160002060050160009054906101000a900473ffffffffffffffffffffffffffffffffffffffff1633600a600085815260200190815260200160002060010160405160200161252f9493929190615b96565b6040516020818303038152906040528051906020012060001c600a6000838152602001908152602001600020600b01541461256957600080fd5b6009600a6000878152602001908152602001600020600c0160006101000a81548160ff0219169083600c8111156125a3576125a2615204565b5b02179055506000600a600087815260200190815260200160002060080160026101000a81548160ff021916908315150217905550600a600086815260200190815260200160002060050160009054906101000a900473ffffffffffffffffffffffffffffffffffffffff1673ffffffffffffffffffffffffffffffffffffffff166108fc600a6000888152602001908152602001600020600a01549081150290604051600060405180830381858888f19350505050158015612669573d6000803e3d6000fd5b50600b6000600a600088815260200190815260200160002060050160009054906101000a900473ffffffffffffffffffffffffffffffffffffffff1673ffffffffffffffffffffffffffffffffffffffff1673ffffffffffffffffffffffffffffffffffffffff16815260200190815260200160002060000160008154809291906126f390615be0565b919050555061273885600a600088815260200190815260200160002060050160009054906101000a900473ffffffffffffffffffffffffffffffffffffffff1661441e565b33600a600087815260200190815260200160002060050160006101000a81548173ffffffffffffffffffffffffffffffffffffffff021916908373ffffffffffffffffffffffffffffffffffffffff160217905550600c6000600a600088815260200190815260200160002060050160009054906101000a900473ffffffffffffffffffffffffffffffffffffffff1673ffffffffffffffffffffffffffffffffffffffff1673ffffffffffffffffffffffffffffffffffffffff168152602001908152602001600020600001600081548092919061281690615be0565b919050555061285b85600a600088815260200190815260200160002060050160009054906101000a900473ffffffffffffffffffffffffffffffffffffffff1661466b565b6000600a6000878152602001908152602001600020600a0181905550600b60003373ffffffffffffffffffffffffffffffffffffffff1673ffffffffffffffffffffffffffffffffffffffff16815260200190815260200160002060000160008154809291906128ca906159d2565b9190505550600b60003373ffffffffffffffffffffffffffffffffffffffff1673ffffffffffffffffffffffffffffffffffffffff168152602001908152602001600020600101859080600181540180825580915050600190039060005260206000200160009091909190915055847f0d607424e7c8d7272e3adc76ab8e220c0de7a8c179d358e62ac8b7b22a557922423360405161296a929190615c19565b60405180910390a25050505050565b3361298381610933565b61298c57600080fd5b8161299681611e9f565b61299f57600080fd5b836001600c8111156129b4576129b3615204565b5b600a6000838152602001908152602001600020600c0160009054906101000a900460ff16600c8111156129ea576129e9615204565b5b146129f457600080fd5b6002600a6000878152602001908152602001600020600c0160006101000a81548160ff0219169083600c811115612a2e57612a2d615204565b5b021790555083600a600087815260200190815260200160002060060160006101000a81548173ffffffffffffffffffffffffffffffffffffffff021916908373ffffffffffffffffffffffffffffffffffffffff160217905550600c60008573ffffffffffffffffffffffffffffffffffffffff1673ffffffffffffffffffffffffffffffffffffffff1681526020019081526020016000206000016000815480929190612adb906159d2565b9190505550600c60008573ffffffffffffffffffffffffffffffffffffffff1673ffffffffffffffffffffffffffffffffffffffff16815260200190815260200160002060010185908060018154018082558091505060019003906000526020600020016000909190919091505584600a600087815260200190815260200160002060050160009054906101000a900473ffffffffffffffffffffffffffffffffffffffff1685600a6000898152602001908152602001600020600101604051602001612bab9493929190615b23565b6040516020818303038152906040528051906020012060001c600a6000878152602001908152602001600020600b01819055508373ffffffffffffffffffffffffffffffffffffffff163373ffffffffffffffffffffffffffffffffffffffff16867fef1cb90ab53defb050ecdf1bec6f745742f554e1b09526e39f960d571cd1f3bd42604051612c3c91906158cf565b60405180910390a45050505050565b612c5481614a7a565b50565b33612c6181611e9f565b612c6a57600080fd5b826003600c811115612c7f57612c7e615204565b5b600a6000838152602001908152602001600020600c0160009054906101000a900460ff16600c811115612cb557612cb4615204565b5b14612cbf57600080fd5b6001600a600086815260200190815260200160002060080160026101000a81548160ff0219169083151502179055506004600a6000868152602001908152602001600020600c0160006101000a81548160ff0219169083600c811115612d2857612d27615204565b5b021790555082600a6000868152602001908152602001600020600a01819055503373ffffffffffffffffffffffffffffffffffffffff16847f02b81c1405d612f3db14b449985a4aabdff28384bb7e12c5e4c4aa9fa1e9f9af4286604051612d919291906158ea565b60405180910390a350505050565b33612da981611e1e565b612db257600080fd5b826009600c811115612dc757612dc6615204565b5b600a6000838152602001908152602001600020600c0160009054906101000a900460ff16600c811115612dfd57612dfc615204565b5b14612e0757600080fd5b8360011515600a600083815260200190815260200160002060080160009054906101000a900460ff16151514612e3c57600080fd5b600a806000878152602001908152602001600020600c0160006101000a81548160ff0219169083600c811115612e7557612e74615204565b5b021790555083600a6000878152602001908152602001600020600a01819055506001600a600087815260200190815260200160002060080160026101000a81548160ff0219169083151502179055503373ffffffffffffffffffffffffffffffffffffffff16857f15f96be6e4c7b03490c8220da8251fffd4f5f08ba5a8713a96c746c1b71d25474287604051612f0d9291906158ea565b60405180910390a35050505050565b33612f2681610933565b612f2f57600080fd5b826000600c811115612f4457612f43615204565b5b600a6000838152602001908152602001600020600c0160009054906101000a900460ff16600c811115612f7a57612f79615204565b5b14612f8457600080fd5b6001600a600086815260200190815260200160002060080160026101000a81548160ff0219169083151502179055506001600a6000868152602001908152602001600020600c0160006101000a81548160ff0219169083600c811115612fed57612fec615204565b5b021790555082600a6000868152602001908152602001600020600a01819055503373ffffffffffffffffffffffffffffffffffffffff16847f191580e268a8474c31b11f8958417d1f71b35d25884cd5e49ab272d6faaa01b542866040516130569291906158ea565b60405180910390a350505050565b60606000600c60008473ffffffffffffffffffffffffffffffffffffffff1673ffffffffffffffffffffffffffffffffffffffff1681526020019081526020016000206001018054905067ffffffffffffffff8111156130c7576130c661569a565b5b60405190808252806020026020018201604052801561310057816020015b6130ed614e42565b8152602001906001900390816130e55790505b50905060005b600c60008573ffffffffffffffffffffffffffffffffffffffff1673ffffffffffffffffffffffffffffffffffffffff1681526020019081526020016000206001018054905081101561357d576000600a6000600c60008873ffffffffffffffffffffffffffffffffffffffff1673ffffffffffffffffffffffffffffffffffffffff16815260200190815260200160002060010184815481106131ad576131ac615913565b5b90600052602060002001548152602001908152602001600020905080604051806101e0016040529081600082015481526020016001820180546131ef90615971565b80601f016020809104026020016040519081016040528092919081815260200182805461321b90615971565b80156132685780601f1061323d57610100808354040283529160200191613268565b820191906000526020600020905b81548152906001019060200180831161324b57829003601f168201915b5050505050815260200160028201805461328190615971565b80601f01602080910402602001604051908101604052809291908181526020018280546132ad90615971565b80156132fa5780601f106132cf576101008083540402835291602001916132fa565b820191906000526020600020905b8154815290600101906020018083116132dd57829003601f168201915b5050505050815260200160038201805461331390615971565b80601f016020809104026020016040519081016040528092919081815260200182805461333f90615971565b801561338c5780601f106133615761010080835404028352916020019161338c565b820191906000526020600020905b81548152906001019060200180831161336f57829003601f168201915b505050505081526020016004820160009054906101000a900473ffffffffffffffffffffffffffffffffffffffff1673ffffffffffffffffffffffffffffffffffffffff1673ffffffffffffffffffffffffffffffffffffffff1681526020016005820160009054906101000a900473ffffffffffffffffffffffffffffffffffffffff1673ffffffffffffffffffffffffffffffffffffffff1673ffffffffffffffffffffffffffffffffffffffff1681526020016006820160009054906101000a900473ffffffffffffffffffffffffffffffffffffffff1673ffffffffffffffffffffffffffffffffffffffff1673ffffffffffffffffffffffffffffffffffffffff168152602001600782015481526020016008820160009054906101000a900460ff161515151581526020016008820160019054906101000a900460ff161515151581526020016008820160029054906101000a900460ff1615151515815260200160098201548152602001600a8201548152602001600b8201548152602001600c820160009054906101000a900460ff16600c81111561353557613534615204565b5b600c81111561354757613546615204565b5b8152505083838151811061355e5761355d615913565b5b6020026020010181905250508080613575906159d2565b915050613106565b5080915050919050565b3361359181611d21565b61359a57600080fd5b600a6000838152602001908152602001600020600a0154803410156135be57600080fd5b826005600c8111156135d3576135d2615204565b5b600a6000838152602001908152602001600020600c0160009054906101000a900460ff16600c81111561360957613608615204565b5b1461361357600080fd5b8380600a600083815260200190815260200160002060050160009054906101000a900473ffffffffffffffffffffffffffffffffffffffff1633600a60008581526020019081526020016000206001016040516020016136769493929190615b96565b6040516020818303038152906040528051906020012060001c600a6000838152602001908152602001600020600b0154146136b057600080fd5b6006600a6000878152602001908152602001600020600c0160006101000a81548160ff0219169083600c8111156136ea576136e9615204565b5b02179055506000600a600087815260200190815260200160002060080160026101000a81548160ff021916908315150217905550600a600086815260200190815260200160002060050160009054906101000a900473ffffffffffffffffffffffffffffffffffffffff1673ffffffffffffffffffffffffffffffffffffffff166108fc600a6000888152602001908152602001600020600a01549081150290604051600060405180830381858888f193505050501580156137b0573d6000803e3d6000fd5b50600b6000600a600088815260200190815260200160002060050160009054906101000a900473ffffffffffffffffffffffffffffffffffffffff1673ffffffffffffffffffffffffffffffffffffffff1673ffffffffffffffffffffffffffffffffffffffff168152602001908152602001600020600001600081548092919061383a90615be0565b919050555061387f85600a600088815260200190815260200160002060050160009054906101000a900473ffffffffffffffffffffffffffffffffffffffff1661441e565b33600a600087815260200190815260200160002060050160006101000a81548173ffffffffffffffffffffffffffffffffffffffff021916908373ffffffffffffffffffffffffffffffffffffffff160217905550600c6000600a600088815260200190815260200160002060050160009054906101000a900473ffffffffffffffffffffffffffffffffffffffff1673ffffffffffffffffffffffffffffffffffffffff1673ffffffffffffffffffffffffffffffffffffffff168152602001908152602001600020600001600081548092919061395d90615be0565b91905055506139a285600a600088815260200190815260200160002060050160009054906101000a900473ffffffffffffffffffffffffffffffffffffffff1661466b565b6000600a6000878152602001908152602001600020600a0181905550600b60003373ffffffffffffffffffffffffffffffffffffffff1673ffffffffffffffffffffffffffffffffffffffff1681526020019081526020016000206000016000815480929190613a11906159d2565b9190505550600b60003373ffffffffffffffffffffffffffffffffffffffff1673ffffffffffffffffffffffffffffffffffffffff168152602001908152602001600020600101859080600181540180825580915050600190039060005260206000200160009091909190915055847f568f99bfa0294af6be0e3aafa4f1109a23175d03006f5e4341622b2e3ce5c1a44233604051613ab1929190615c19565b60405180910390a25050505050565b613ac981614ad4565b50565b33613ad681611e9f565b613adf57600080fd5b81613ae981611d21565b613af257600080fd5b836004600c811115613b0757613b06615204565b5b600a6000838152602001908152602001600020600c0160009054906101000a900460ff16600c811115613b3d57613b3c615204565b5b14613b4757600080fd5b6005600a6000878152602001908152602001600020600c0160006101000a81548160ff0219169083600c811115613b8157613b80615204565b5b021790555083600a600087815260200190815260200160002060060160006101000a81548173ffffffffffffffffffffffffffffffffffffffff021916908373ffffffffffffffffffffffffffffffffffffffff160217905550600c60008573ffffffffffffffffffffffffffffffffffffffff1673ffffffffffffffffffffffffffffffffffffffff1681526020019081526020016000206000016000815480929190613c2e906159d2565b9190505550600c60008573ffffffffffffffffffffffffffffffffffffffff1673ffffffffffffffffffffffffffffffffffffffff16815260200190815260200160002060010185908060018154018082558091505060019003906000526020600020016000909190919091505584600a600087815260200190815260200160002060050160009054906101000a900473ffffffffffffffffffffffffffffffffffffffff1685600a6000898152602001908152602001600020600101604051602001613cfe9493929190615b23565b6040516020818303038152906040528051906020012060001c600a6000878152602001908152602001600020600b01819055508373ffffffffffffffffffffffffffffffffffffffff163373ffffffffffffffffffffffffffffffffffffffff16867ff0085f598ab3ac050dca19ea301994110bdc7e266c0baf0ac5d4604dadd913d242604051613d8f91906158cf565b60405180910390a45050505050565b600033613daa81610933565b613db357600080fd5b6000613dbd614b2e565b90506000339050604051806101e001604052808381526020018a81526020018881526020018981526020018273ffffffffffffffffffffffffffffffffffffffff1681526020018273ffffffffffffffffffffffffffffffffffffffff168152602001600073ffffffffffffffffffffffffffffffffffffffff168152602001428152602001871515815260200160001515815260200160001515815260200186815260200160008152602001600081526020016000600c811115613e8557613e84615204565b5b815250600a6000848152602001908152602001600020600082015181600001556020820151816001019080519060200190613ec1929190614f12565b506040820151816002019080519060200190613ede929190614f12565b506060820151816003019080519060200190613efb929190614f12565b5060808201518160040160006101000a81548173ffffffffffffffffffffffffffffffffffffffff021916908373ffffffffffffffffffffffffffffffffffffffff16021790555060a08201518160050160006101000a81548173ffffffffffffffffffffffffffffffffffffffff021916908373ffffffffffffffffffffffffffffffffffffffff16021790555060c08201518160060160006101000a81548173ffffffffffffffffffffffffffffffffffffffff021916908373ffffffffffffffffffffffffffffffffffffffff16021790555060e082015181600701556101008201518160080160006101000a81548160ff0219169083151502179055506101208201518160080160016101000a81548160ff0219169083151502179055506101408201518160080160026101000a81548160ff021916908315150217905550610160820151816009015561018082015181600a01556101a082015181600b01556101c082015181600c0160006101000a81548160ff0219169083600c81111561408b5761408a615204565b5b0217905550905050600b60008273ffffffffffffffffffffffffffffffffffffffff1673ffffffffffffffffffffffffffffffffffffffff16815260200190815260200160002060000160008154809291906140e6906159d2565b9190505550600b60008273ffffffffffffffffffffffffffffffffffffffff1673ffffffffffffffffffffffffffffffffffffffff1681526020019081526020016000206001018290806001815401808255809150506001900390600052602060002001600090919091909150553373ffffffffffffffffffffffffffffffffffffffff16827f5927e9cc693825f286f7181d772897345cef501932018aa4196ad97926cd54244260405161419b91906158cf565b60405180910390a381935050505095945050505050565b6141bb81614b8c565b50565b60006141c933610933565b156141d75760019050614221565b6141e033611e9f565b156141ee5760029050614221565b6141f733611d21565b156142055760039050614221565b61420e33611e1e565b1561421c5760049050614221565b600590505b90565b614238816001614be690919063ffffffff16565b8073ffffffffffffffffffffffffffffffffffffffff167fe0bf0e8509bb65b00de9afcbc3870546ee37f1442ebfd9fe4211362ceb9dbce360405160405180910390a250565b614292816003614c9190919063ffffffff16565b8073ffffffffffffffffffffffffffffffffffffffff167f28b26e7a3d20aedbc5f8f2ebf7da671c0491723a2b78f47a097b0e46dee0714260405160405180910390a250565b60008073ffffffffffffffffffffffffffffffffffffffff168273ffffffffffffffffffffffffffffffffffffffff16141561431357600080fd5b8260000160008373ffffffffffffffffffffffffffffffffffffffff1673ffffffffffffffffffffffffffffffffffffffff16815260200190815260200160002060009054906101000a900460ff16905092915050565b61437e816003614d9790919063ffffffff16565b8073ffffffffffffffffffffffffffffffffffffffff167f32dc543199df7e5ecd26e37915c895ccf94e87339d27cfe42886e67b06070fa960405160405180910390a250565b6143d8816007614d9790919063ffffffff16565b8073ffffffffffffffffffffffffffffffffffffffff167fe1b1b06fc90496227fbac1fb1445a73dc0b50ffe20541bc439caf054e130f2dd60405160405180910390a250565b60005b600b60008373ffffffffffffffffffffffffffffffffffffffff1673ffffffffffffffffffffffffffffffffffffffff1681526020019081526020016000206001018054905081101561466657600b60008373ffffffffffffffffffffffffffffffffffffffff1673ffffffffffffffffffffffffffffffffffffffff16815260200190815260200160002060010181815481106144c2576144c1615913565b5b906000526020600020015483141561465357600b60008373ffffffffffffffffffffffffffffffffffffffff1673ffffffffffffffffffffffffffffffffffffffff1681526020019081526020016000206001016001600b60008573ffffffffffffffffffffffffffffffffffffffff1673ffffffffffffffffffffffffffffffffffffffff168152602001908152602001600020600101805490506145689190615c42565b8154811061457957614578615913565b5b9060005260206000200154600b60008473ffffffffffffffffffffffffffffffffffffffff1673ffffffffffffffffffffffffffffffffffffffff16815260200190815260200160002060010182815481106145d8576145d7615913565b5b9060005260206000200181905550600b60008373ffffffffffffffffffffffffffffffffffffffff1673ffffffffffffffffffffffffffffffffffffffff16815260200190815260200160002060010180548061463857614637615c76565b5b60019003818190600052602060002001600090559055614666565b808061465e906159d2565b915050614421565b505050565b60005b600c60008373ffffffffffffffffffffffffffffffffffffffff1673ffffffffffffffffffffffffffffffffffffffff168152602001908152602001600020600101805490508110156148b357600c60008373ffffffffffffffffffffffffffffffffffffffff1673ffffffffffffffffffffffffffffffffffffffff168152602001908152602001600020600101818154811061470f5761470e615913565b5b90600052602060002001548314156148a057600c60008373ffffffffffffffffffffffffffffffffffffffff1673ffffffffffffffffffffffffffffffffffffffff1681526020019081526020016000206001016001600c60008573ffffffffffffffffffffffffffffffffffffffff1673ffffffffffffffffffffffffffffffffffffffff168152602001908152602001600020600101805490506147b59190615c42565b815481106147c6576147c5615913565b5b9060005260206000200154600c60008473ffffffffffffffffffffffffffffffffffffffff1673ffffffffffffffffffffffffffffffffffffffff168152602001908152602001600020600101828154811061482557614824615913565b5b9060005260206000200181905550600c60008373ffffffffffffffffffffffffffffffffffffffff1673ffffffffffffffffffffffffffffffffffffffff16815260200190815260200160002060010180548061488557614884615c76565b5b600190038181906000526020600020016000905590556148b3565b80806148ab906159d2565b91505061466e565b505050565b6148cc816005614c9190919063ffffffff16565b8073ffffffffffffffffffffffffffffffffffffffff167f561138658ca49a8540dc70dcfe64c9026c1c5b9344642242dd6562970f9c127860405160405180910390a250565b614926816007614c9190919063ffffffff16565b8073ffffffffffffffffffffffffffffffffffffffff167fddbf200aa634dc3fb81cfd68583dd1040d1c751d335e1d86b631bde3e977fea860405160405180910390a250565b614980816003614be690919063ffffffff16565b8073ffffffffffffffffffffffffffffffffffffffff167f32be4a8d8826ffe9dc8a86625dc3a215b00e3d5820fcc2d92ff5487356f5cab060405160405180910390a250565b6149da816007614be690919063ffffffff16565b8073ffffffffffffffffffffffffffffffffffffffff167f5ba057f6859f45b8bf9055bb78466867ffa8b7b7b3eac0e39c132390fa15630b60405160405180910390a250565b614a34816001614c9190919063ffffffff16565b8073ffffffffffffffffffffffffffffffffffffffff167f71ae26cad02663e3d92efd6ec56031a80d74a20c0ab4183faa8bf262261c9baa60405160405180910390a250565b614a8e816005614be690919063ffffffff16565b8073ffffffffffffffffffffffffffffffffffffffff167fd5343fb03455ce242a0f2aa16059f1b1036283c9220e28e631c46f1d6c55f89560405160405180910390a250565b614ae8816005614d9790919063ffffffff16565b8073ffffffffffffffffffffffffffffffffffffffff167fb95900c899bdac269b9171170672563471748b1d67c0f84de39892ffe1bb74f560405160405180910390a250565b6000600d6000815480929190614b43906159d2565b91905055506304ec38ed4233600d54604051602001614b6493929190615ca5565b6040516020818303038152906040528051906020012060001c614b879190615d11565b905090565b614ba0816001614d9790919063ffffffff16565b8073ffffffffffffffffffffffffffffffffffffffff167fd624a9d6aede8c855ca1538132c456ef4117d142f2b2b6ab106d1c06356715fd60405160405180910390a250565b600073ffffffffffffffffffffffffffffffffffffffff168173ffffffffffffffffffffffffffffffffffffffff161415614c2057600080fd5b614c2a82826142d8565b614c3357600080fd5b60018260010160008373ffffffffffffffffffffffffffffffffffffffff1673ffffffffffffffffffffffffffffffffffffffff16815260200190815260200160002060006101000a81548160ff0219169083151502179055505050565b600073ffffffffffffffffffffffffffffffffffffffff168173ffffffffffffffffffffffffffffffffffffffff161415614ccb57600080fd5b614cd582826142d8565b15614cdf57600080fd5b60018260000160008373ffffffffffffffffffffffffffffffffffffffff1673ffffffffffffffffffffffffffffffffffffffff16815260200190815260200160002060006101000a81548160ff02191690831515021790555060008260010160008373ffffffffffffffffffffffffffffffffffffffff1673ffffffffffffffffffffffffffffffffffffffff16815260200190815260200160002060006101000a81548160ff0219169083151502179055505050565b600073ffffffffffffffffffffffffffffffffffffffff168173ffffffffffffffffffffffffffffffffffffffff161415614dd157600080fd5b614ddb82826142d8565b614de457600080fd5b60008260010160008373ffffffffffffffffffffffffffffffffffffffff1673ffffffffffffffffffffffffffffffffffffffff16815260200190815260200160002060006101000a81548160ff0219169083151502179055505050565b604051806101e0016040528060008152602001606081526020016060815260200160608152602001600073ffffffffffffffffffffffffffffffffffffffff168152602001600073ffffffffffffffffffffffffffffffffffffffff168152602001600073ffffffffffffffffffffffffffffffffffffffff168152602001600081526020016000151581526020016000151581526020016000151581526020016000815260200160008152602001600081526020016000600c811115614f0c57614f0b615204565b5b81525090565b828054614f1e90615971565b90600052602060002090601f016020900481019282614f405760008555614f87565b82601f10614f5957805160ff1916838001178555614f87565b82800160010185558215614f87579182015b82811115614f86578251825591602001919060010190614f6b565b5b509050614f949190614f98565b5090565b5b80821115614fb1576000816000905550600101614f99565b5090565b6000604051905090565b600080fd5b600080fd5b6000819050919050565b614fdc81614fc9565b8114614fe757600080fd5b50565b600081359050614ff981614fd3565b92915050565b6000806040838503121561501657615015614fbf565b5b600061502485828601614fea565b925050602061503585828601614fea565b9150509250929050565b600073ffffffffffffffffffffffffffffffffffffffff82169050919050565b600061506a8261503f565b9050919050565b61507a8161505f565b811461508557600080fd5b50565b60008135905061509781615071565b92915050565b6000602082840312156150b3576150b2614fbf565b5b60006150c184828501615088565b91505092915050565b60008115159050919050565b6150df816150ca565b82525050565b60006020820190506150fa60008301846150d6565b92915050565b600081519050919050565b600082825260208201905092915050565b6000819050602082019050919050565b61513581614fc9565b82525050565b600081519050919050565b600082825260208201905092915050565b60005b8381101561517557808201518184015260208101905061515a565b83811115615184576000848401525b50505050565b6000601f19601f8301169050919050565b60006151a68261513b565b6151b08185615146565b93506151c0818560208601615157565b6151c98161518a565b840191505092915050565b60006151df8261503f565b9050919050565b6151ef816151d4565b82525050565b6151fe816150ca565b82525050565b7f4e487b7100000000000000000000000000000000000000000000000000000000600052602160045260246000fd5b600d811061524457615243615204565b5b50565b600081905061525582615233565b919050565b600061526582615247565b9050919050565b6152758161525a565b82525050565b60006101e083016000830151615294600086018261512c565b50602083015184820360208601526152ac828261519b565b915050604083015184820360408601526152c6828261519b565b915050606083015184820360608601526152e0828261519b565b91505060808301516152f560808601826151e6565b5060a083015161530860a08601826151e6565b5060c083015161531b60c08601826151e6565b5060e083015161532e60e086018261512c565b506101008301516153436101008601826151f5565b506101208301516153586101208601826151f5565b5061014083015161536d6101408601826151f5565b5061016083015161538261016086018261512c565b5061018083015161539761018086018261512c565b506101a08301516153ac6101a086018261512c565b506101c08301516153c16101c086018261526c565b508091505092915050565b60006153d8838361527b565b905092915050565b6000602082019050919050565b60006153f882615100565b615402818561510b565b9350836020820285016154148561511c565b8060005b85811015615450578484038952815161543185826153cc565b945061543c836153e0565b925060208a01995050600181019050615418565b50829750879550505050505092915050565b6000602082019050818103600083015261547c81846153ed565b905092915050565b61548d816151d4565b811461549857600080fd5b50565b6000813590506154aa81615484565b92915050565b600080604083850312156154c7576154c6614fbf565b5b60006154d585828601614fea565b92505060206154e68582860161549b565b9150509250929050565b60006020828403121561550657615505614fbf565b5b600061551484828501614fea565b91505092915050565b60006101e083016000830151615536600086018261512c565b506020830151848203602086015261554e828261519b565b91505060408301518482036040860152615568828261519b565b91505060608301518482036060860152615582828261519b565b915050608083015161559760808601826151e6565b5060a08301516155aa60a08601826151e6565b5060c08301516155bd60c08601826151e6565b5060e08301516155d060e086018261512c565b506101008301516155e56101008601826151f5565b506101208301516155fa6101208601826151f5565b5061014083015161560f6101408601826151f5565b5061016083015161562461016086018261512c565b5061018083015161563961018086018261512c565b506101a083015161564e6101a086018261512c565b506101c08301516156636101c086018261526c565b508091505092915050565b60006020820190508181036000830152615688818461551d565b905092915050565b600080fd5b600080fd5b7f4e487b7100000000000000000000000000000000000000000000000000000000600052604160045260246000fd5b6156d28261518a565b810181811067ffffffffffffffff821117156156f1576156f061569a565b5b80604052505050565b6000615704614fb5565b905061571082826156c9565b919050565b600067ffffffffffffffff8211156157305761572f61569a565b5b6157398261518a565b9050602081019050919050565b82818337600083830152505050565b600061576861576384615715565b6156fa565b90508281526020810184848401111561578457615783615695565b5b61578f848285615746565b509392505050565b600082601f8301126157ac576157ab615690565b5b81356157bc848260208601615755565b91505092915050565b6157ce816150ca565b81146157d957600080fd5b50565b6000813590506157eb816157c5565b92915050565b600080600080600060a0868803121561580d5761580c614fbf565b5b600086013567ffffffffffffffff81111561582b5761582a614fc4565b5b61583788828901615797565b955050602086013567ffffffffffffffff81111561585857615857614fc4565b5b61586488828901615797565b945050604086013567ffffffffffffffff81111561588557615884614fc4565b5b61589188828901615797565b93505060606158a2888289016157dc565b92505060806158b388828901614fea565b9150509295509295909350565b6158c981614fc9565b82525050565b60006020820190506158e460008301846158c0565b92915050565b60006040820190506158ff60008301856158c0565b61590c60208301846158c0565b9392505050565b7f4e487b7100000000000000000000000000000000000000000000000000000000600052603260045260246000fd5b7f4e487b7100000000000000000000000000000000000000000000000000000000600052602260045260246000fd5b6000600282049050600182168061598957607f821691505b6020821081141561599d5761599c615942565b5b50919050565b7f4e487b7100000000000000000000000000000000000000000000000000000000600052601160045260246000fd5b60006159dd82614fc9565b91507fffffffffffffffffffffffffffffffffffffffffffffffffffffffffffffffff821415615a1057615a0f6159a3565b5b600182019050919050565b6000819050919050565b615a36615a3182614fc9565b615a1b565b82525050565b60008160601b9050919050565b6000615a5482615a3c565b9050919050565b6000615a6682615a49565b9050919050565b615a7e615a79826151d4565b615a5b565b82525050565b600081905092915050565b60008190508160005260206000209050919050565b60008154615ab181615971565b615abb8186615a84565b94506001821660008114615ad65760018114615ae757615b1a565b60ff19831686528186019350615b1a565b615af085615a8f565b60005b83811015615b1257815481890152600182019150602081019050615af3565b838801955050505b50505092915050565b6000615b2f8287615a25565b602082019150615b3f8286615a6d565b601482019150615b4f8285615a6d565b601482019150615b5f8284615aa4565b915081905095945050505050565b6000615b7882615a49565b9050919050565b615b90615b8b8261505f565b615b6d565b82525050565b6000615ba28287615a25565b602082019150615bb28286615a6d565b601482019150615bc28285615b7f565b601482019150615bd28284615aa4565b915081905095945050505050565b6000615beb82614fc9565b91506000821415615bff57615bfe6159a3565b5b600182039050919050565b615c138161505f565b82525050565b6000604082019050615c2e60008301856158c0565b615c3b6020830184615c0a565b9392505050565b6000615c4d82614fc9565b9150615c5883614fc9565b925082821015615c6b57615c6a6159a3565b5b828203905092915050565b7f4e487b7100000000000000000000000000000000000000000000000000000000600052603160045260246000fd5b6000615cb18286615a25565b602082019150615cc18285615b7f565b601482019150615cd18284615a25565b602082019150819050949350505050565b7f4e487b7100000000000000000000000000000000000000000000000000000000600052601260045260246000fd5b6000615d1c82614fc9565b9150615d2783614fc9565b925082615d3757615d36615ce2565b5b82820690509291505056fea264697066735822122037ef32f2a37ff296db7f7c66380b6d9e06b2c9541c45d165a7865c0c2815981c64736f6c634300080b0033",
  "immutableReferences": {},
  "source": "pragma solidity >=0.4.24;\r\n\r\n//contracts\r\nimport \"./Consumer.sol\";\r\nimport \"./Distributor.sol\";\r\nimport \"./Manufacturer.sol\";\r\nimport \"./Retailer.sol\";\r\n\r\ncontract SupplyChain is Retailer, Consumer, Manufacturer, Distributor {\r\n    uint256[] composite;\r\n    mapping(uint256 => Item) items;\r\n    mapping(address => totalItems) ownership;\r\n    mapping(address => totalItems) shipped;\r\n    //mapping(uint256 => composite) mappingComposite;\r\n\r\n    uint256 randNonce = 0;\r\n\r\n    function randMod() internal returns (uint256) {\r\n        randNonce++;\r\n        return\r\n            uint256(\r\n                keccak256(\r\n                    abi.encodePacked(block.timestamp, msg.sender, randNonce)\r\n                )\r\n            ) % 82589933;\r\n    }\r\n\r\n    function deleteItem(uint256 _uin, address x) internal {\r\n        for (uint256 i = 0; i < ownership[x].itemUin.length; i++) {\r\n            if (_uin == ownership[x].itemUin[i]) {\r\n                ownership[x].itemUin[i] = ownership[x].itemUin[\r\n                    ownership[x].itemUin.length - 1\r\n                ];\r\n                ownership[x].itemUin.pop();\r\n                break;\r\n            }\r\n        }\r\n    }\r\n\r\n    function deleteItemshipped(uint256 _uin, address x) internal {\r\n        for (uint256 i = 0; i < shipped[x].itemUin.length; i++) {\r\n            if (_uin == shipped[x].itemUin[i]) {\r\n                shipped[x].itemUin[i] = shipped[x].itemUin[\r\n                    shipped[x].itemUin.length - 1\r\n                ];\r\n                shipped[x].itemUin.pop();\r\n                break;\r\n            }\r\n        }\r\n    }\r\n\r\n    enum State {\r\n        SProducedByManufacturer, //0\r\n        SForSaleByManufacturer, //1\r\n        SShippedByManufacturer, //2\r\n        SReceivedByDistributor, //3\r\n        SForSaleByDistributor, //4\r\n        SShippedByDistributor, //5\r\n        SReceivedByRetailer, //6\r\n        SForSaleByRetailer, //7\r\n        SShippedByRetailer, //8\r\n        SReceivedByCustomer, //9\r\n        SCollectibleForSaleByCustomer, //10\r\n        SShippedByCustomer, //11\r\n        SReceivedCollectibleByCustomer //12\r\n    }\r\n\r\n    State constant defaultState = State.SProducedByManufacturer;\r\n\r\n    struct totalItems {\r\n        uint256 count;\r\n        uint256[] itemUin;\r\n    }\r\n\r\n    struct Item {\r\n        uint256 uin;\r\n        string productName;\r\n        string productType;\r\n        string productDescription;\r\n        address payable manufacturerId;\r\n        address payable CurrentOwner;\r\n        address payable ShipTo;\r\n        uint256 productDate;\r\n        bool collectible;\r\n        bool composite;\r\n        bool visibility;\r\n        uint256 weight;\r\n        uint256 productPrice;\r\n        uint256 productHash;\r\n        State productState;\r\n    }\r\n\r\n    //Events\r\n\r\n    event EProducedByManufacturer(\r\n        uint256 indexed uin,\r\n        uint256 x,\r\n        address indexed y\r\n    );\r\n    event EForSaleByManufacturer(\r\n        uint256 indexed uin,\r\n        uint256 x,\r\n        address indexed y,\r\n        uint256 z\r\n    );\r\n    event EShippedByManufacturer(\r\n        uint256 indexed uin,\r\n        uint256 x,\r\n        address indexed y,\r\n        address indexed z\r\n    );\r\n    event EReceivedByDistributor(\r\n        uint256 indexed uin,\r\n        uint256 x,\r\n        address indexed y\r\n    );\r\n    event EForSaleByDistributor(\r\n        uint256 indexed uin,\r\n        uint256 x,\r\n        address indexed y,\r\n        uint256 z\r\n    );\r\n    event EShippedByDistributor(\r\n        uint256 indexed uin,\r\n        uint256 x,\r\n        address indexed y,\r\n        address indexed z\r\n    );\r\n    event EReceivedByRetailer(uint256 indexed uin, uint256 x, address y);\r\n    event EForSaleByRetailer(\r\n        uint256 indexed uin,\r\n        uint256 x,\r\n        address indexed y,\r\n        uint256 z\r\n    );\r\n    event EShippedByRetailer(\r\n        uint256 indexed uin,\r\n        uint256 x,\r\n        address indexed y,\r\n        address indexed z\r\n    );\r\n    event EReceivedByCustomer(uint256 indexed uin, uint256 x, address y);\r\n    event ECollectibleForSaleByCustomer(\r\n        uint256 indexed uin,\r\n        uint256 x,\r\n        address indexed y,\r\n        uint256 z\r\n    );\r\n    event EShippedtheCollectibleByCustomer(\r\n        uint256 indexed uin,\r\n        uint256 x,\r\n        address indexed y,\r\n        address indexed z\r\n    );\r\n    event EReceivedCollectibleByCustomer(\r\n        uint256 indexed uin,\r\n        uint256 x,\r\n        address indexed y\r\n    );\r\n\r\n    //Is Amount Equal\r\n    modifier paidEnough(uint256 _price) {\r\n        require(msg.value >= _price);\r\n        _;\r\n    }\r\n\r\n    //Return Extra value\r\n    modifier checkValue(uint256 _upc, address payable addressToFund) {\r\n        uint256 _price = items[_upc].productPrice;\r\n        uint256 amountToReturn = msg.value - _price;\r\n        addressToFund.transfer(amountToReturn);\r\n        _;\r\n    }\r\n\r\n    //Item State Modifiers\r\n    modifier MProducedByManufacturer(uint256 _uin) {\r\n        require(items[_uin].productState == State.SProducedByManufacturer);\r\n        _;\r\n    }\r\n\r\n    modifier MForSaleByManufacturer(uint256 _uin) {\r\n        require(items[_uin].productState == State.SForSaleByManufacturer);\r\n        _;\r\n    }\r\n\r\n    modifier MReceivedByDistributor(uint256 _uin) {\r\n        require(items[_uin].productState == State.SReceivedByDistributor);\r\n        _;\r\n    }\r\n\r\n    modifier MShippedByManufacturer(uint256 _uin) {\r\n        require(items[_uin].productState == State.SShippedByManufacturer);\r\n        _;\r\n    }\r\n\r\n    modifier MForSaleByDistributor(uint256 _uin) {\r\n        require(items[_uin].productState == State.SForSaleByDistributor);\r\n        _;\r\n    }\r\n\r\n    modifier MShippedByDistributor(uint256 _uin) {\r\n        require(items[_uin].productState == State.SShippedByDistributor);\r\n        _;\r\n    }\r\n\r\n    modifier MReceivedByRetailer(uint256 _uin) {\r\n        require(items[_uin].productState == State.SReceivedByRetailer);\r\n        _;\r\n    }\r\n\r\n    modifier MForSaleByRetailer(uint256 _uin) {\r\n        require(items[_uin].productState == State.SForSaleByRetailer);\r\n        _;\r\n    }\r\n\r\n    modifier MShippedByRetailer(uint256 _uin) {\r\n        require(items[_uin].productState == State.SShippedByRetailer);\r\n        _;\r\n    }\r\n\r\n    modifier MReceivedByCustomer(uint256 _uin) {\r\n        require(items[_uin].productState == State.SReceivedByCustomer);\r\n        _;\r\n    }\r\n\r\n    modifier MCollectibleForSaleByCustomer(uint256 _uin) {\r\n        require(\r\n            items[_uin].productState == State.SCollectibleForSaleByCustomer\r\n        );\r\n        _;\r\n    }\r\n\r\n    modifier MShippedCollectibleByCustomer(uint256 _uin) {\r\n        require(items[_uin].productState == State.SShippedByCustomer);\r\n        _;\r\n    }\r\n\r\n    modifier MReceivedCollectibleByCustomer(uint256 _uin) {\r\n        require(\r\n            items[_uin].productState == State.SReceivedCollectibleByCustomer\r\n        );\r\n        _;\r\n    }\r\n\r\n    modifier MisCollectible(uint256 _uin) {\r\n        require(items[_uin].collectible == true);\r\n        _;\r\n    }\r\n\r\n    modifier MVerifyCaller(uint256 _uin) {\r\n        require(\r\n            items[_uin].productHash ==\r\n                uint256(\r\n                    keccak256(\r\n                        abi.encodePacked(\r\n                            _uin,\r\n                            items[_uin].CurrentOwner,\r\n                            msg.sender,\r\n                            items[_uin].productName\r\n                        )\r\n                    )\r\n                )\r\n        );\r\n        _;\r\n    }\r\n\r\n    function getEntity() public view returns (uint256) {\r\n        if (isManufacturer(msg.sender)) {\r\n            return 1;\r\n        } else if (isDistributor(msg.sender)) {\r\n            return 2;\r\n        } else if (isRetailer(msg.sender)) {\r\n            return 3;\r\n        } else if (isConsumer(msg.sender)) {\r\n            return 4;\r\n        } else {\r\n            return 5;\r\n        }\r\n    }\r\n\r\n    // Step1\r\n    function producebymanufacturer(\r\n        string memory _ProductName,\r\n        string memory _ProductDesc,\r\n        string memory _ProductType,\r\n        bool _collectible,\r\n        uint256 weight\r\n    ) public onlyManufacturer(msg.sender) returns (uint256) {\r\n        uint256 uin = randMod();\r\n        address payable manufacturer = payable(msg.sender);\r\n        items[uin] = Item(\r\n            uin,\r\n            _ProductName,\r\n            _ProductType,\r\n            _ProductDesc,\r\n            manufacturer,\r\n            manufacturer,\r\n            payable(address(0)),\r\n            block.timestamp,\r\n            _collectible,\r\n            false,\r\n            false,\r\n            weight,\r\n            0,\r\n            0,\r\n            defaultState\r\n        );\r\n        ownership[manufacturer].count++;\r\n        ownership[manufacturer].itemUin.push(uin);\r\n        emit EProducedByManufacturer(uin, block.timestamp, msg.sender);\r\n        return (uin);\r\n    }\r\n\r\n    //Step2\r\n    function forsalebymanufacturer(uint256 uin, uint256 price)\r\n        public\r\n        onlyManufacturer(msg.sender)\r\n        MProducedByManufacturer(uin)\r\n    {\r\n        items[uin].visibility = true;\r\n        items[uin].productState = State.SForSaleByManufacturer;\r\n        items[uin].productPrice = price;\r\n        emit EForSaleByManufacturer(uin, block.timestamp, msg.sender, price);\r\n    }\r\n\r\n    //Step3\r\n\r\n    function shippedbymanufacturer(uint256 uin, address payable shipTo)\r\n        public\r\n        onlyManufacturer(msg.sender)\r\n        onlyDistributor(shipTo)\r\n        MForSaleByManufacturer(uin)\r\n    {\r\n        items[uin].productState = State.SShippedByManufacturer;\r\n        items[uin].ShipTo = shipTo;\r\n        shipped[shipTo].count++;\r\n        shipped[shipTo].itemUin.push(uin);\r\n        items[uin].productHash = uint256(\r\n            keccak256(\r\n                abi.encodePacked(\r\n                    uin,\r\n                    items[uin].CurrentOwner,\r\n                    shipTo,\r\n                    items[uin].productName\r\n                )\r\n            )\r\n        );\r\n        emit EShippedByManufacturer(uin, block.timestamp, msg.sender, shipTo);\r\n    }\r\n\r\n    //Step4\r\n\r\n    function receivedbydistributor(uint256 uin)\r\n        public\r\n        payable\r\n        onlyDistributor(msg.sender)\r\n        paidEnough(items[uin].productPrice)\r\n        MShippedByManufacturer(uin)\r\n        MVerifyCaller(uin)\r\n    //checkValue(items[uin].productPrice, payable(msg.sender))\r\n    {\r\n        items[uin].productState = State.SReceivedByDistributor;\r\n        items[uin].visibility = false;\r\n        items[uin].CurrentOwner.transfer(items[uin].productPrice);\r\n        deleteItem(uin, items[uin].CurrentOwner);\r\n        ownership[items[uin].CurrentOwner].count--;\r\n        items[uin].CurrentOwner = payable(msg.sender);\r\n        shipped[items[uin].CurrentOwner].count--;\r\n        deleteItemshipped(uin, items[uin].CurrentOwner);\r\n        items[uin].productPrice = 0;\r\n        ownership[msg.sender].count++;\r\n        ownership[msg.sender].itemUin.push(uin);\r\n        emit EReceivedByDistributor(uin, block.timestamp, msg.sender);\r\n    }\r\n\r\n    //Step5\r\n    function forsalebydistributor(uint256 uin, uint256 price)\r\n        public\r\n        onlyDistributor(msg.sender)\r\n        MReceivedByDistributor(uin)\r\n    {\r\n        items[uin].visibility = true;\r\n        items[uin].productState = State.SForSaleByDistributor;\r\n        items[uin].productPrice = price;\r\n        emit EForSaleByDistributor(uin, block.timestamp, msg.sender, price);\r\n    }\r\n\r\n    //Step6\r\n    function shippedbydistributor(uint256 uin, address payable shipTo)\r\n        public\r\n        onlyDistributor(msg.sender)\r\n        onlyRetailer(shipTo)\r\n        MForSaleByDistributor(uin)\r\n    {\r\n        items[uin].productState = State.SShippedByDistributor;\r\n        items[uin].ShipTo = shipTo;\r\n        shipped[shipTo].count++;\r\n        shipped[shipTo].itemUin.push(uin);\r\n        items[uin].productHash = uint256(\r\n            keccak256(\r\n                abi.encodePacked(\r\n                    uin,\r\n                    items[uin].CurrentOwner,\r\n                    shipTo,\r\n                    items[uin].productName\r\n                )\r\n            )\r\n        );\r\n        emit EShippedByDistributor(uin, block.timestamp, msg.sender, shipTo);\r\n    }\r\n\r\n    //Step7\r\n    function receivedbyretailer(uint256 uin)\r\n        public\r\n        payable\r\n        onlyRetailer(msg.sender)\r\n        paidEnough(items[uin].productPrice)\r\n        MShippedByDistributor(uin)\r\n        MVerifyCaller(uin)\r\n    {\r\n        items[uin].productState = State.SReceivedByRetailer;\r\n        items[uin].visibility = false;\r\n        items[uin].CurrentOwner.transfer(items[uin].productPrice);\r\n        ownership[items[uin].CurrentOwner].count--;\r\n        deleteItem(uin, items[uin].CurrentOwner);\r\n        items[uin].CurrentOwner = payable(msg.sender);\r\n        shipped[items[uin].CurrentOwner].count--;\r\n        deleteItemshipped(uin, items[uin].CurrentOwner);\r\n        items[uin].productPrice = 0;\r\n        ownership[msg.sender].count++;\r\n        ownership[msg.sender].itemUin.push(uin);\r\n        emit EReceivedByRetailer(uin, block.timestamp, msg.sender);\r\n    }\r\n\r\n    //Step8\r\n    function forsalebyretailer(uint256 uin, uint256 price)\r\n        public\r\n        onlyRetailer(msg.sender)\r\n        MReceivedByRetailer(uin)\r\n    {\r\n        items[uin].productState = State.SForSaleByRetailer;\r\n        items[uin].productPrice = price;\r\n        emit EForSaleByRetailer(uin, block.timestamp, msg.sender, price);\r\n    }\r\n\r\n    //Step9\r\n    function shippedbyretailer(uint256 uin, address payable shipTo)\r\n        public\r\n        onlyRetailer(msg.sender)\r\n        onlyConsumer(shipTo)\r\n        MForSaleByRetailer(uin)\r\n    {\r\n        items[uin].productState = State.SShippedByRetailer;\r\n        items[uin].ShipTo = shipTo;\r\n        shipped[shipTo].count++;\r\n        shipped[shipTo].itemUin.push(uin);\r\n        items[uin].productHash = uint256(\r\n            keccak256(\r\n                abi.encodePacked(\r\n                    uin,\r\n                    items[uin].CurrentOwner,\r\n                    shipTo,\r\n                    items[uin].productName\r\n                )\r\n            )\r\n        );\r\n        emit EShippedByRetailer(uin, block.timestamp, msg.sender, shipTo);\r\n    }\r\n\r\n    //Step10\r\n    function receivedbycustomer(uint256 uin)\r\n        public\r\n        payable\r\n        onlyConsumer(payable(msg.sender))\r\n        paidEnough(items[uin].productPrice)\r\n        MShippedByRetailer(uin)\r\n        MVerifyCaller(uin)\r\n    {\r\n        items[uin].productState = State.SReceivedByCustomer;\r\n        items[uin].visibility = false;\r\n        items[uin].CurrentOwner.transfer(items[uin].productPrice);\r\n        ownership[items[uin].CurrentOwner].count--;\r\n        deleteItem(uin, items[uin].CurrentOwner);\r\n        items[uin].CurrentOwner = payable(msg.sender);\r\n        shipped[items[uin].CurrentOwner].count--;\r\n        deleteItemshipped(uin, items[uin].CurrentOwner);\r\n        items[uin].productPrice = 0;\r\n        ownership[msg.sender].count++;\r\n        ownership[msg.sender].itemUin.push(uin);\r\n        emit EReceivedByCustomer(uin, block.timestamp, msg.sender);\r\n    }\r\n\r\n    //Step11\r\n    function collectibleforsalebycustomer(uint256 uin, uint256 price)\r\n        public\r\n        onlyConsumer(payable(msg.sender))\r\n        MReceivedByCustomer(uin)\r\n        MisCollectible(uin)\r\n    {\r\n        items[uin].productState = State.SCollectibleForSaleByCustomer;\r\n        items[uin].productPrice = price;\r\n        items[uin].visibility = true;\r\n        emit ECollectibleForSaleByCustomer(\r\n            uin,\r\n            block.timestamp,\r\n            msg.sender,\r\n            price\r\n        );\r\n    }\r\n\r\n    //Step12\r\n    function shippedcollectiblebycustomer(uint256 uin, address payable ShipTo)\r\n        public\r\n        onlyConsumer(payable(msg.sender))\r\n        onlyConsumer(ShipTo)\r\n        MCollectibleForSaleByCustomer(uin)\r\n    {\r\n        items[uin].productState = State.SShippedByCustomer;\r\n        items[uin].ShipTo = ShipTo;\r\n        shipped[ShipTo].count++;\r\n        shipped[ShipTo].itemUin.push(uin);\r\n        items[uin].productHash = uint256(\r\n            keccak256(\r\n                abi.encodePacked(\r\n                    uin,\r\n                    items[uin].CurrentOwner,\r\n                    ShipTo,\r\n                    items[uin].productName\r\n                )\r\n            )\r\n        );\r\n        emit EShippedtheCollectibleByCustomer(\r\n            uin,\r\n            block.timestamp,\r\n            msg.sender,\r\n            ShipTo\r\n        );\r\n    }\r\n\r\n    //Step13\r\n\r\n    function receivedcollectiblebycustomer(uint256 uin)\r\n        public\r\n        payable\r\n        onlyConsumer(payable(msg.sender))\r\n        MisCollectible(uin)\r\n        paidEnough(items[uin].productPrice)\r\n        MShippedCollectibleByCustomer(uin)\r\n        MVerifyCaller(uin)\r\n    {\r\n        items[uin].productState = State.SReceivedCollectibleByCustomer;\r\n        items[uin].visibility = false;\r\n        items[uin].CurrentOwner.transfer(items[uin].productPrice);\r\n        ownership[items[uin].CurrentOwner].count--;\r\n        deleteItem(uin, items[uin].CurrentOwner);\r\n        items[uin].CurrentOwner = payable(msg.sender);\r\n        shipped[items[uin].CurrentOwner].count--;\r\n        deleteItemshipped(uin, items[uin].CurrentOwner);\r\n        items[uin].productPrice = 0;\r\n        ownership[msg.sender].count++;\r\n        ownership[msg.sender].itemUin.push(uin);\r\n        emit EReceivedCollectibleByCustomer(uin, block.timestamp, msg.sender);\r\n    }\r\n\r\n    //Step 14\r\n    // function productDetail(uint256 uin)\r\n    //     public\r\n    //     view\r\n    //     returns (\r\n    //         uint256,\r\n    //         string memory,\r\n    //         string memory,\r\n    //         address,\r\n    //         address,\r\n    //         uint256,\r\n    //         uint256\r\n    //     )\r\n    // {\r\n    //     return (\r\n    //         items[uin].uin,\r\n    //         items[uin].productName,\r\n    //         items[uin].productDescription,\r\n    //         items[uin].manufacturerId,\r\n    //         items[uin].CurrentOwner,\r\n    //         items[uin].productDate,\r\n    //         items[uin].productPrice\r\n    //     );\r\n    // }\r\n\r\n    function productDetail(uint256 uin) public view returns (Item memory) {\r\n        return (items[uin]);\r\n    }\r\n\r\n    function getOwnedProducts(address z) public view returns (Item[] memory) {\r\n        Item[] memory item = new Item[](ownership[z].itemUin.length);\r\n        for (uint256 i = 0; i < ownership[z].itemUin.length; i++) {\r\n            Item storage x = items[ownership[z].itemUin[i]];\r\n            item[i] = x;\r\n        }\r\n        return item;\r\n    }\r\n\r\n    function getShippedProducts(address z) public view returns (Item[] memory) {\r\n        Item[] memory item = new Item[](shipped[z].itemUin.length);\r\n        for (uint256 i = 0; i < shipped[z].itemUin.length; i++) {\r\n            Item storage x = items[shipped[z].itemUin[i]];\r\n            item[i] = x;\r\n        }\r\n        return item;\r\n    }\r\n}\r\n\r\n//         uint256 uin\r\n//         string productName;\r\n//         string productDescription;\r\n//         address manufacturerId;\r\n//         address CurrentOwner;\r\n//         uint256 productDate;\r\n//         bool collectible;\r\n//         bool composite;\r\n//         uint weight;\r\n//         uint productPrice;\r\n//         byte32 productHash;\r\n//         State productState;\r\n",
  "sourcePath": "C:\\Users\\Dell\\Desktop\\Contracts\\projectApproach2\\truffle\\contracts\\SupplyChain.sol",
  "compiler": {
    "name": "solc",
    "version": "0.8.11+commit.d7f03943.Emscripten.clang"
  },
  "schemaVersion": "3.4.5",
  "updatedAt": "2022-03-19T08:34:36.061Z",
  "networkType": "ethereum",
  "devdoc": {
    "kind": "dev",
    "methods": {},
    "version": 1
  },
  "userdoc": {
    "kind": "user",
    "methods": {},
    "version": 1
  }
}