{
  "contractName": "SupplyChain",
  "abi": [
    {
      "anonymous": false,
      "inputs": [
        {
          "indexed": true,
          "internalType": "address",
          "name": "account",
          "type": "address"
        }
      ],
      "name": "ConsumerAdded",
      "type": "event"
    },
    {
      "anonymous": false,
      "inputs": [
        {
          "indexed": true,
          "internalType": "address",
          "name": "account",
          "type": "address"
        }
      ],
      "name": "ConsumerRemoved",
      "type": "event"
    },
    {
      "anonymous": false,
      "inputs": [
        {
          "indexed": true,
          "internalType": "address",
          "name": "account",
          "type": "address"
        }
      ],
      "name": "ConsumerReported",
      "type": "event"
    },
    {
      "anonymous": false,
      "inputs": [
        {
          "indexed": true,
          "internalType": "address",
          "name": "account",
          "type": "address"
        }
      ],
      "name": "ConsumerUnreported",
      "type": "event"
    },
    {
      "anonymous": false,
      "inputs": [
        {
          "indexed": true,
          "internalType": "address",
          "name": "account",
          "type": "address"
        }
      ],
      "name": "DistributorAdded",
      "type": "event"
    },
    {
      "anonymous": false,
      "inputs": [
        {
          "indexed": true,
          "internalType": "address",
          "name": "account",
          "type": "address"
        }
      ],
      "name": "DistributorRemoved",
      "type": "event"
    },
    {
      "anonymous": false,
      "inputs": [
        {
          "indexed": true,
          "internalType": "address",
          "name": "account",
          "type": "address"
        }
      ],
      "name": "DistributorReported",
      "type": "event"
    },
    {
      "anonymous": false,
      "inputs": [
        {
          "indexed": true,
          "internalType": "address",
          "name": "account",
          "type": "address"
        }
      ],
      "name": "DistributorUnreported",
      "type": "event"
    },
    {
      "anonymous": false,
      "inputs": [
        {
          "indexed": true,
          "internalType": "uint256",
          "name": "uin",
          "type": "uint256"
        },
        {
          "indexed": false,
          "internalType": "uint256",
          "name": "x",
          "type": "uint256"
        },
        {
          "indexed": true,
          "internalType": "address",
          "name": "y",
          "type": "address"
        },
        {
          "indexed": false,
          "internalType": "uint256",
          "name": "z",
          "type": "uint256"
        }
      ],
      "name": "ECollectibleForSaleByCustomer",
      "type": "event"
    },
    {
      "anonymous": false,
      "inputs": [
        {
          "indexed": true,
          "internalType": "uint256",
          "name": "uin",
          "type": "uint256"
        },
        {
          "indexed": false,
          "internalType": "uint256",
          "name": "x",
          "type": "uint256"
        },
        {
          "indexed": true,
          "internalType": "address",
          "name": "y",
          "type": "address"
        },
        {
          "indexed": false,
          "internalType": "uint256",
          "name": "z",
          "type": "uint256"
        }
      ],
      "name": "EForSaleByDistributor",
      "type": "event"
    },
    {
      "anonymous": false,
      "inputs": [
        {
          "indexed": true,
          "internalType": "uint256",
          "name": "uin",
          "type": "uint256"
        },
        {
          "indexed": false,
          "internalType": "uint256",
          "name": "x",
          "type": "uint256"
        },
        {
          "indexed": true,
          "internalType": "address",
          "name": "y",
          "type": "address"
        },
        {
          "indexed": false,
          "internalType": "uint256",
          "name": "z",
          "type": "uint256"
        }
      ],
      "name": "EForSaleByManufacturer",
      "type": "event"
    },
    {
      "anonymous": false,
      "inputs": [
        {
          "indexed": true,
          "internalType": "uint256",
          "name": "uin",
          "type": "uint256"
        },
        {
          "indexed": false,
          "internalType": "uint256",
          "name": "x",
          "type": "uint256"
        },
        {
          "indexed": true,
          "internalType": "address",
          "name": "y",
          "type": "address"
        },
        {
          "indexed": false,
          "internalType": "uint256",
          "name": "z",
          "type": "uint256"
        }
      ],
      "name": "EForSaleByRetailer",
      "type": "event"
    },
    {
      "anonymous": false,
      "inputs": [
        {
          "indexed": true,
          "internalType": "uint256",
          "name": "uin",
          "type": "uint256"
        },
        {
          "indexed": false,
          "internalType": "uint256",
          "name": "x",
          "type": "uint256"
        },
        {
          "indexed": true,
          "internalType": "address",
          "name": "y",
          "type": "address"
        }
      ],
      "name": "EProducedByManufacturer",
      "type": "event"
    },
    {
      "anonymous": false,
      "inputs": [
        {
          "indexed": true,
          "internalType": "uint256",
          "name": "uin",
          "type": "uint256"
        },
        {
          "indexed": false,
          "internalType": "uint256",
          "name": "x",
          "type": "uint256"
        },
        {
          "indexed": false,
          "internalType": "address",
          "name": "y",
          "type": "address"
        }
      ],
      "name": "EReceivedByCustomer",
      "type": "event"
    },
    {
      "anonymous": false,
      "inputs": [
        {
          "indexed": true,
          "internalType": "uint256",
          "name": "uin",
          "type": "uint256"
        },
        {
          "indexed": false,
          "internalType": "uint256",
          "name": "x",
          "type": "uint256"
        },
        {
          "indexed": true,
          "internalType": "address",
          "name": "y",
          "type": "address"
        }
      ],
      "name": "EReceivedByDistributor",
      "type": "event"
    },
    {
      "anonymous": false,
      "inputs": [
        {
          "indexed": true,
          "internalType": "uint256",
          "name": "uin",
          "type": "uint256"
        },
        {
          "indexed": false,
          "internalType": "uint256",
          "name": "x",
          "type": "uint256"
        },
        {
          "indexed": false,
          "internalType": "address",
          "name": "y",
          "type": "address"
        }
      ],
      "name": "EReceivedByRetailer",
      "type": "event"
    },
    {
      "anonymous": false,
      "inputs": [
        {
          "indexed": true,
          "internalType": "uint256",
          "name": "uin",
          "type": "uint256"
        },
        {
          "indexed": false,
          "internalType": "uint256",
          "name": "x",
          "type": "uint256"
        },
        {
          "indexed": true,
          "internalType": "address",
          "name": "y",
          "type": "address"
        }
      ],
      "name": "EReceivedCollectibleByCustomer",
      "type": "event"
    },
    {
      "anonymous": false,
      "inputs": [
        {
          "indexed": true,
          "internalType": "uint256",
          "name": "uin",
          "type": "uint256"
        },
        {
          "indexed": false,
          "internalType": "uint256",
          "name": "x",
          "type": "uint256"
        },
        {
          "indexed": true,
          "internalType": "address",
          "name": "y",
          "type": "address"
        },
        {
          "indexed": true,
          "internalType": "address",
          "name": "z",
          "type": "address"
        }
      ],
      "name": "EShippedByDistributor",
      "type": "event"
    },
    {
      "anonymous": false,
      "inputs": [
        {
          "indexed": true,
          "internalType": "uint256",
          "name": "uin",
          "type": "uint256"
        },
        {
          "indexed": false,
          "internalType": "uint256",
          "name": "x",
          "type": "uint256"
        },
        {
          "indexed": true,
          "internalType": "address",
          "name": "y",
          "type": "address"
        },
        {
          "indexed": true,
          "internalType": "address",
          "name": "z",
          "type": "address"
        }
      ],
      "name": "EShippedByManufacturer",
      "type": "event"
    },
    {
      "anonymous": false,
      "inputs": [
        {
          "indexed": true,
          "internalType": "uint256",
          "name": "uin",
          "type": "uint256"
        },
        {
          "indexed": false,
          "internalType": "uint256",
          "name": "x",
          "type": "uint256"
        },
        {
          "indexed": true,
          "internalType": "address",
          "name": "y",
          "type": "address"
        },
        {
          "indexed": true,
          "internalType": "address",
          "name": "z",
          "type": "address"
        }
      ],
      "name": "EShippedByRetailer",
      "type": "event"
    },
    {
      "anonymous": false,
      "inputs": [
        {
          "indexed": true,
          "internalType": "uint256",
          "name": "uin",
          "type": "uint256"
        },
        {
          "indexed": false,
          "internalType": "uint256",
          "name": "x",
          "type": "uint256"
        },
        {
          "indexed": true,
          "internalType": "address",
          "name": "y",
          "type": "address"
        },
        {
          "indexed": true,
          "internalType": "address",
          "name": "z",
          "type": "address"
        }
      ],
      "name": "EShippedtheCollectibleByCustomer",
      "type": "event"
    },
    {
      "anonymous": false,
      "inputs": [
        {
          "indexed": true,
          "internalType": "address",
          "name": "account",
          "type": "address"
        }
      ],
      "name": "ManufacturerAdded",
      "type": "event"
    },
    {
      "anonymous": false,
      "inputs": [
        {
          "indexed": true,
          "internalType": "address",
          "name": "account",
          "type": "address"
        }
      ],
      "name": "ManufacturerRemoved",
      "type": "event"
    },
    {
      "anonymous": false,
      "inputs": [
        {
          "indexed": true,
          "internalType": "address",
          "name": "account",
          "type": "address"
        }
      ],
      "name": "ManufacturerReported",
      "type": "event"
    },
    {
      "anonymous": false,
      "inputs": [
        {
          "indexed": true,
          "internalType": "address",
          "name": "account",
          "type": "address"
        }
      ],
      "name": "ManufacturerUnreported",
      "type": "event"
    },
    {
      "anonymous": false,
      "inputs": [
        {
          "indexed": true,
          "internalType": "address",
          "name": "account",
          "type": "address"
        }
      ],
      "name": "RetailerAdded",
      "type": "event"
    },
    {
      "anonymous": false,
      "inputs": [
        {
          "indexed": true,
          "internalType": "address",
          "name": "account",
          "type": "address"
        }
      ],
      "name": "RetailerRemoved",
      "type": "event"
    },
    {
      "anonymous": false,
      "inputs": [
        {
          "indexed": true,
          "internalType": "address",
          "name": "account",
          "type": "address"
        }
      ],
      "name": "RetailerReported",
      "type": "event"
    },
    {
      "anonymous": false,
      "inputs": [
        {
          "indexed": true,
          "internalType": "address",
          "name": "account",
          "type": "address"
        }
      ],
      "name": "RetailerUnreported",
      "type": "event"
    },
    {
      "inputs": [
        {
          "internalType": "address",
          "name": "account",
          "type": "address"
        }
      ],
      "name": "addConsumer",
      "outputs": [],
      "stateMutability": "nonpayable",
      "type": "function"
    },
    {
      "inputs": [
        {
          "internalType": "address",
          "name": "account",
          "type": "address"
        }
      ],
      "name": "addDistributor",
      "outputs": [],
      "stateMutability": "nonpayable",
      "type": "function"
    },
    {
      "inputs": [
        {
          "internalType": "address",
          "name": "account",
          "type": "address"
        }
      ],
      "name": "addManufacturer",
      "outputs": [],
      "stateMutability": "nonpayable",
      "type": "function"
    },
    {
      "inputs": [
        {
          "internalType": "address",
          "name": "account",
          "type": "address"
        }
      ],
      "name": "addRetailer",
      "outputs": [],
      "stateMutability": "nonpayable",
      "type": "function"
    },
    {
      "inputs": [
        {
          "internalType": "address",
          "name": "account",
          "type": "address"
        }
      ],
      "name": "isConsumer",
      "outputs": [
        {
          "internalType": "bool",
          "name": "",
          "type": "bool"
        }
      ],
      "stateMutability": "view",
      "type": "function",
      "constant": true
    },
    {
      "inputs": [
        {
          "internalType": "address",
          "name": "account",
          "type": "address"
        }
      ],
      "name": "isDistributor",
      "outputs": [
        {
          "internalType": "bool",
          "name": "",
          "type": "bool"
        }
      ],
      "stateMutability": "view",
      "type": "function",
      "constant": true
    },
    {
      "inputs": [
        {
          "internalType": "address",
          "name": "account",
          "type": "address"
        }
      ],
      "name": "isManufacturer",
      "outputs": [
        {
          "internalType": "bool",
          "name": "",
          "type": "bool"
        }
      ],
      "stateMutability": "view",
      "type": "function",
      "constant": true
    },
    {
      "inputs": [
        {
          "internalType": "address",
          "name": "account",
          "type": "address"
        }
      ],
      "name": "isRetailer",
      "outputs": [
        {
          "internalType": "bool",
          "name": "",
          "type": "bool"
        }
      ],
      "stateMutability": "view",
      "type": "function",
      "constant": true
    },
    {
      "inputs": [
        {
          "internalType": "address",
          "name": "account",
          "type": "address"
        }
      ],
      "name": "reportConsumer",
      "outputs": [],
      "stateMutability": "nonpayable",
      "type": "function"
    },
    {
      "inputs": [
        {
          "internalType": "address",
          "name": "account",
          "type": "address"
        }
      ],
      "name": "reportDistributor",
      "outputs": [],
      "stateMutability": "nonpayable",
      "type": "function"
    },
    {
      "inputs": [
        {
          "internalType": "address",
          "name": "account",
          "type": "address"
        }
      ],
      "name": "reportManufacturer",
      "outputs": [],
      "stateMutability": "nonpayable",
      "type": "function"
    },
    {
      "inputs": [
        {
          "internalType": "address",
          "name": "account",
          "type": "address"
        }
      ],
      "name": "reportRetailer",
      "outputs": [],
      "stateMutability": "nonpayable",
      "type": "function"
    },
    {
      "inputs": [
        {
          "internalType": "address",
          "name": "account",
          "type": "address"
        }
      ],
      "name": "unreportConsumer",
      "outputs": [],
      "stateMutability": "nonpayable",
      "type": "function"
    },
    {
      "inputs": [
        {
          "internalType": "address",
          "name": "account",
          "type": "address"
        }
      ],
      "name": "unreportDistributor",
      "outputs": [],
      "stateMutability": "nonpayable",
      "type": "function"
    },
    {
      "inputs": [
        {
          "internalType": "address",
          "name": "account",
          "type": "address"
        }
      ],
      "name": "unreportManufacturer",
      "outputs": [],
      "stateMutability": "nonpayable",
      "type": "function"
    },
    {
      "inputs": [
        {
          "internalType": "address",
          "name": "account",
          "type": "address"
        }
      ],
      "name": "unreportRetailer",
      "outputs": [],
      "stateMutability": "nonpayable",
      "type": "function"
    },
    {
      "inputs": [],
      "name": "getEntity",
      "outputs": [
        {
          "internalType": "uint256",
          "name": "",
          "type": "uint256"
        }
      ],
      "stateMutability": "view",
      "type": "function",
      "constant": true
    },
    {
      "inputs": [
        {
          "internalType": "string",
          "name": "_ProductName",
          "type": "string"
        },
        {
          "internalType": "string",
          "name": "_ProductDesc",
          "type": "string"
        },
        {
          "internalType": "string",
          "name": "_ProductType",
          "type": "string"
        },
        {
          "internalType": "bool",
          "name": "_collectible",
          "type": "bool"
        },
        {
          "internalType": "uint256",
          "name": "weight",
          "type": "uint256"
        }
      ],
      "name": "producebymanufacturer",
      "outputs": [
        {
          "internalType": "uint256",
          "name": "",
          "type": "uint256"
        }
      ],
      "stateMutability": "nonpayable",
      "type": "function"
    },
    {
      "inputs": [
        {
          "internalType": "uint256",
          "name": "uin",
          "type": "uint256"
        },
        {
          "internalType": "uint256",
          "name": "price",
          "type": "uint256"
        }
      ],
      "name": "forsalebymanufacturer",
      "outputs": [],
      "stateMutability": "nonpayable",
      "type": "function"
    },
    {
      "inputs": [
        {
          "internalType": "uint256",
          "name": "uin",
          "type": "uint256"
        },
        {
          "internalType": "address payable",
          "name": "shipTo",
          "type": "address"
        }
      ],
      "name": "shippedbymanufacturer",
      "outputs": [],
      "stateMutability": "nonpayable",
      "type": "function"
    },
    {
      "inputs": [
        {
          "internalType": "uint256",
          "name": "uin",
          "type": "uint256"
        }
      ],
      "name": "receivedbydistributor",
      "outputs": [],
      "stateMutability": "payable",
      "type": "function",
      "payable": true
    },
    {
      "inputs": [
        {
          "internalType": "uint256",
          "name": "uin",
          "type": "uint256"
        },
        {
          "internalType": "uint256",
          "name": "price",
          "type": "uint256"
        }
      ],
      "name": "forsalebydistributor",
      "outputs": [],
      "stateMutability": "nonpayable",
      "type": "function"
    },
    {
      "inputs": [
        {
          "internalType": "uint256",
          "name": "uin",
          "type": "uint256"
        },
        {
          "internalType": "address payable",
          "name": "shipTo",
          "type": "address"
        }
      ],
      "name": "shippedbydistributor",
      "outputs": [],
      "stateMutability": "nonpayable",
      "type": "function"
    },
    {
      "inputs": [
        {
          "internalType": "uint256",
          "name": "uin",
          "type": "uint256"
        }
      ],
      "name": "receivedbyretailer",
      "outputs": [],
      "stateMutability": "payable",
      "type": "function",
      "payable": true
    },
    {
      "inputs": [
        {
          "internalType": "uint256",
          "name": "uin",
          "type": "uint256"
        },
        {
          "internalType": "uint256",
          "name": "price",
          "type": "uint256"
        }
      ],
      "name": "forsalebyretailer",
      "outputs": [],
      "stateMutability": "nonpayable",
      "type": "function"
    },
    {
      "inputs": [
        {
          "internalType": "uint256",
          "name": "uin",
          "type": "uint256"
        },
        {
          "internalType": "address payable",
          "name": "shipTo",
          "type": "address"
        }
      ],
      "name": "shippedbyretailer",
      "outputs": [],
      "stateMutability": "nonpayable",
      "type": "function"
    },
    {
      "inputs": [
        {
          "internalType": "uint256",
          "name": "uin",
          "type": "uint256"
        }
      ],
      "name": "receivedbycustomer",
      "outputs": [],
      "stateMutability": "payable",
      "type": "function",
      "payable": true
    },
    {
      "inputs": [
        {
          "internalType": "uint256",
          "name": "uin",
          "type": "uint256"
        },
        {
          "internalType": "uint256",
          "name": "price",
          "type": "uint256"
        }
      ],
      "name": "collectibleforsalebycustomer",
      "outputs": [],
      "stateMutability": "nonpayable",
      "type": "function"
    },
    {
      "inputs": [
        {
          "internalType": "uint256",
          "name": "uin",
          "type": "uint256"
        },
        {
          "internalType": "address payable",
          "name": "ShipTo",
          "type": "address"
        }
      ],
      "name": "shippedcollectiblebycustomer",
      "outputs": [],
      "stateMutability": "nonpayable",
      "type": "function"
    },
    {
      "inputs": [
        {
          "internalType": "uint256",
          "name": "uin",
          "type": "uint256"
        }
      ],
      "name": "receivedcollectiblebycustomer",
      "outputs": [],
      "stateMutability": "payable",
      "type": "function",
      "payable": true
    },
    {
      "inputs": [
        {
          "internalType": "uint256",
          "name": "uin",
          "type": "uint256"
        }
      ],
      "name": "productDetail",
      "outputs": [
        {
          "internalType": "uint256",
          "name": "",
          "type": "uint256"
        },
        {
          "internalType": "string",
          "name": "",
          "type": "string"
        },
        {
          "internalType": "string",
          "name": "",
          "type": "string"
        },
        {
          "internalType": "address",
          "name": "",
          "type": "address"
        },
        {
          "internalType": "address",
          "name": "",
          "type": "address"
        },
        {
          "internalType": "uint256",
          "name": "",
          "type": "uint256"
        },
        {
          "internalType": "uint256",
          "name": "",
          "type": "uint256"
        }
      ],
      "stateMutability": "view",
      "type": "function",
      "constant": true
    },
    {
      "inputs": [],
      "name": "ownedItems",
      "outputs": [
        {
          "internalType": "uint256[]",
          "name": "",
          "type": "uint256[]"
        }
      ],
      "stateMutability": "view",
      "type": "function",
      "constant": true
    },
    {
      "inputs": [],
      "name": "shippedItems",
      "outputs": [
        {
          "internalType": "uint256[]",
          "name": "",
          "type": "uint256[]"
        }
      ],
      "stateMutability": "view",
      "type": "function",
      "constant": true
    }
  ],
  "bytecode": "0x60806040526000600d5534801561001557600080fd5b50336000806101000a81548173ffffffffffffffffffffffffffffffffffffffff021916908373ffffffffffffffffffffffffffffffffffffffff1602179055506149c2806100656000396000f3fe6080604052600436106101ee5760003560e01c8063834ff7391161010d578063b2c89009116100a0578063e4e376a41161006f578063e4e376a4146106a9578063ee6197cb146106d2578063f1b7f9ce146106fb578063f8bd330b14610738578063ff200d2b14610761576101ee565b8063b2c8900914610610578063b4bdb42514610639578063d60ec71214610662578063d9589fd11461068d576101ee565b806398968794116100dc57806398968794146105795780639e76a29314610595578063a3cb25e1146105be578063a4b2e157146105e7576101ee565b8063834ff739146104ba5780638ec4f505146104f75780638f0c86fa14610520578063933182971461055d576101ee565b806342f35885116101855780635f8a5afa116101545780635f8a5afa146104165780637250e2241461043f57806375dcdeb11461046857806381d2e95c14610491576101ee565b806342f358851461035157806352931de81461039457806355cf64b4146103bd5780635da09b88146103d9576101ee565b806317d4a491116101c157806317d4a49114610299578063250bb38c146102d65780632b182379146102ff5780632c5ee9bf14610328576101ee565b806301b8a64e146101f35780630fd22c841461021c57806310426ee914610245578063112940f914610270575b600080fd5b3480156101ff57600080fd5b5061021a60048036038101906102159190613f38565b61078c565b005b34801561022857600080fd5b50610243600480360381019061023e9190613fd6565b6108a5565b005b34801561025157600080fd5b5061025a6108b1565b60405161026791906140c1565b60405180910390f35b34801561027c57600080fd5b5061029760048036038101906102929190613fd6565b610949565b005b3480156102a557600080fd5b506102c060048036038101906102bb9190613fd6565b6109ad565b6040516102cd91906140fe565b60405180910390f35b3480156102e257600080fd5b506102fd60048036038101906102f89190614157565b6109ca565b005b34801561030b57600080fd5b5061032660048036038101906103219190614157565b610c9c565b005b34801561033457600080fd5b5061034f600480360381019061034a9190613fd6565b610f6e565b005b34801561035d57600080fd5b5061037860048036038101906103739190614197565b610f7a565b60405161038b979695949392919061427b565b60405180910390f35b3480156103a057600080fd5b506103bb60048036038101906103b69190613fd6565b611195565b005b6103d760048036038101906103d29190614197565b6111a1565b005b3480156103e557600080fd5b5061040060048036038101906103fb9190613fd6565b611621565b60405161040d91906140fe565b60405180910390f35b34801561042257600080fd5b5061043d60048036038101906104389190613fd6565b61163e565b005b34801561044b57600080fd5b5061046660048036038101906104619190613fd6565b6116a2565b005b34801561047457600080fd5b5061048f600480360381019061048a9190613fd6565b611706565b005b34801561049d57600080fd5b506104b860048036038101906104b39190613fd6565b611712565b005b3480156104c657600080fd5b506104e160048036038101906104dc9190613fd6565b61171e565b6040516104ee91906140fe565b60405180910390f35b34801561050357600080fd5b5061051e60048036038101906105199190613fd6565b61173b565b005b34801561052c57600080fd5b5061054760048036038101906105429190613fd6565b61179f565b60405161055491906140fe565b60405180910390f35b61057760048036038101906105729190614197565b6117bc565b005b610593600480360381019061058e9190614197565b611c72565b005b3480156105a157600080fd5b506105bc60048036038101906105b79190614157565b6120dd565b005b3480156105ca57600080fd5b506105e560048036038101906105e09190613fd6565b6123af565b005b3480156105f357600080fd5b5061060e60048036038101906106099190613f38565b6123bb565b005b34801561061c57600080fd5b5061063760048036038101906106329190613f38565b612503565b005b34801561064557600080fd5b50610660600480360381019061065b9190613f38565b612680565b005b34801561066e57600080fd5b506106776127c8565b60405161068491906140c1565b60405180910390f35b6106a760048036038101906106a29190614197565b612860565b005b3480156106b557600080fd5b506106d060048036038101906106cb9190613fd6565b612ccb565b005b3480156106de57600080fd5b506106f960048036038101906106f49190614157565b612cd7565b005b34801561070757600080fd5b50610722600480360381019061071d9190614459565b612fa9565b60405161072f9190614528565b60405180910390f35b34801561074457600080fd5b5061075f600480360381019061075a9190613fd6565b6133bd565b005b34801561076d57600080fd5b506107766133c9565b6040516107839190614528565b60405180910390f35b3361079681611621565b61079f57600080fd5b826006600c8111156107b4576107b3614543565b5b600a6000838152602001908152602001600020600c0160009054906101000a900460ff16600c8111156107ea576107e9614543565b5b146107f457600080fd5b6007600a6000868152602001908152602001600020600c0160006101000a81548160ff0219169083600c81111561082e5761082d614543565b5b021790555082600a6000868152602001908152602001600020600a01819055503373ffffffffffffffffffffffffffffffffffffffff16847f5deefb19e7e549a7e04121977fe61c27d9d2842fe25f92cec6ab2d9dfbb8cffe4286604051610897929190614572565b60405180910390a350505050565b6108ae8161342f565b50565b6060600b60003373ffffffffffffffffffffffffffffffffffffffff1673ffffffffffffffffffffffffffffffffffffffff16815260200190815260200160002060010180548060200260200160405190810160405280929190818152602001828054801561093f57602002820191906000526020600020905b81548152602001906001019080831161092b575b5050505050905090565b3373ffffffffffffffffffffffffffffffffffffffff1660008054906101000a900473ffffffffffffffffffffffffffffffffffffffff1673ffffffffffffffffffffffffffffffffffffffff16146109a157600080fd5b6109aa81613489565b50565b60006109c38260056134e390919063ffffffff16565b9050919050565b336109d48161171e565b6109dd57600080fd5b816109e78161171e565b6109f057600080fd5b83600a600c811115610a0557610a04614543565b5b600a6000838152602001908152602001600020600c0160009054906101000a900460ff16600c811115610a3b57610a3a614543565b5b14610a4557600080fd5b600b600a6000878152602001908152602001600020600c0160006101000a81548160ff0219169083600c811115610a7f57610a7e614543565b5b021790555083600a600087815260200190815260200160002060060160006101000a81548173ffffffffffffffffffffffffffffffffffffffff021916908373ffffffffffffffffffffffffffffffffffffffff160217905550600c60008573ffffffffffffffffffffffffffffffffffffffff1673ffffffffffffffffffffffffffffffffffffffff1681526020019081526020016000206000016000815480929190610b2c906145ca565b9190505550600c60008573ffffffffffffffffffffffffffffffffffffffff1673ffffffffffffffffffffffffffffffffffffffff16815260200190815260200160002060010185908060018154018082558091505060019003906000526020600020016000909190919091505584600a600087815260200190815260200160002060050160009054906101000a900473ffffffffffffffffffffffffffffffffffffffff1685600a6000898152602001908152602001600020600101604051602001610bfc949392919061477c565b6040516020818303038152906040528051906020012060001c600a6000878152602001908152602001600020600b01819055508373ffffffffffffffffffffffffffffffffffffffff163373ffffffffffffffffffffffffffffffffffffffff16867fc188b500118c60ef4779ac03c68763ffbdb2be1f6c016872c9e9db545cd7c92f42604051610c8d9190614528565b60405180910390a45050505050565b33610ca681611621565b610caf57600080fd5b81610cb98161171e565b610cc257600080fd5b836007600c811115610cd757610cd6614543565b5b600a6000838152602001908152602001600020600c0160009054906101000a900460ff16600c811115610d0d57610d0c614543565b5b14610d1757600080fd5b6008600a6000878152602001908152602001600020600c0160006101000a81548160ff0219169083600c811115610d5157610d50614543565b5b021790555083600a600087815260200190815260200160002060060160006101000a81548173ffffffffffffffffffffffffffffffffffffffff021916908373ffffffffffffffffffffffffffffffffffffffff160217905550600c60008573ffffffffffffffffffffffffffffffffffffffff1673ffffffffffffffffffffffffffffffffffffffff1681526020019081526020016000206000016000815480929190610dfe906145ca565b9190505550600c60008573ffffffffffffffffffffffffffffffffffffffff1673ffffffffffffffffffffffffffffffffffffffff16815260200190815260200160002060010185908060018154018082558091505060019003906000526020600020016000909190919091505584600a600087815260200190815260200160002060050160009054906101000a900473ffffffffffffffffffffffffffffffffffffffff1685600a6000898152602001908152602001600020600101604051602001610ece949392919061477c565b6040516020818303038152906040528051906020012060001c600a6000878152602001908152602001600020600b01819055508373ffffffffffffffffffffffffffffffffffffffff163373ffffffffffffffffffffffffffffffffffffffff16867fff4edcb43f0794bbff4e154b1d284970e59c24e8100f6439c1cecaf0b87eb09042604051610f5f9190614528565b60405180910390a45050505050565b610f7781613575565b50565b6000606080600080600080600a600089815260200190815260200160002060000154600a60008a8152602001908152602001600020600101600a60008b8152602001908152602001600020600301600a60008c815260200190815260200160002060040160009054906101000a900473ffffffffffffffffffffffffffffffffffffffff16600a60008d815260200190815260200160002060050160009054906101000a900473ffffffffffffffffffffffffffffffffffffffff16600a60008e815260200190815260200160002060070154600a60008f8152602001908152602001600020600a0154858054611070906146ab565b80601f016020809104026020016040519081016040528092919081815260200182805461109c906146ab565b80156110e95780601f106110be576101008083540402835291602001916110e9565b820191906000526020600020905b8154815290600101906020018083116110cc57829003601f168201915b505050505095508480546110fc906146ab565b80601f0160208091040260200160405190810160405280929190818152602001828054611128906146ab565b80156111755780601f1061114a57610100808354040283529160200191611175565b820191906000526020600020905b81548152906001019060200180831161115857829003601f168201915b505050505094509650965096509650965096509650919395979092949650565b61119e816135cf565b50565b336111ab8161179f565b6111b457600080fd5b600a6000838152602001908152602001600020600a0154803410156111d857600080fd5b826002600c8111156111ed576111ec614543565b5b600a6000838152602001908152602001600020600c0160009054906101000a900460ff16600c81111561122357611222614543565b5b1461122d57600080fd5b8380600a600083815260200190815260200160002060050160009054906101000a900473ffffffffffffffffffffffffffffffffffffffff1633600a600085815260200190815260200160002060010160405160200161129094939291906147ef565b6040516020818303038152906040528051906020012060001c600a6000838152602001908152602001600020600b0154146112ca57600080fd5b6003600a6000878152602001908152602001600020600c0160006101000a81548160ff0219169083600c81111561130457611303614543565b5b02179055506000600a600087815260200190815260200160002060080160026101000a81548160ff021916908315150217905550600a600086815260200190815260200160002060050160009054906101000a900473ffffffffffffffffffffffffffffffffffffffff1673ffffffffffffffffffffffffffffffffffffffff166108fc600a6000888152602001908152602001600020600a01549081150290604051600060405180830381858888f193505050501580156113ca573d6000803e3d6000fd5b5061140b85600a600088815260200190815260200160002060050160009054906101000a900473ffffffffffffffffffffffffffffffffffffffff16613629565b600b6000600a600088815260200190815260200160002060050160009054906101000a900473ffffffffffffffffffffffffffffffffffffffff1673ffffffffffffffffffffffffffffffffffffffff1673ffffffffffffffffffffffffffffffffffffffff168152602001908152602001600020600001600081548092919061149490614839565b919050555033600a600087815260200190815260200160002060050160006101000a81548173ffffffffffffffffffffffffffffffffffffffff021916908373ffffffffffffffffffffffffffffffffffffffff1602179055506000600a6000878152602001908152602001600020600a0181905550600b60003373ffffffffffffffffffffffffffffffffffffffff1673ffffffffffffffffffffffffffffffffffffffff168152602001908152602001600020600001600081548092919061155d906145ca565b9190505550600b60003373ffffffffffffffffffffffffffffffffffffffff1673ffffffffffffffffffffffffffffffffffffffff1681526020019081526020016000206001018590806001815401808255809150506001900390600052602060002001600090919091909150553373ffffffffffffffffffffffffffffffffffffffff16857f28d2d7e57b87b5cd5e17a265773ce73b97b3d2e4595bc6239f69bb0915536d59426040516116129190614528565b60405180910390a35050505050565b60006116378260016134e390919063ffffffff16565b9050919050565b3373ffffffffffffffffffffffffffffffffffffffff1660008054906101000a900473ffffffffffffffffffffffffffffffffffffffff1673ffffffffffffffffffffffffffffffffffffffff161461169657600080fd5b61169f816138c1565b50565b3373ffffffffffffffffffffffffffffffffffffffff1660008054906101000a900473ffffffffffffffffffffffffffffffffffffffff1673ffffffffffffffffffffffffffffffffffffffff16146116fa57600080fd5b6117038161391b565b50565b61170f81613975565b50565b61171b816139cf565b50565b60006117348260036134e390919063ffffffff16565b9050919050565b3373ffffffffffffffffffffffffffffffffffffffff1660008054906101000a900473ffffffffffffffffffffffffffffffffffffffff1673ffffffffffffffffffffffffffffffffffffffff161461179357600080fd5b61179c81613a29565b50565b60006117b58260076134e390919063ffffffff16565b9050919050565b336117c68161171e565b6117cf57600080fd5b8160011515600a600083815260200190815260200160002060080160009054906101000a900460ff1615151461180457600080fd5b600a6000848152602001908152602001600020600a01548034101561182857600080fd5b83600b600c81111561183d5761183c614543565b5b600a6000838152602001908152602001600020600c0160009054906101000a900460ff16600c81111561187357611872614543565b5b1461187d57600080fd5b8480600a600083815260200190815260200160002060050160009054906101000a900473ffffffffffffffffffffffffffffffffffffffff1633600a60008581526020019081526020016000206001016040516020016118e094939291906147ef565b6040516020818303038152906040528051906020012060001c600a6000838152602001908152602001600020600b01541461191a57600080fd5b600c600a6000888152602001908152602001600020600c0160006101000a81548160ff0219169083600c81111561195457611953614543565b5b02179055506000600a600088815260200190815260200160002060080160026101000a81548160ff021916908315150217905550600a600087815260200190815260200160002060050160009054906101000a900473ffffffffffffffffffffffffffffffffffffffff1673ffffffffffffffffffffffffffffffffffffffff166108fc600a6000898152602001908152602001600020600a01549081150290604051600060405180830381858888f19350505050158015611a1a573d6000803e3d6000fd5b50600b6000600a600089815260200190815260200160002060050160009054906101000a900473ffffffffffffffffffffffffffffffffffffffff1673ffffffffffffffffffffffffffffffffffffffff1673ffffffffffffffffffffffffffffffffffffffff1681526020019081526020016000206000016000815480929190611aa490614839565b9190505550611ae986600a600089815260200190815260200160002060050160009054906101000a900473ffffffffffffffffffffffffffffffffffffffff16613629565b33600a600088815260200190815260200160002060050160006101000a81548173ffffffffffffffffffffffffffffffffffffffff021916908373ffffffffffffffffffffffffffffffffffffffff1602179055506000600a6000888152602001908152602001600020600a0181905550600b60003373ffffffffffffffffffffffffffffffffffffffff1673ffffffffffffffffffffffffffffffffffffffff1681526020019081526020016000206000016000815480929190611bad906145ca565b9190505550600b60003373ffffffffffffffffffffffffffffffffffffffff1673ffffffffffffffffffffffffffffffffffffffff1681526020019081526020016000206001018690806001815401808255809150506001900390600052602060002001600090919091909150553373ffffffffffffffffffffffffffffffffffffffff16867fab24060fff978f4fefd01f7c5907e6b14f60d643e4c578a1cc8b17299cff134042604051611c629190614528565b60405180910390a3505050505050565b33611c7c8161171e565b611c8557600080fd5b600a6000838152602001908152602001600020600a015480341015611ca957600080fd5b826008600c811115611cbe57611cbd614543565b5b600a6000838152602001908152602001600020600c0160009054906101000a900460ff16600c811115611cf457611cf3614543565b5b14611cfe57600080fd5b8380600a600083815260200190815260200160002060050160009054906101000a900473ffffffffffffffffffffffffffffffffffffffff1633600a6000858152602001908152602001600020600101604051602001611d6194939291906147ef565b6040516020818303038152906040528051906020012060001c600a6000838152602001908152602001600020600b015414611d9b57600080fd5b6009600a6000878152602001908152602001600020600c0160006101000a81548160ff0219169083600c811115611dd557611dd4614543565b5b02179055506000600a600087815260200190815260200160002060080160026101000a81548160ff021916908315150217905550600a600086815260200190815260200160002060050160009054906101000a900473ffffffffffffffffffffffffffffffffffffffff1673ffffffffffffffffffffffffffffffffffffffff166108fc600a6000888152602001908152602001600020600a01549081150290604051600060405180830381858888f19350505050158015611e9b573d6000803e3d6000fd5b50600b6000600a600088815260200190815260200160002060050160009054906101000a900473ffffffffffffffffffffffffffffffffffffffff1673ffffffffffffffffffffffffffffffffffffffff1673ffffffffffffffffffffffffffffffffffffffff1681526020019081526020016000206000016000815480929190611f2590614839565b9190505550611f6a85600a600088815260200190815260200160002060050160009054906101000a900473ffffffffffffffffffffffffffffffffffffffff16613629565b33600a600087815260200190815260200160002060050160006101000a81548173ffffffffffffffffffffffffffffffffffffffff021916908373ffffffffffffffffffffffffffffffffffffffff1602179055506000600a6000878152602001908152602001600020600a0181905550600b60003373ffffffffffffffffffffffffffffffffffffffff1673ffffffffffffffffffffffffffffffffffffffff168152602001908152602001600020600001600081548092919061202e906145ca565b9190505550600b60003373ffffffffffffffffffffffffffffffffffffffff1673ffffffffffffffffffffffffffffffffffffffff168152602001908152602001600020600101859080600181540180825580915050600190039060005260206000200160009091909190915055847f0d607424e7c8d7272e3adc76ab8e220c0de7a8c179d358e62ac8b7b22a55792242336040516120ce929190614863565b60405180910390a25050505050565b336120e7816109ad565b6120f057600080fd5b816120fa8161179f565b61210357600080fd5b836001600c81111561211857612117614543565b5b600a6000838152602001908152602001600020600c0160009054906101000a900460ff16600c81111561214e5761214d614543565b5b1461215857600080fd5b6002600a6000878152602001908152602001600020600c0160006101000a81548160ff0219169083600c81111561219257612191614543565b5b021790555083600a600087815260200190815260200160002060060160006101000a81548173ffffffffffffffffffffffffffffffffffffffff021916908373ffffffffffffffffffffffffffffffffffffffff160217905550600c60008573ffffffffffffffffffffffffffffffffffffffff1673ffffffffffffffffffffffffffffffffffffffff168152602001908152602001600020600001600081548092919061223f906145ca565b9190505550600c60008573ffffffffffffffffffffffffffffffffffffffff1673ffffffffffffffffffffffffffffffffffffffff16815260200190815260200160002060010185908060018154018082558091505060019003906000526020600020016000909190919091505584600a600087815260200190815260200160002060050160009054906101000a900473ffffffffffffffffffffffffffffffffffffffff1685600a600089815260200190815260200160002060010160405160200161230f949392919061477c565b6040516020818303038152906040528051906020012060001c600a6000878152602001908152602001600020600b01819055508373ffffffffffffffffffffffffffffffffffffffff163373ffffffffffffffffffffffffffffffffffffffff16867fef1cb90ab53defb050ecdf1bec6f745742f554e1b09526e39f960d571cd1f3bd426040516123a09190614528565b60405180910390a45050505050565b6123b881613a83565b50565b336123c58161179f565b6123ce57600080fd5b826003600c8111156123e3576123e2614543565b5b600a6000838152602001908152602001600020600c0160009054906101000a900460ff16600c81111561241957612418614543565b5b1461242357600080fd5b6001600a600086815260200190815260200160002060080160026101000a81548160ff0219169083151502179055506004600a6000868152602001908152602001600020600c0160006101000a81548160ff0219169083600c81111561248c5761248b614543565b5b021790555082600a6000868152602001908152602001600020600a01819055503373ffffffffffffffffffffffffffffffffffffffff16847f02b81c1405d612f3db14b449985a4aabdff28384bb7e12c5e4c4aa9fa1e9f9af42866040516124f5929190614572565b60405180910390a350505050565b3361250d8161171e565b61251657600080fd5b826009600c81111561252b5761252a614543565b5b600a6000838152602001908152602001600020600c0160009054906101000a900460ff16600c81111561256157612560614543565b5b1461256b57600080fd5b8360011515600a600083815260200190815260200160002060080160009054906101000a900460ff161515146125a057600080fd5b600a806000878152602001908152602001600020600c0160006101000a81548160ff0219169083600c8111156125d9576125d8614543565b5b021790555083600a6000878152602001908152602001600020600a01819055506001600a600087815260200190815260200160002060080160026101000a81548160ff0219169083151502179055503373ffffffffffffffffffffffffffffffffffffffff16857f15f96be6e4c7b03490c8220da8251fffd4f5f08ba5a8713a96c746c1b71d25474287604051612671929190614572565b60405180910390a35050505050565b3361268a816109ad565b61269357600080fd5b826000600c8111156126a8576126a7614543565b5b600a6000838152602001908152602001600020600c0160009054906101000a900460ff16600c8111156126de576126dd614543565b5b146126e857600080fd5b6001600a600086815260200190815260200160002060080160026101000a81548160ff0219169083151502179055506001600a6000868152602001908152602001600020600c0160006101000a81548160ff0219169083600c81111561275157612750614543565b5b021790555082600a6000868152602001908152602001600020600a01819055503373ffffffffffffffffffffffffffffffffffffffff16847f191580e268a8474c31b11f8958417d1f71b35d25884cd5e49ab272d6faaa01b542866040516127ba929190614572565b60405180910390a350505050565b6060600c60003373ffffffffffffffffffffffffffffffffffffffff1673ffffffffffffffffffffffffffffffffffffffff16815260200190815260200160002060010180548060200260200160405190810160405280929190818152602001828054801561285657602002820191906000526020600020905b815481526020019060010190808311612842575b5050505050905090565b3361286a81611621565b61287357600080fd5b600a6000838152602001908152602001600020600a01548034101561289757600080fd5b826005600c8111156128ac576128ab614543565b5b600a6000838152602001908152602001600020600c0160009054906101000a900460ff16600c8111156128e2576128e1614543565b5b146128ec57600080fd5b8380600a600083815260200190815260200160002060050160009054906101000a900473ffffffffffffffffffffffffffffffffffffffff1633600a600085815260200190815260200160002060010160405160200161294f94939291906147ef565b6040516020818303038152906040528051906020012060001c600a6000838152602001908152602001600020600b01541461298957600080fd5b6006600a6000878152602001908152602001600020600c0160006101000a81548160ff0219169083600c8111156129c3576129c2614543565b5b02179055506000600a600087815260200190815260200160002060080160026101000a81548160ff021916908315150217905550600a600086815260200190815260200160002060050160009054906101000a900473ffffffffffffffffffffffffffffffffffffffff1673ffffffffffffffffffffffffffffffffffffffff166108fc600a6000888152602001908152602001600020600a01549081150290604051600060405180830381858888f19350505050158015612a89573d6000803e3d6000fd5b50600b6000600a600088815260200190815260200160002060050160009054906101000a900473ffffffffffffffffffffffffffffffffffffffff1673ffffffffffffffffffffffffffffffffffffffff1673ffffffffffffffffffffffffffffffffffffffff1681526020019081526020016000206000016000815480929190612b1390614839565b9190505550612b5885600a600088815260200190815260200160002060050160009054906101000a900473ffffffffffffffffffffffffffffffffffffffff16613629565b33600a600087815260200190815260200160002060050160006101000a81548173ffffffffffffffffffffffffffffffffffffffff021916908373ffffffffffffffffffffffffffffffffffffffff1602179055506000600a6000878152602001908152602001600020600a0181905550600b60003373ffffffffffffffffffffffffffffffffffffffff1673ffffffffffffffffffffffffffffffffffffffff1681526020019081526020016000206000016000815480929190612c1c906145ca565b9190505550600b60003373ffffffffffffffffffffffffffffffffffffffff1673ffffffffffffffffffffffffffffffffffffffff168152602001908152602001600020600101859080600181540180825580915050600190039060005260206000200160009091909190915055847f568f99bfa0294af6be0e3aafa4f1109a23175d03006f5e4341622b2e3ce5c1a44233604051612cbc929190614863565b60405180910390a25050505050565b612cd481613add565b50565b33612ce18161179f565b612cea57600080fd5b81612cf481611621565b612cfd57600080fd5b836004600c811115612d1257612d11614543565b5b600a6000838152602001908152602001600020600c0160009054906101000a900460ff16600c811115612d4857612d47614543565b5b14612d5257600080fd5b6005600a6000878152602001908152602001600020600c0160006101000a81548160ff0219169083600c811115612d8c57612d8b614543565b5b021790555083600a600087815260200190815260200160002060060160006101000a81548173ffffffffffffffffffffffffffffffffffffffff021916908373ffffffffffffffffffffffffffffffffffffffff160217905550600c60008573ffffffffffffffffffffffffffffffffffffffff1673ffffffffffffffffffffffffffffffffffffffff1681526020019081526020016000206000016000815480929190612e39906145ca565b9190505550600c60008573ffffffffffffffffffffffffffffffffffffffff1673ffffffffffffffffffffffffffffffffffffffff16815260200190815260200160002060010185908060018154018082558091505060019003906000526020600020016000909190919091505584600a600087815260200190815260200160002060050160009054906101000a900473ffffffffffffffffffffffffffffffffffffffff1685600a6000898152602001908152602001600020600101604051602001612f09949392919061477c565b6040516020818303038152906040528051906020012060001c600a6000878152602001908152602001600020600b01819055508373ffffffffffffffffffffffffffffffffffffffff163373ffffffffffffffffffffffffffffffffffffffff16867ff0085f598ab3ac050dca19ea301994110bdc7e266c0baf0ac5d4604dadd913d242604051612f9a9190614528565b60405180910390a45050505050565b600033612fb5816109ad565b612fbe57600080fd5b6000612fc8613b37565b90506000339050604051806101e001604052808381526020018a81526020018881526020018981526020018273ffffffffffffffffffffffffffffffffffffffff1681526020018273ffffffffffffffffffffffffffffffffffffffff168152602001600073ffffffffffffffffffffffffffffffffffffffff168152602001428152602001871515815260200160001515815260200160001515815260200186815260200160008152602001600081526020016000600c8111156130905761308f614543565b5b815250600a60008481526020019081526020016000206000820151816000015560208201518160010190805190602001906130cc929190613e4b565b5060408201518160020190805190602001906130e9929190613e4b565b506060820151816003019080519060200190613106929190613e4b565b5060808201518160040160006101000a81548173ffffffffffffffffffffffffffffffffffffffff021916908373ffffffffffffffffffffffffffffffffffffffff16021790555060a08201518160050160006101000a81548173ffffffffffffffffffffffffffffffffffffffff021916908373ffffffffffffffffffffffffffffffffffffffff16021790555060c08201518160060160006101000a81548173ffffffffffffffffffffffffffffffffffffffff021916908373ffffffffffffffffffffffffffffffffffffffff16021790555060e082015181600701556101008201518160080160006101000a81548160ff0219169083151502179055506101208201518160080160016101000a81548160ff0219169083151502179055506101408201518160080160026101000a81548160ff021916908315150217905550610160820151816009015561018082015181600a01556101a082015181600b01556101c082015181600c0160006101000a81548160ff0219169083600c81111561329657613295614543565b5b0217905550905050600b60008273ffffffffffffffffffffffffffffffffffffffff1673ffffffffffffffffffffffffffffffffffffffff16815260200190815260200160002060000160008154809291906132f1906145ca565b9190505550600b60008273ffffffffffffffffffffffffffffffffffffffff1673ffffffffffffffffffffffffffffffffffffffff1681526020019081526020016000206001018290806001815401808255809150506001900390600052602060002001600090919091909150553373ffffffffffffffffffffffffffffffffffffffff16827f5927e9cc693825f286f7181d772897345cef501932018aa4196ad97926cd5424426040516133a69190614528565b60405180910390a381935050505095945050505050565b6133c681613b95565b50565b60006133d4336109ad565b156133e2576001905061342c565b6133eb3361179f565b156133f9576002905061342c565b61340233611621565b15613410576003905061342c565b6134193361171e565b15613427576004905061342c565b600590505b90565b613443816001613bef90919063ffffffff16565b8073ffffffffffffffffffffffffffffffffffffffff167fe0bf0e8509bb65b00de9afcbc3870546ee37f1442ebfd9fe4211362ceb9dbce360405160405180910390a250565b61349d816003613c9a90919063ffffffff16565b8073ffffffffffffffffffffffffffffffffffffffff167f28b26e7a3d20aedbc5f8f2ebf7da671c0491723a2b78f47a097b0e46dee0714260405160405180910390a250565b60008073ffffffffffffffffffffffffffffffffffffffff168273ffffffffffffffffffffffffffffffffffffffff16141561351e57600080fd5b8260000160008373ffffffffffffffffffffffffffffffffffffffff1673ffffffffffffffffffffffffffffffffffffffff16815260200190815260200160002060009054906101000a900460ff16905092915050565b613589816003613da090919063ffffffff16565b8073ffffffffffffffffffffffffffffffffffffffff167f32dc543199df7e5ecd26e37915c895ccf94e87339d27cfe42886e67b06070fa960405160405180910390a250565b6135e3816007613da090919063ffffffff16565b8073ffffffffffffffffffffffffffffffffffffffff167fe1b1b06fc90496227fbac1fb1445a73dc0b50ffe20541bc439caf054e130f2dd60405160405180910390a250565b60005b600b60008373ffffffffffffffffffffffffffffffffffffffff1673ffffffffffffffffffffffffffffffffffffffff1681526020019081526020016000206001018054905081101561380957600b60008373ffffffffffffffffffffffffffffffffffffffff1673ffffffffffffffffffffffffffffffffffffffff16815260200190815260200160002060010181815481106136cd576136cc61488c565b5b90600052602060002001548314156137f657600b60008373ffffffffffffffffffffffffffffffffffffffff1673ffffffffffffffffffffffffffffffffffffffff1681526020019081526020016000206001016001600b60008573ffffffffffffffffffffffffffffffffffffffff1673ffffffffffffffffffffffffffffffffffffffff1681526020019081526020016000206001018054905061377391906148bb565b815481106137845761378361488c565b5b9060005260206000200154600b60008473ffffffffffffffffffffffffffffffffffffffff1673ffffffffffffffffffffffffffffffffffffffff16815260200190815260200160002060010182815481106137e3576137e261488c565b5b9060005260206000200181905550613809565b8080613801906145ca565b91505061362c565b50600b60008273ffffffffffffffffffffffffffffffffffffffff1673ffffffffffffffffffffffffffffffffffffffff1681526020019081526020016000206001016001600b60008473ffffffffffffffffffffffffffffffffffffffff1673ffffffffffffffffffffffffffffffffffffffff1681526020019081526020016000206001018054905061389e91906148bb565b815481106138af576138ae61488c565b5b90600052602060002001600090555050565b6138d5816005613c9a90919063ffffffff16565b8073ffffffffffffffffffffffffffffffffffffffff167f561138658ca49a8540dc70dcfe64c9026c1c5b9344642242dd6562970f9c127860405160405180910390a250565b61392f816007613c9a90919063ffffffff16565b8073ffffffffffffffffffffffffffffffffffffffff167fddbf200aa634dc3fb81cfd68583dd1040d1c751d335e1d86b631bde3e977fea860405160405180910390a250565b613989816003613bef90919063ffffffff16565b8073ffffffffffffffffffffffffffffffffffffffff167f32be4a8d8826ffe9dc8a86625dc3a215b00e3d5820fcc2d92ff5487356f5cab060405160405180910390a250565b6139e3816007613bef90919063ffffffff16565b8073ffffffffffffffffffffffffffffffffffffffff167f5ba057f6859f45b8bf9055bb78466867ffa8b7b7b3eac0e39c132390fa15630b60405160405180910390a250565b613a3d816001613c9a90919063ffffffff16565b8073ffffffffffffffffffffffffffffffffffffffff167f71ae26cad02663e3d92efd6ec56031a80d74a20c0ab4183faa8bf262261c9baa60405160405180910390a250565b613a97816005613bef90919063ffffffff16565b8073ffffffffffffffffffffffffffffffffffffffff167fd5343fb03455ce242a0f2aa16059f1b1036283c9220e28e631c46f1d6c55f89560405160405180910390a250565b613af1816005613da090919063ffffffff16565b8073ffffffffffffffffffffffffffffffffffffffff167fb95900c899bdac269b9171170672563471748b1d67c0f84de39892ffe1bb74f560405160405180910390a250565b6000600d6000815480929190613b4c906145ca565b91905055506304ec38ed4233600d54604051602001613b6d939291906148ef565b6040516020818303038152906040528051906020012060001c613b90919061495b565b905090565b613ba9816001613da090919063ffffffff16565b8073ffffffffffffffffffffffffffffffffffffffff167fd624a9d6aede8c855ca1538132c456ef4117d142f2b2b6ab106d1c06356715fd60405160405180910390a250565b600073ffffffffffffffffffffffffffffffffffffffff168173ffffffffffffffffffffffffffffffffffffffff161415613c2957600080fd5b613c3382826134e3565b613c3c57600080fd5b60018260010160008373ffffffffffffffffffffffffffffffffffffffff1673ffffffffffffffffffffffffffffffffffffffff16815260200190815260200160002060006101000a81548160ff0219169083151502179055505050565b600073ffffffffffffffffffffffffffffffffffffffff168173ffffffffffffffffffffffffffffffffffffffff161415613cd457600080fd5b613cde82826134e3565b15613ce857600080fd5b60018260000160008373ffffffffffffffffffffffffffffffffffffffff1673ffffffffffffffffffffffffffffffffffffffff16815260200190815260200160002060006101000a81548160ff02191690831515021790555060008260010160008373ffffffffffffffffffffffffffffffffffffffff1673ffffffffffffffffffffffffffffffffffffffff16815260200190815260200160002060006101000a81548160ff0219169083151502179055505050565b600073ffffffffffffffffffffffffffffffffffffffff168173ffffffffffffffffffffffffffffffffffffffff161415613dda57600080fd5b613de482826134e3565b613ded57600080fd5b60008260010160008373ffffffffffffffffffffffffffffffffffffffff1673ffffffffffffffffffffffffffffffffffffffff16815260200190815260200160002060006101000a81548160ff0219169083151502179055505050565b828054613e57906146ab565b90600052602060002090601f016020900481019282613e795760008555613ec0565b82601f10613e9257805160ff1916838001178555613ec0565b82800160010185558215613ec0579182015b82811115613ebf578251825591602001919060010190613ea4565b5b509050613ecd9190613ed1565b5090565b5b80821115613eea576000816000905550600101613ed2565b5090565b6000604051905090565b600080fd5b600080fd5b6000819050919050565b613f1581613f02565b8114613f2057600080fd5b50565b600081359050613f3281613f0c565b92915050565b60008060408385031215613f4f57613f4e613ef8565b5b6000613f5d85828601613f23565b9250506020613f6e85828601613f23565b9150509250929050565b600073ffffffffffffffffffffffffffffffffffffffff82169050919050565b6000613fa382613f78565b9050919050565b613fb381613f98565b8114613fbe57600080fd5b50565b600081359050613fd081613faa565b92915050565b600060208284031215613fec57613feb613ef8565b5b6000613ffa84828501613fc1565b91505092915050565b600081519050919050565b600082825260208201905092915050565b6000819050602082019050919050565b61403881613f02565b82525050565b600061404a838361402f565b60208301905092915050565b6000602082019050919050565b600061406e82614003565b614078818561400e565b93506140838361401f565b8060005b838110156140b457815161409b888261403e565b97506140a683614056565b925050600181019050614087565b5085935050505092915050565b600060208201905081810360008301526140db8184614063565b905092915050565b60008115159050919050565b6140f8816140e3565b82525050565b600060208201905061411360008301846140ef565b92915050565b600061412482613f78565b9050919050565b61413481614119565b811461413f57600080fd5b50565b6000813590506141518161412b565b92915050565b6000806040838503121561416e5761416d613ef8565b5b600061417c85828601613f23565b925050602061418d85828601614142565b9150509250929050565b6000602082840312156141ad576141ac613ef8565b5b60006141bb84828501613f23565b91505092915050565b6141cd81613f02565b82525050565b600081519050919050565b600082825260208201905092915050565b60005b8381101561420d5780820151818401526020810190506141f2565b8381111561421c576000848401525b50505050565b6000601f19601f8301169050919050565b600061423e826141d3565b61424881856141de565b93506142588185602086016141ef565b61426181614222565b840191505092915050565b61427581613f98565b82525050565b600060e082019050614290600083018a6141c4565b81810360208301526142a28189614233565b905081810360408301526142b68188614233565b90506142c5606083018761426c565b6142d2608083018661426c565b6142df60a08301856141c4565b6142ec60c08301846141c4565b98975050505050505050565b600080fd5b600080fd5b7f4e487b7100000000000000000000000000000000000000000000000000000000600052604160045260246000fd5b61433a82614222565b810181811067ffffffffffffffff8211171561435957614358614302565b5b80604052505050565b600061436c613eee565b90506143788282614331565b919050565b600067ffffffffffffffff82111561439857614397614302565b5b6143a182614222565b9050602081019050919050565b82818337600083830152505050565b60006143d06143cb8461437d565b614362565b9050828152602081018484840111156143ec576143eb6142fd565b5b6143f78482856143ae565b509392505050565b600082601f830112614414576144136142f8565b5b81356144248482602086016143bd565b91505092915050565b614436816140e3565b811461444157600080fd5b50565b6000813590506144538161442d565b92915050565b600080600080600060a0868803121561447557614474613ef8565b5b600086013567ffffffffffffffff81111561449357614492613efd565b5b61449f888289016143ff565b955050602086013567ffffffffffffffff8111156144c0576144bf613efd565b5b6144cc888289016143ff565b945050604086013567ffffffffffffffff8111156144ed576144ec613efd565b5b6144f9888289016143ff565b935050606061450a88828901614444565b925050608061451b88828901613f23565b9150509295509295909350565b600060208201905061453d60008301846141c4565b92915050565b7f4e487b7100000000000000000000000000000000000000000000000000000000600052602160045260246000fd5b600060408201905061458760008301856141c4565b61459460208301846141c4565b9392505050565b7f4e487b7100000000000000000000000000000000000000000000000000000000600052601160045260246000fd5b60006145d582613f02565b91507fffffffffffffffffffffffffffffffffffffffffffffffffffffffffffffffff8214156146085761460761459b565b5b600182019050919050565b6000819050919050565b61462e61462982613f02565b614613565b82525050565b60008160601b9050919050565b600061464c82614634565b9050919050565b600061465e82614641565b9050919050565b61467661467182614119565b614653565b82525050565b7f4e487b7100000000000000000000000000000000000000000000000000000000600052602260045260246000fd5b600060028204905060018216806146c357607f821691505b602082108114156146d7576146d661467c565b5b50919050565b600081905092915050565b60008190508160005260206000209050919050565b6000815461470a816146ab565b61471481866146dd565b9450600182166000811461472f576001811461474057614773565b60ff19831686528186019350614773565b614749856146e8565b60005b8381101561476b5781548189015260018201915060208101905061474c565b838801955050505b50505092915050565b6000614788828761461d565b6020820191506147988286614665565b6014820191506147a88285614665565b6014820191506147b882846146fd565b915081905095945050505050565b60006147d182614641565b9050919050565b6147e96147e482613f98565b6147c6565b82525050565b60006147fb828761461d565b60208201915061480b8286614665565b60148201915061481b82856147d8565b60148201915061482b82846146fd565b915081905095945050505050565b600061484482613f02565b915060008214156148585761485761459b565b5b600182039050919050565b600060408201905061487860008301856141c4565b614885602083018461426c565b9392505050565b7f4e487b7100000000000000000000000000000000000000000000000000000000600052603260045260246000fd5b60006148c682613f02565b91506148d183613f02565b9250828210156148e4576148e361459b565b5b828203905092915050565b60006148fb828661461d565b60208201915061490b82856147d8565b60148201915061491b828461461d565b602082019150819050949350505050565b7f4e487b7100000000000000000000000000000000000000000000000000000000600052601260045260246000fd5b600061496682613f02565b915061497183613f02565b9250826149815761498061492c565b5b82820690509291505056fea2646970667358221220a13b0f2e73c07a3f6142e104405c6704965c2ac476afc45342190d412041763464736f6c634300080c0033",
  "immutableReferences": {},
  "source": "// SPDX-License-Identifier: MIT\r\n\r\npragma solidity >=0.4.24;\r\n\r\n//contracts\r\nimport \"./Consumer.sol\";\r\nimport \"./Distributor.sol\";\r\nimport \"./Manufacturer.sol\";\r\nimport \"./Retailer.sol\";\r\n\r\ncontract SupplyChain is Retailer, Consumer, Manufacturer, Distributor {\r\n    uint256[] composite;\r\n    mapping(uint256 => Item) items;\r\n    mapping(address => totalItems) ownership;\r\n    mapping(address => totalItems) shipped;\r\n\r\n    uint256 randNonce = 0;\r\n\r\n    function randMod() internal returns (uint256) {\r\n        randNonce++;\r\n        return\r\n            uint256(\r\n                keccak256(\r\n                    abi.encodePacked(block.timestamp, msg.sender, randNonce)\r\n                )\r\n            ) % 82589933;\r\n    }\r\n\r\n    function deleteItem(uint256 _uin, address add) internal {\r\n        for (uint256 i = 0; i < ownership[add].itemUin.length; i++) {\r\n            if (_uin == ownership[add].itemUin[i]) {\r\n                ownership[add].itemUin[i] = ownership[add].itemUin[\r\n                    ownership[add].itemUin.length - 1\r\n                ];\r\n                break;\r\n            }\r\n        }\r\n        delete ownership[add].itemUin[ownership[add].itemUin.length - 1];\r\n    }\r\n\r\n    enum State {\r\n        SProducedByManufacturer, //0\r\n        SForSaleByManufacturer, //1\r\n        SShippedByManufacturer, //2\r\n        SReceivedByDistributor, //3\r\n        SForSaleByDistributor, //4\r\n        SShippedByDistributor, //5\r\n        SReceivedByRetailer, //6\r\n        SForSaleByRetailer, //7\r\n        SShippedByRetailer, //8\r\n        SReceivedByCustomer, //9\r\n        SCollectibleForSaleByCustomer, //10\r\n        SShippedByCustomer, //11\r\n        SReceivedCollectibleByCustomer //12\r\n    }\r\n\r\n    State constant defaultState = State.SProducedByManufacturer;\r\n\r\n    struct totalItems {\r\n        uint256 count;\r\n        uint256[] itemUin;\r\n    }\r\n\r\n    struct Item {\r\n        uint256 uin;\r\n        string productName;\r\n        string productType;\r\n        string productDescription;\r\n        address payable manufacturerId;\r\n        // address payable manufacturerId;\r\n        address payable CurrentOwner;\r\n        address payable ShipTo;\r\n        uint256 productDate;\r\n        bool collectible;\r\n        bool composite;\r\n        bool visibility;\r\n        uint256 weight;\r\n        uint256 productPrice;\r\n        uint256 productHash;\r\n        State productState;\r\n    }\r\n\r\n    //Events\r\n\r\n    event EProducedByManufacturer(\r\n        uint256 indexed uin,\r\n        uint256 x,\r\n        address indexed y\r\n    );\r\n    event EForSaleByManufacturer(\r\n        uint256 indexed uin,\r\n        uint256 x,\r\n        address indexed y,\r\n        uint256 z\r\n    );\r\n    event EShippedByManufacturer(\r\n        uint256 indexed uin,\r\n        uint256 x,\r\n        address indexed y,\r\n        address indexed z\r\n    );\r\n    event EReceivedByDistributor(\r\n        uint256 indexed uin,\r\n        uint256 x,\r\n        address indexed y\r\n    );\r\n    event EForSaleByDistributor(\r\n        uint256 indexed uin,\r\n        uint256 x,\r\n        address indexed y,\r\n        uint256 z\r\n    );\r\n    event EShippedByDistributor(\r\n        uint256 indexed uin,\r\n        uint256 x,\r\n        address indexed y,\r\n        address indexed z\r\n    );\r\n    event EReceivedByRetailer(uint256 indexed uin, uint256 x, address y);\r\n    event EForSaleByRetailer(\r\n        uint256 indexed uin,\r\n        uint256 x,\r\n        address indexed y,\r\n        uint256 z\r\n    );\r\n    event EShippedByRetailer(\r\n        uint256 indexed uin,\r\n        uint256 x,\r\n        address indexed y,\r\n        address indexed z\r\n    );\r\n    event EReceivedByCustomer(uint256 indexed uin, uint256 x, address y);\r\n    event ECollectibleForSaleByCustomer(\r\n        uint256 indexed uin,\r\n        uint256 x,\r\n        address indexed y,\r\n        uint256 z\r\n    );\r\n    event EShippedtheCollectibleByCustomer(\r\n        uint256 indexed uin,\r\n        uint256 x,\r\n        address indexed y,\r\n        address indexed z\r\n    );\r\n    event EReceivedCollectibleByCustomer(\r\n        uint256 indexed uin,\r\n        uint256 x,\r\n        address indexed y\r\n    );\r\n\r\n    //Is Amount Equal\r\n    modifier paidEnough(uint256 _price) {\r\n        require(msg.value >= _price);\r\n        _;\r\n    }\r\n\r\n    //Return Extra value\r\n    modifier checkValue(uint256 _upc, address payable addressToFund) {\r\n        uint256 _price = items[_upc].productPrice;\r\n        uint256 amountToReturn = msg.value - _price;\r\n        addressToFund.transfer(amountToReturn);\r\n        _;\r\n    }\r\n\r\n    //Item State Modifiers\r\n    modifier MProducedByManufacturer(uint256 _uin) {\r\n        require(items[_uin].productState == State.SProducedByManufacturer);\r\n        _;\r\n    }\r\n\r\n    modifier MForSaleByManufacturer(uint256 _uin) {\r\n        require(items[_uin].productState == State.SForSaleByManufacturer);\r\n        _;\r\n    }\r\n\r\n    modifier MReceivedByDistributor(uint256 _uin) {\r\n        require(items[_uin].productState == State.SReceivedByDistributor);\r\n        _;\r\n    }\r\n\r\n    modifier MShippedByManufacturer(uint256 _uin) {\r\n        require(items[_uin].productState == State.SShippedByManufacturer);\r\n        _;\r\n    }\r\n\r\n    modifier MForSaleByDistributor(uint256 _uin) {\r\n        require(items[_uin].productState == State.SForSaleByDistributor);\r\n        _;\r\n    }\r\n\r\n    modifier MShippedByDistributor(uint256 _uin) {\r\n        require(items[_uin].productState == State.SShippedByDistributor);\r\n        _;\r\n    }\r\n\r\n    modifier MReceivedByRetailer(uint256 _uin) {\r\n        require(items[_uin].productState == State.SReceivedByRetailer);\r\n        _;\r\n    }\r\n\r\n    modifier MForSaleByRetailer(uint256 _uin) {\r\n        require(items[_uin].productState == State.SForSaleByRetailer);\r\n        _;\r\n    }\r\n\r\n    modifier MShippedByRetailer(uint256 _uin) {\r\n        require(items[_uin].productState == State.SShippedByRetailer);\r\n        _;\r\n    }\r\n\r\n    modifier MReceivedByCustomer(uint256 _uin) {\r\n        require(items[_uin].productState == State.SReceivedByCustomer);\r\n        _;\r\n    }\r\n\r\n    modifier MCollectibleForSaleByCustomer(uint256 _uin) {\r\n        require(\r\n            items[_uin].productState == State.SCollectibleForSaleByCustomer\r\n        );\r\n        _;\r\n    }\r\n\r\n    modifier MShippedCollectibleByCustomer(uint256 _uin) {\r\n        require(items[_uin].productState == State.SShippedByCustomer);\r\n        _;\r\n    }\r\n\r\n    modifier MReceivedCollectibleByCustomer(uint256 _uin) {\r\n        require(\r\n            items[_uin].productState == State.SReceivedCollectibleByCustomer\r\n        );\r\n        _;\r\n    }\r\n\r\n    modifier MisCollectible(uint256 _uin) {\r\n        require(items[_uin].collectible == true);\r\n        _;\r\n    }\r\n\r\n    modifier MVerifyCaller(uint256 _uin) {\r\n        require(\r\n            items[_uin].productHash ==\r\n                uint256(\r\n                    keccak256(\r\n                        abi.encodePacked(\r\n                            _uin,\r\n                            items[_uin].CurrentOwner,\r\n                            msg.sender,\r\n                            items[_uin].productName\r\n                        )\r\n                    )\r\n                )\r\n        );\r\n        _;\r\n    }\r\n\r\n    function getEntity() public view returns (uint) {\r\n        if(isManufacturer(msg.sender)){\r\n            return 1;\r\n        } else if(isDistributor(msg.sender)) {\r\n            return 2;\r\n        } else if(isRetailer(msg.sender)){\r\n            return 3;\r\n        } else if(isConsumer(msg.sender)){\r\n            return 4;\r\n        } else {\r\n            return 5;\r\n        }\r\n    } \r\n\r\n    // Step1\r\n    function producebymanufacturer(\r\n        string memory _ProductName,\r\n        string memory _ProductDesc,\r\n        string memory _ProductType,\r\n        bool _collectible,\r\n        uint256 weight\r\n    ) public onlyManufacturer(msg.sender) returns (uint256) {\r\n        uint256 uin = randMod();\r\n        address payable manufacturer = payable(msg.sender);\r\n        items[uin] = Item(\r\n            uin,\r\n            _ProductName,\r\n            _ProductType,\r\n            _ProductDesc,\r\n            manufacturer,\r\n            manufacturer,\r\n            payable(address(0)),\r\n            block.timestamp,\r\n            _collectible,\r\n            false,\r\n            false,\r\n            weight,\r\n            0,\r\n            0,\r\n            defaultState\r\n        );\r\n        ownership[manufacturer].count++;\r\n        ownership[manufacturer].itemUin.push(uin);\r\n        emit EProducedByManufacturer(uin, block.timestamp, msg.sender);\r\n        return (uin);\r\n    }\r\n\r\n    //Step2\r\n    function forsalebymanufacturer(uint256 uin, uint256 price)\r\n        public\r\n        onlyManufacturer(msg.sender)\r\n        MProducedByManufacturer(uin)\r\n    {\r\n        items[uin].visibility = true;\r\n        items[uin].productState = State.SForSaleByManufacturer;\r\n        items[uin].productPrice = price;\r\n        emit EForSaleByManufacturer(uin, block.timestamp, msg.sender, price);\r\n    }\r\n\r\n    //Step3\r\n\r\n    function shippedbymanufacturer(uint256 uin, address payable shipTo)\r\n        public\r\n        onlyManufacturer(msg.sender)\r\n        onlyDistributor(shipTo)\r\n        MForSaleByManufacturer(uin)\r\n    {\r\n        items[uin].productState = State.SShippedByManufacturer;\r\n        items[uin].ShipTo = shipTo;\r\n        shipped[shipTo].count++;\r\n        shipped[shipTo].itemUin.push(uin);\r\n        items[uin].productHash = uint256(\r\n            keccak256(\r\n                abi.encodePacked(\r\n                    uin,\r\n                    items[uin].CurrentOwner,\r\n                    shipTo,\r\n                    items[uin].productName\r\n                )\r\n            )\r\n        );\r\n        emit EShippedByManufacturer(uin, block.timestamp, msg.sender, shipTo);\r\n    }\r\n\r\n    //Step4\r\n\r\n    function receivedbydistributor(uint256 uin)\r\n        public\r\n        payable\r\n        onlyDistributor(msg.sender)\r\n        paidEnough(items[uin].productPrice)\r\n        MShippedByManufacturer(uin)\r\n        MVerifyCaller(uin)\r\n    //checkValue(items[uin].productPrice, payable(msg.sender))\r\n    {\r\n        items[uin].productState = State.SReceivedByDistributor;\r\n        items[uin].visibility = false;\r\n        items[uin].CurrentOwner.transfer(items[uin].productPrice);\r\n        deleteItem(uin, items[uin].CurrentOwner);\r\n        ownership[items[uin].CurrentOwner].count--;\r\n        items[uin].CurrentOwner = payable(msg.sender);\r\n        items[uin].productPrice = 0;\r\n        ownership[msg.sender].count++;\r\n        ownership[msg.sender].itemUin.push(uin);\r\n        emit EReceivedByDistributor(uin, block.timestamp, msg.sender);\r\n    }\r\n\r\n    //Step5\r\n    function forsalebydistributor(uint256 uin, uint256 price)\r\n        public\r\n        onlyDistributor(msg.sender)\r\n        MReceivedByDistributor(uin)\r\n    {\r\n        items[uin].visibility = true;\r\n        items[uin].productState = State.SForSaleByDistributor;\r\n        items[uin].productPrice = price;\r\n        emit EForSaleByDistributor(uin, block.timestamp, msg.sender, price);\r\n    }\r\n\r\n    //Step6\r\n    function shippedbydistributor(uint256 uin, address payable shipTo)\r\n        public\r\n        onlyDistributor(msg.sender)\r\n        onlyRetailer(shipTo)\r\n        MForSaleByDistributor(uin)\r\n    {\r\n        items[uin].productState = State.SShippedByDistributor;\r\n        items[uin].ShipTo = shipTo;\r\n        shipped[shipTo].count++;\r\n        shipped[shipTo].itemUin.push(uin);\r\n        items[uin].productHash = uint256(\r\n            keccak256(\r\n                abi.encodePacked(\r\n                    uin,\r\n                    items[uin].CurrentOwner,\r\n                    shipTo,\r\n                    items[uin].productName\r\n                )\r\n            )\r\n        );\r\n        emit EShippedByDistributor(uin, block.timestamp, msg.sender, shipTo);\r\n    }\r\n\r\n    //Step7\r\n    function receivedbyretailer(uint256 uin)\r\n        public\r\n        payable\r\n        onlyRetailer(msg.sender)\r\n        paidEnough(items[uin].productPrice)\r\n        MShippedByDistributor(uin)\r\n        MVerifyCaller(uin)\r\n    {\r\n        items[uin].productState = State.SReceivedByRetailer;\r\n        items[uin].visibility = false;\r\n        items[uin].CurrentOwner.transfer(items[uin].productPrice);\r\n        ownership[items[uin].CurrentOwner].count--;\r\n        deleteItem(uin, items[uin].CurrentOwner);\r\n        items[uin].CurrentOwner = payable(msg.sender);\r\n        items[uin].productPrice = 0;\r\n        ownership[msg.sender].count++;\r\n        ownership[msg.sender].itemUin.push(uin);\r\n        emit EReceivedByRetailer(uin, block.timestamp, msg.sender);\r\n    }\r\n\r\n    //Step8\r\n    function forsalebyretailer(uint256 uin, uint256 price)\r\n        public\r\n        onlyRetailer(msg.sender)\r\n        MReceivedByRetailer(uin)\r\n    {\r\n        items[uin].productState = State.SForSaleByRetailer;\r\n        items[uin].productPrice = price;\r\n        emit EForSaleByRetailer(uin, block.timestamp, msg.sender, price);\r\n    }\r\n\r\n    //Step9\r\n    function shippedbyretailer(uint256 uin, address payable shipTo)\r\n        public\r\n        onlyRetailer(msg.sender)\r\n        onlyConsumer(shipTo)\r\n        MForSaleByRetailer(uin)\r\n    {\r\n        items[uin].productState = State.SShippedByRetailer;\r\n        items[uin].ShipTo = shipTo;\r\n        shipped[shipTo].count++;\r\n        shipped[shipTo].itemUin.push(uin);\r\n        items[uin].productHash = uint256(\r\n            keccak256(\r\n                abi.encodePacked(\r\n                    uin,\r\n                    items[uin].CurrentOwner,\r\n                    shipTo,\r\n                    items[uin].productName\r\n                )\r\n            )\r\n        );\r\n        emit EShippedByRetailer(uin, block.timestamp, msg.sender, shipTo);\r\n    }\r\n\r\n    //Step10\r\n    function receivedbycustomer(uint256 uin)\r\n        public\r\n        payable\r\n        onlyConsumer(payable(msg.sender))\r\n        paidEnough(items[uin].productPrice)\r\n        MShippedByRetailer(uin)\r\n        MVerifyCaller(uin)\r\n    {\r\n        items[uin].productState = State.SReceivedByCustomer;\r\n        items[uin].visibility = false;\r\n        items[uin].CurrentOwner.transfer(items[uin].productPrice);\r\n        ownership[items[uin].CurrentOwner].count--;\r\n        deleteItem(uin, items[uin].CurrentOwner);\r\n        items[uin].CurrentOwner = payable(msg.sender);\r\n        items[uin].productPrice = 0;\r\n        ownership[msg.sender].count++;\r\n        ownership[msg.sender].itemUin.push(uin);\r\n        emit EReceivedByCustomer(uin, block.timestamp, msg.sender);\r\n    }\r\n\r\n    //Step11\r\n    function collectibleforsalebycustomer(uint256 uin, uint256 price)\r\n        public\r\n        onlyConsumer(payable(msg.sender))\r\n        MReceivedByCustomer(uin)\r\n        MisCollectible(uin)\r\n    {\r\n        items[uin].productState = State.SCollectibleForSaleByCustomer;\r\n        items[uin].productPrice = price;\r\n        items[uin].visibility = true;\r\n        emit ECollectibleForSaleByCustomer(\r\n            uin,\r\n            block.timestamp,\r\n            msg.sender,\r\n            price\r\n        );\r\n    }\r\n\r\n    //Step12\r\n    function shippedcollectiblebycustomer(uint256 uin, address payable ShipTo)\r\n        public\r\n        onlyConsumer(payable(msg.sender))\r\n        onlyConsumer(ShipTo)\r\n        MCollectibleForSaleByCustomer(uin)\r\n    {\r\n        items[uin].productState = State.SShippedByCustomer;\r\n        items[uin].ShipTo = ShipTo;\r\n        shipped[ShipTo].count++;\r\n        shipped[ShipTo].itemUin.push(uin);\r\n        items[uin].productHash = uint256(\r\n            keccak256(\r\n                abi.encodePacked(\r\n                    uin,\r\n                    items[uin].CurrentOwner,\r\n                    ShipTo,\r\n                    items[uin].productName\r\n                )\r\n            )\r\n        );\r\n        emit EShippedtheCollectibleByCustomer(\r\n            uin,\r\n            block.timestamp,\r\n            msg.sender,\r\n            ShipTo\r\n        );\r\n    }\r\n\r\n    //Step13\r\n\r\n    function receivedcollectiblebycustomer(uint256 uin)\r\n        public\r\n        payable\r\n        onlyConsumer(payable(msg.sender))\r\n        MisCollectible(uin)\r\n        paidEnough(items[uin].productPrice)\r\n        MShippedCollectibleByCustomer(uin)\r\n        MVerifyCaller(uin)\r\n    {\r\n        items[uin].productState = State.SReceivedCollectibleByCustomer;\r\n        items[uin].visibility = false;\r\n        items[uin].CurrentOwner.transfer(items[uin].productPrice);\r\n        ownership[items[uin].CurrentOwner].count--;\r\n        deleteItem(uin, items[uin].CurrentOwner);\r\n        items[uin].CurrentOwner = payable(msg.sender);\r\n        items[uin].productPrice = 0;\r\n        ownership[msg.sender].count++;\r\n        ownership[msg.sender].itemUin.push(uin);\r\n        emit EReceivedCollectibleByCustomer(uin, block.timestamp, msg.sender);\r\n    }\r\n\r\n    //Step 14\r\n    function productDetail(uint256 uin)\r\n        public\r\n        view\r\n        returns (\r\n            uint256,\r\n            string memory,\r\n            string memory,\r\n            address,\r\n            address,\r\n            uint256,\r\n            uint256\r\n        )\r\n    {\r\n        return (\r\n            items[uin].uin,\r\n            items[uin].productName,\r\n            items[uin].productDescription,\r\n            items[uin].manufacturerId,\r\n            items[uin].CurrentOwner,\r\n            items[uin].productDate,\r\n            items[uin].productPrice\r\n        );\r\n    }\r\n\r\n    function ownedItems() public view returns (uint256[] memory) {\r\n        return ownership[msg.sender].itemUin;\r\n    }\r\n    function shippedItems() public view returns (uint256[] memory) {\r\n        return shipped[msg.sender].itemUin;\r\n    }\r\n}",
  "sourcePath": "D:\\Blockchain Projects\\ProjectFiles\\Project\\contracts\\SupplyChain.sol",
  "compiler": {
    "name": "solc",
    "version": "0.8.12+commit.f00d7308.Emscripten.clang"
  },
  "schemaVersion": "3.4.5",
  "updatedAt": "2022-03-08T05:03:27.836Z",
  "networkType": "ethereum",
  "devdoc": {
    "kind": "dev",
    "methods": {},
    "version": 1
  },
  "userdoc": {
    "kind": "user",
    "methods": {},
    "version": 1
  }
}